:020000040800F2
:1000000070370020990100087B230008F11E0008CA
:1000100079230008A5060008E53D0008000000005F
:10002000000000000000000000000000772B000826
:100030009B09000800000000732B0008753C0008B5
:10004000B3010008B3010008B3010008B3010008C0
:10005000B3010008B3010008B3010008B3010008B0
:10006000B3010008B30100089D090008B3010008AE
:10007000B3010008B3010008B3010008B301000890
:10008000B3010008B3010008B3010008B301000880
:10009000B3010008B3010008B3010008A309000878
:1000A000B3010008B3010008B3010008B301000860
:1000B000B3010008B3010008F53C0008B3010008D3
:1000C000B3010008B3010008B3010008B301000840
:1000D000B3010008B3010008B3010008B301000830
:1000E000B3010008B3010008B3010008DFF80CD029
:1000F00000F022FA00480047C93F0008703700208E
:10010000224B19680868B0E8F00F80F30988BFF344
:100110006F8F4FF0000080F311884EF00D0E704786
:100120000000000006480068006880F3088862B696
:1001300061B6BFF34F8FBFF36F8F00DF00BF00BF0B
:1001400008ED00E0EFF30980BFF36F8F0F4B1A68E3
:1001500020E9F00F106008B54FF0500080F31188CF
:10016000BFF34F8FBFF36F8F04F088FE4FF0000096
:1001700080F31188BDE8084019680868B0E8F00FFE
:1001800080F30988BFF36F8F704700BF2C000020F9
:10019000EFF3058070470000064880470648004797
:1001A000FEE7FEE7FEE7FEE7FEE7FEE7FEE7FEE727
:1001B000FEE7FEE7F13C0008ED000008202A04DB22
:1001C000203A21FA02F00021704721FA02F3D040D0
:1001D000C2F12002914008431946704740EA0103EA
:1001E0009B0703D009E008C9121F08C0042AFAD2ED
:1001F00003E011F8013B00F8013B521EF9D27047B1
:10020000D2B201E000F8012B491EFBD27047002258
:10021000F6E710B513460A4604461946FFF7F0FF05
:10022000204610BDF0B480EA0102D40F4200B2EBC8
:10023000410F02D20246084611464A0042D0C30D81
:10024000DDB2C1F3C752AD1A202D35DAC1F3160164
:1002500041F4000204B15242C5F1200602FA06F14F
:100260002A411044B3EBD05F23D0C4B1012DA0EBE1
:10027000C35009DCF0BC4FF0004202EAC352DBB2CB
:1002800000F5000000F0CCB8400000F1807000EBF9
:10029000C350A0F1807040EAD170490009E04908DC
:1002A00041EAC071A0EBC35000F50000400800EB2C
:1002B000C350F0BC00F0ABB86142012202EB410137
:1002C000001BF6E7F0BC704781F00041AAE780F020
:1002D0000040A7E780EA010210B502F000434000A9
:1002E00022D04A001FD0010E01EB1261C0F356006C
:1002F000C2F3560240F4000042F40002A0FB0220C8
:1003000000047F39140400D0401C50EA124001D48C
:100310004000491EC2B20C0604EBD010401C40083D
:10032000802A02D003E0002010BD20F00100002947
:1003300000DA0020184310BD70B521F000430343DC
:100340000CD0C1F30A550024D5EB040564EB04037B
:10035000D617AD1AB34102DB0020014670BD20184C
:1003600041EB025170BDC10F80EAE0700844CA073A
:100370009623002100F054B896230022114600F085
:100380004FB80EB5C10F80EAE0700844CA070021DB
:1003900040F233438DE80E000A460B4600F07DF82C
:1003A00003B000BD00F0004220F00040C10DC0F3DA
:1003B000160040F400007F2901DA002070479629DA
:1003C00003DCC1F19601C84001E096398840002A5B
:1003D000F4D04042704701F0004330B421F00041B6
:1003E00050EA010206D00A0DA2F56072C1F31301B2
:1003F000002A02DC30BC00207047440F44EAC104EC
:10040000C100E01830BC00EBC250AFF300800029FF
:10041000A8BF7047401C490008BF20F0010070478A
:1004200010B4B0FA80FC00FA0CF050EA010404BFEA
:1004300010BC704749B1CCF1200421FA04F411FA40
:100440000CF118BF012121430843A3EB0C01CB1D84
:100450004FEA00614FEA102042BF002010BC7047F5
:1004600000EBC35010440029A4BF10BC7047401CCF
:10047000490008BF20F0010010BC704710B5141EE1
:1004800073F1000408DA401C41F1000192185B414D
:100490001A4301D120F0010010BD2DE9F04D924624
:1004A0009B4611B1B1FA81F202E0B0FA80F220323B
:1004B000904600F053F804460F4640EA0A0041EA2D
:1004C0000B0153465A46084313D0114653EA010024
:1004D00019D0C8F140025046FFF770FE05460E469F
:1004E00050465946424600F039F8084305D00120ED
:1004F00004E020463946BDE8F08D0020054346EA79
:10050000E0762C4337430A986305E40AA0EB080021
:100510000022FD0A44EA47540A3002D50020014671
:10052000E9E7010510196941DDE90845001969414C
:10053000BDE8F04DA2E70000064C074D06E0E0687C
:1005400040F0010394E8070098471034AC42F6D31A
:10055000FFF7D0FD2C8E00084C8E0008202A04DB0B
:10056000203A00FA02F1002070479140C2F12003C6
:1005700020FA03F319439040704770B58C1810F8B7
:10058000015B15F0070301D110F8013B2A1106D1D8
:1005900010F8012B03E010F8016B01F8016B5B1EF2
:1005A000F9D12B0705D40023521E0DD401F8013BCD
:1005B000FAE710F8013BCB1A921C03E013F8015B39
:1005C00001F8015B521EF9D5A142D8D3002070BDBD
:1005D00070B5044600688168C943C90717D18168AE
:1005E00021F00101816000F007FE05460AE000BF2E
:1005F00000F002FE401B022804D920688068C04336
:10060000C00706D020688068C043C007F0D0002033
:1006100070BDA06A40F01000A062E06A40F00100E6
:10062000E062012070BD0000F8B500260446009687
:1006300000688168C943C9072DD0816841F0010174
:100640008160164816490068B0FBF1F000E0401EDA
:1006500000900028FBD100F0CFFD054616E000BF5A
:1006600000F0CAFD401B022810D920688068C043F2
:10067000C0070BD0A06A40F01000A062E06A40F012
:100680000100E06284F824600120F8BD20688068E1
:10069000C043C007E4D10020F8BD0000580100208D
:1006A00040420F00FEE700002DE9F05F2B4C40F0C8
:1006B000010901224FF000089102204600F097FD49
:1006C0000025A246264F4FF4007B4FF4004601243C
:1006D00004FA05F202EA09025946504600F087FD85
:1006E00000223146384600F082FD0122314638466C
:1006F00000F07DFD6D1CEDB2082DE9D3002501222F
:100700003146384600F073FD00223146384600F08D
:100710006EFD012003F00EFC5946504600F062FDCC
:10072000012805D104FA05F040EA080000F0FF08AE
:100730006D1CEDB2082DE2D3002003F0FBFB00227C
:100740004FF480615446504600F051FD0022594656
:10075000204600F04CFD4046BDE8F09F00080140F7
:10076000000C014010B58C20FFF79EFF00F00F0138
:1007700000091F4C00EB800001EB4000A0808820A6
:10078000FFF792FF00F00F01000900EB800001EB82
:100790004000A0718620FFF787FF00F00F010009DD
:1007A00000EB800001EB4000E0718420FFF77CFF4C
:1007B00000F00F01000900EB800001EB4000207009
:1007C0008220FFF771FF00F00F01000900EB8000AD
:1007D00001EB400060708020FFF766FF00F00F0122
:1007E000000900EB800001EB4000A07010BD00008C
:1007F000FA0000202DE9F0470F46DDE9089A80460F
:100800001D46164600218E2000F050F80A24B8FB41
:10081000F4F1B8FBF4F004FB118101EB0010C1B25C
:100820008C2000F043F8B7FBF4F0B7FBF4F104FBC5
:10083000107000EB0110C1B2882000F037F8B6FB51
:10084000F4F0B6FBF4F104FB106000EB0110C1B250
:10085000862000F02BF8B5FBF4F0B5FBF4F104FBB7
:10086000105000EB0110C1B2842000F01FF8B9FB5A
:10087000F4F1B9FBF4F004FB119101EB0010C1B2EB
:10088000822000F013F8BAFBF4F1BAFBF4F004FB99
:1008900011A101EB0010C1B2802000F007F8BDE803
:1008A000F04780218E2000F001B800002DE9F05FB4
:1008B000234E8B46824601229102304600F097FC7F
:1008C000002003F037FB00250124B0461D4F4FF4F4
:1008D0000079E60304FA05F202EA0A0249464046B4
:1008E00000F085FC01223146384600F080FC0022F1
:1008F0003146384600F07BFC6D1CEDB2082DE9D383
:100900005FF0000504FA05F202EA0B024946404690
:1009100000F06DFC01223146384600F068FC0022F0
:100920003146384600F063FC6D1CEDB2082DE9D36A
:100930004046BDE8F05F00224FF4806100F057BCF4
:1009400000080140000C014010B502F011F8CC2065
:1009500002F06CF8442002F069F8BDE8104040F263
:10096000EE2003F0BDBA10B502F002F8CC2002F080
:100970005DF8BE2002F05AF802F020F8044602F0BA
:100980001DF844EA0020FFF7FCFC6FF00302FFF7BC
:10099000D3FCBDE81040FFF71EBD7047102000F0EB
:1009A00025BB10B5202000F021FBBDE81040402001
:1009B00000F01CBB72B6FEE710B503F099F900F029
:1009C000BDFD03F059F9BDE8104001F035BC000051
:1009D0007CB503F079FF4E480090002301224FF4CC
:1009E0007A714CA004F06AFF4C4D00230122A863E9
:1009F0004B4800900A214BA004F060FFE8630322FB
:100A00000021012004F09CFA286303220021012028
:100A100004F096FA6863291D0220CDE90001002345
:100A2000802242A1444804F0E5FC002405F10800BE
:100A3000CDE900402346802240A1444804F0DAFC7E
:100A400005F10C00CDE900400023802240A144487C
:100A500004F0D0FC05F11000CDE900400023802215
:100A600040A1444804F0C6FC05F11400CDE9004063
:100A70004FF48076002332463FA1434804F0BAFC8D
:100A800005F11800CDE90040002380223FA1434832
:100A900004F0B0FC05F11C00CDE9004000238022E9
:100AA0003FA1434804F0A6FC05F12000CDE9004039
:100AB000002380223FA1434804F09CFC05F1240060
:100AC000CDE90040002332463FA1434804F092FCA8
:100AD00005F12800CDE90040002380223FA14348D2
:100AE00004F088FC05F12C00CDE9004000238022B1
:100AF0003FA1434804F07EFC00220421012004F0C1
:100B00001FFA286403F0EEFEBDE87C4004F018B93B
:100B1000793D000854696D657231000008010020BC
:100B2000353C000854696D65723200004F70656E87
:100B30005461736B000000008D2A000853686F77C2
:100B400054696D655461736B0000000055390008ED
:100B500053686F774D656E755461736B00000000CC
:100B60004534000853686F774C6967687454617343
:100B70006B0000003D32000853686F7754656D705C
:100B80005461736B00000000FD37000853686F77F5
:100B9000496E666F725461736B000000FD3200088D
:100BA00053686F7743616C656E5461736B0000002E
:100BB000C531000853686F77776174636854617357
:100BC0006B0000005D36000853686F77436C6F63FD
:100BD0006B5461736B0000007D2B000853657453E8
:100BE000797354696D655461736B0000CD2E0008F4
:100BF00053686F7748656172745461736B000000CD
:100C000099320008F8B50024009490F82420254675
:100C1000012A12D0012280F824204A681F23072AC3
:100C20000DD20668776B521E02EB820293409F43FF
:100C30000B6893401F43776319E00220F8BD0668F4
:100C40000D2A0AD2376BD21F02EB820293409F43D8
:100C50000B6893401F43376309E0F76A0D3A02EBD4
:100C6000820293409F430B6893401F43F7620A68D8
:100C7000072306680A2A0AD3F7680A3A02EB4202F7
:100C800093409F438B6893401F43F76008E03769A8
:100C900002EB420293409F438B6893401F433761AE
:100CA0000A68102A01D0112A20D1124B02689A42F8
:100CB00017D193681B0219D4936843F4000393601F
:100CC0000968102912D10C490C4A0968B1FBF2F1EC
:100CD00001EB8101490000E0491E00910029FBD190
:100CE00004E0816A41F020018162012480F82450EF
:100CF0002046F8BD002401405801002040420F006A
:100D00000068C06C704700002DE9F0414FF000070B
:100D100004003D467ED0A06A002628B9E66284F829
:100D20002460204600F07EF82046FFF751FCA16ABF
:100D3000C90600D420B1A06A40F01000A06269E0AA
:100D4000A16A21F4885141F00201A1626268E1695F
:100D5000237B0A4347EA43010A43A1684FF48077A3
:100D6000B94209D0012907D05FF0000194F814C0FE
:100D7000BCF1010F02D00AE03946F7E7F3B1A36AEC
:100D800043F02003A362E36A43F00103E3622368B4
:100D9000D3F804C02CF4694C4CEA010CC3F804C02D
:100DA00021688B68DFF870C003EA0C0313438B6083
:100DB000A168B9420BD0012909D00CE0DFF85CC072
:100DC000A3690CEB43330B4343F40061DFE7218A53
:100DD0000D05A5F580152168CB6A23F470032B431C
:100DE000CB62216889680E4B1940914208D1E662B6
:100DF000A16A21F0020141F00101A162BDE8F08188
:100E0000A06A20F0020040F01000A062E06A40F00A
:100E10000100E0620120F1E7FDF7E1FF00E0FFFFE4
:100E2000FE0E1FFF00B585B00021009101910291D7
:100E3000039100680E49884218D10E48816941F437
:100E400000718161816901F400710491816941F04F
:100E5000040181618069694600F004000490022069
:100E6000009003200190044800F0CCF805B000BDCC
:100E700000240140001002400008014070B5044603
:100E800090F8240001280DD0012084F82400204689
:100E9000FFF7CAFB02004FF0000005D084F82400E1
:100EA000104670BD022070BDA16A40F20123994333
:100EB00041F48071A1621F4D23681F49AB4218D1D4
:100EC0000E6816F4702F14D0A66A46F48016A66237
:100ED0000E68760505D5A66A26F4005646F48056B7
:100EE000A662A66AF6040AD5E66A26F00606E66257
:100EF00006E0A66A26F48016A6625E68E9E7E0626C
:100F000084F824006FF00200186020688368C3F33F
:100F10004243072B05D1A84208D1096811F4702F6C
:100F200004D0816841F480118160B9E7816841F49F
:100F3000A001F9E700280140042401402DE9F04711
:100F4000294D0024DFF89890264E0127A846102846
:100F50001AD020282ED0402814D1142002F0C0FF2F
:100F60004021484600F03EF900280BD1347002F0D1
:100F700059FF2F7000231A462946D8F8400004F084
:100F8000C9F82C70BDE8F087142002F0A9FF1021E9
:100F9000484600F027F90028F4D1347002F042FFEF
:100FA000AF7000231A461049D8F8400004F0B2F898
:100FB000AC70E7E7142002F093FF2021484600F0D0
:100FC00011F90028DED1347002F02CFF6F7000237D
:100FD0001A460549D8F8400004F09CF86C70D1E737
:100FE000000801400201002008010020044910B55A
:100FF0000A68024202D00860FFF7A0FF10BD00009F
:10100000140401402DE9F84FDFF8B8910024A9F14C
:10101000040B23460F2709F1040AABF1040EC9E0C3
:101020000125A5402A40AA427DD1674ED1F804C0CF
:10103000ACEB0608B44532D014DCBCF1030F3AD057
:1010400009DCBCF1000F2AD0BCF1010F1CD0BCF1AF
:10105000020F31D11DE0BCF1110F17D0BCF1120FFE
:101060002AD119E0B8F5881F19D006DCB8F5803F01
:1010700015D0B8F5801F1FD111E0B8F5001F0ED0B4
:10108000B8F5041F18D10AE0CB6815E0CB681B1D2A
:1010900012E0CB6808330FE0CB680C330CE08B68B0
:1010A0002BB1012B4FF0080303D0456104E004236A
:1010B00002E0056100E00023FF2A01D8064601E0B6
:1010C00000F104064FEA840501D9A5F12005D6F800
:1010D000008007FA05FC28EA0C0803FA05F548EA3F
:1010E0000508C6F800804D68ED0062D5374DAE6941
:1010F00046F00106AE61AD6924F0030605F0010576
:101100000095334D06EB050CDCF80850A607360FAA
:1011100007FA06F825EA0805DFF8B880404503D14C
:101120004FF0000817E044E0DFF8AC80404502D102
:101130004FF001080FE0DFF8A480404502D14FF0E6
:10114000020808E0DFF89880404502D14FF003081C
:1011500001E04FF0040808FA06F848EA0508CCF860
:1011600008804D68D9F80060ED024D4601D5164360
:1011700000E096432E604D68DAF80060AD025546F7
:1011800001D5164300E096432E604D68DBF8006001
:10119000AD035D4601D5164300E096432E604D68D1
:1011A000DEF80060ED03754601D5164300E0964376
:1011B0002E60641C0D682A46E5407FF431AFBDE81F
:1011C000F88F0000080401400000111000100240D8
:1011D0000000014000080140000C014000100140E7
:1011E000001401408068084000D0012070470AB117
:1011F000016170470904FBE70148806870470000FF
:101200004C01002070B5040025D094F83D00002565
:1012100020B984F83C50204600F050F9242084F88E
:101220003D002068016821F001010160206801682B
:1012300041F4004101602068016821F4004101602F
:1012400000F08CFB4D4A6168914201D84C4900E0A6
:101250004C49884201D2012070BD4B492368B0FB44
:10126000F1F15E6826F03F060E435E6063689342CC
:1012700006D94FF4967359434FF47A73B1FBF3F1E7
:101280002368491C1E6A26F03F06314319626168D3
:10129000914210D84900401EB0FBF1F2521CC2F33B
:1012A0000B02042A01D2042022E0B0FBF1F0401C22
:1012B000C0F30B001CE0A268F2B301EBC10303EB27
:1012C0000116431EB3FBF6F35B1C43F480431B057E
:1012D00049D092B301EBC10202EB0111401EB0FBF9
:1012E000F1F0401CC0F30B0040F4804040F400409B
:1012F0002168CA694CF6FF739A431043C861D4E968
:10130000071001432068026822F0C0021143016007
:10131000D4E9030101432068826848F2FF339A430D
:1013200011438160D4E9050108432168CA6822F0AD
:10133000FF021043C86001E00EE016E0206801687B
:1013400041F0010101602564202084F83D002563FF
:1013500084F83E50002070BD01EB4106431EB3FBF4
:10136000F6F35B1CB3E70120C2E701EB4101401E2D
:10137000B0FBF1F0401CC0F30B00B7E7A086010002
:1013800080841E0000093D0040420F002DE9FF4F00
:1013900083B09A46DDE9119793460446DDF8408014
:1013A000FFF72AFF054694F83D0020287FD1192336
:1013B000012240492046009500F044FE002876D1E5
:1013C00094F83C00012872D0012084F83C00206889
:1013D0000168C90703D1016841F00101016020687B
:1013E000016821F400610160212084F83D00402063
:1013F00084F83E0000262664C4F82480A4F82A90CD
:10140000608D20852C48E062CDE9007553465A4630
:101410002046049900F096FD70B930E02A4639461E
:10142000204600F0B5FE58B1206C042804D1206895
:10143000016841F400710160012007B0BDE8F08F40
:10144000606A216800780861606A401C6062218DD2
:10145000491E89B22185628D521E628522685369B8
:10146000DB435B070BD469B100781061606A401CF4
:101470006062208D401E2085608D401E6085208D1D
:101480000028CBD12A463946204600F0AFFD00287F
:10149000CAD154F83D0B016841F40071016020206D
:1014A00004F81E09E67766770020C6E7FFE702200A
:1014B000C3E70000020010000000FFFF10B586B077
:1014C0000021009101910291039100681349884223
:1014D00022D1134CA06940F00800A061A0696946C0
:1014E00000F0080004904FF440700090122001902A
:1014F000032003900B48FFF785FD0B48416841F03E
:10150000E06141F002014160E06940F40010E061F7
:10151000E06900F40010049006B010BD00540040D3
:1015200000100240000C01400000014002488168A8
:1015300002781144816070474C010020074810B5C3
:10154000016841F010010160032000F0A7F80F20AE
:1015500000F006F800F050F8002010BD0020024016
:1015600030B505461F4887B0C16941F00401C1612B
:10157000C06906A900F00400009001A800F0CEF9AF
:101580000498B0B100F0EAF940001749174AB0FBDF
:10159000F1F11748491E0260416040F2E732002134
:1015A000C0E903218160816100F0A0FB040003D049
:1015B00015E000F0D3F9E8E70D4800F0C5FB0400A2
:1015C0000DD11E2000F03CF8102D07D20022294634
:1015D0001E2000F043F80748056000E0012407B032
:1015E000204630BD0010024040420F00000800407D
:1015F00028330020500100200F4808B5816941F0D0
:1016000001018161816901F001010091C16941F02D
:101610008051C161C069002200F0805000900F210C
:10162000901E00F01BF80548416821F0E06141F090
:101630000071416008BD0000001002400000014040
:10164000002809DB00F01F020121914040098000C1
:1016500000F1E020C0F8001170470000F0B40E4B1C
:101660001B680C46C3F30223C3F10705042D00D900
:101670000425191D072901D2002300E0DB1E0126E5
:1016800006FA05F1491E214099409E40761E1640FB
:101690003143F0BC02F0A7BB0CED00E0064900F0BE
:1016A000070208684FF6FF03184040EA0220034A89
:1016B00010430860704700000CED00E00000FA05E0
:1016C0000E4A10B5136823F002031360136823F069
:1016D0000103034313600A4C206840F004002060BB
:1016E000012909D040BF01F041FA01F03FFA20681A
:1016F00020F00400206010BD30BFF8E7007000400B
:1017000010ED00E02DE9F84305460078354CC007A0
:1017100054D0E0690026C00008D4E06940F0805051
:10172000E061E069012600F0805000902E480168D9
:10173000C90512D40168804641F480710160FFF749
:101740005BFD074605E000BFFFF756FDC01B6428A0
:1017500023D8D8F80000C005F6D5206A10F44070F0
:1017600021D0A98801F4407181421CD0206A1F4910
:10177000012220F440700A6000220A602062C00743
:1017800011D0FFF739FD074641F2883808E000BF65
:10179000FFF732FDC11B414502D90320BDE8F883A4
:1017A000206A8007F4D5206A696820F440700843F5
:1017B00020621EB1E06920F08050E0612878800747
:1017C00005D56068A96820F4404008436060287827
:1017D000C00605D56068E96820F4800008436060B1
:1017E0000020DBE70010024000700040400442424D
:1017F0002DE9F0470F46050061D0434E306800F0F8
:101800000700B84209D2306820F007003843306042
:10181000306800F00700B84251D128683B4C81077E
:1018200012D5400703D5606840F4E0606060287816
:10183000000703D5606840F4605060606068A96884
:1018400020F0F000084360602878C00728D068685E
:10185000012810D02168022810D0890700292EDA2B
:10186000616821F0030101436160FFF7C5FC804618
:1018700041F288390DE021688903EFE78901EDE73E
:10188000FFF7BAFCA0EB0801494502D90320BDE8E7
:10189000F0876068696800F00C00B0EB810FEFD151
:1018A000306800F00700B8420BD9306820F007001C
:1018B00038433060306800F00700B84201D00120A2
:1018C000E5E72878400705D56068E96820F4E0601E
:1018D000084360602878000706D56068296920F40D
:1018E000605040EAC100606000F048F86168084A52
:1018F000C1F30311515CC8400649086006480068FE
:10190000FFF72EFE0020C2E7002002400010024038
:10191000438D000858010020500100200F22026072
:101920000C4A536803F003034360536803F0F00369
:101930008360536803F4E063C36052684FF4E0636C
:1019400003EAD20202610448006800F00700086060
:101950007047000000100240002002400448054982
:1019600000684968044AC1F30221515CC8407047CD
:101970005801002000100240538D00080E4A5168A3
:101980000E4801F00C03042B11D0082B0FD10C488A
:10199000C1F38343C903C05C0AD55168084AC1F347
:1019A0004041921E515C054A5043B0FBF1F0704734
:1019B00004494843704700000010024000127A00BA
:1019C000338D000800093D002DE9F84F040070D068
:1019D0002078C04DC00749D06868C0F38100012855
:1019E00007D06868C0F38100022809D16868C00385
:1019F00006D52868800339D560680028E7D035E02F
:101A00006068B0F5803F0BD010B1B0F5A02F11D0B9
:101A1000286820F480302860286820F4802002E0C4
:101A2000286840F480302860606890B1FFF7E4FBDC
:101A300006460AE0286840F480202860F0E700BFEE
:101A4000FFF7DAFB801B642873D828688003F7D57A
:101A50000CE0FFF7D1FB064605E000BFFFF7CCFB2B
:101A6000801B6428F0D828688003F7D420789A4E29
:101A700080074FF001094FF0000839D5686810F071
:101A80000C0F07D06868C0F38100022809D168688C
:101A9000C00306D42868800714D52069012808D11E
:101AA00010E02069B0B1C6F80090FFF7A5FB07462B
:101AB00005E00AE1FFF7A0FBC01B0228C4D8286894
:101AC0008007F7D52868616920F0F80040EAC10076
:101AD00028600DE0C6F80080FFF78EFB074604E0A3
:101AE000FFF78AFBC01B022823D828688007F7D499
:101AF000207800072CD57948A169D9B1C0F80090A9
:101B0000FFF77AFB074604E0FFF776FBC01B0228CD
:101B10000FD8686A8007F7D571484FF4FA5100680A
:101B2000B0FBF1F0009000BF0098411E0091FAD286
:101B30000EE080E0C0F80080FFF75EFB074604E09F
:101B4000FFF75AFBC01B022875D8686A8007F7D4D4
:101B50002078400760D5E8690027C00008D4E8690C
:101B600040F08050E861E869012700F08050009063
:101B70005C480168C90513D40168834641F480714B
:101B80000160FFF739FB824606E000BFFFF734FB38
:101B9000A0EB0A0064284ED8DBF80000C005F5D59C
:101BA000E06801280AD008B1052813D0286A20F07F
:101BB00001002862286A20F0040002E0286A40F050
:101BC00001002862E06841F2883B98B1FFF714FBFE
:101BD00082460BE0286A40F004002862EEE700BF6E
:101BE000FFF70AFBA0EB0A0159455AD8286A80077B
:101BF000F6D50CE0FFF700FB824605E0FFF7FCFAA4
:101C0000A0EB0A0159454CD8286A8007F6D41FB1C9
:101C1000E86920F08050E861E06988B36968C1F341
:101C20008101022944D00228C6F8608004D0FFF761
:101C3000E3FA044638E034E0FFF7DEFA074604E052
:101C4000FFF7DAFAC01B02282BD828688001F7D4E6
:101C5000206AB0F5803F05D16868A16820F40030A3
:101C600008436860D4E908010843696821F47411E5
:101C700008436860C6F86090FFF7BEFA044606E0C5
:101C800025E000BFFFF7B8FA001B022809D8286832
:101C90008001F7D51BE000BFFFF7AEFA001B02285A
:101CA00002D90320BDE8F88F28688001F4D40EE043
:101CB0000128F7D06868226A00F48031914204D18B
:101CC000616A00F47010884201D00120EAE7002028
:101CD000E8E7000000100240000042428004424257
:101CE00058010020007000407047704710B5040094
:101CF00003D094F83D0010B107E0012010BD002092
:101D000084F83C00204600F01EF8022084F83D00D4
:101D1000211D206801F0F4FF012084F8460084F8BA
:101D20003E0084F83F0084F8400084F8410084F8C5
:101D3000420084F8430084F8440084F8450084F8A5
:101D40003D00002010BD704790F83D10012901D0E2
:101D500001207047022180F83D100168CA6842F0F6
:101D60000102CA6000680B49884208D0B0F1804F78
:101D700005D00949884202D00849884204D18168C7
:101D800001F00701062903D0016841F0010101605B
:101D900000207047002C0140000400400008004073
:101DA00070472DE9F04104460068C66805694FF0A8
:101DB0000007A90713D5B10711D5F91E016101204C
:101DC0002077206880698007204602D0FFF7E8FF6F
:101DD00004E000F07EF8204600F07CF827776807E2
:101DE00016D5700714D521686FF004000861022031
:101DF00020772068806910F4407F204602D0FFF7EA
:101E0000CFFF04E000F065F8204600F063F8277784
:101E1000280715D5300713D521686FF00800086131
:101E2000042020772068C0698007204602D0FFF791
:101E3000B7FF04E000F04DF8204600F04BF827779C
:101E4000E80616D5F00614D521686FF01000086179
:101E5000082020772068C06910F4407F204602D017
:101E6000FFF79EFF04E000F034F8204600F032F85F
:101E70002777E80708D0F00706D021686FF0010047
:101E80000861204600F028F8280608D5300606D557
:101E900021686FF0800008612046FFF725FF680683
:101EA00008D5700606D521686FF04000086120460D
:101EB00000F01CF8A8060AD5B00608D521686FF016
:101EC000200008612046BDE8F041FFF70EBFBDE8E5
:101ED000F08170477047000000680349884201D1D3
:101EE000FFF724BB70470000000800407047000067
:101EF00008B5002400F042FA0C2303A203210020BD
:101F0000009400F09FFBF5E7486172644572726FC0
:101F10007200000001684A69D24352050FD46FF481
:101F200080624A61002140F8301F20224273817391
:101F3000026942F00402026101730120704700202F
:101F4000704700002DE9F843044600680D46DDE9BE
:101F5000089701689846164641F4807101604B4627
:101F600000224FF001112046009700F06BF848B1B5
:101F700020680068C00502D54FF40070206403207B
:101F8000BDE8F883216805F0FE0008613B464A463B
:101F90001549204600F09EF888B92068416980699B
:101FA00000903A464946204600F0F2F848B1206CCD
:101FB000042804D12068016841F400710160012007
:101FC000DEE7F5B2B8F1010F09D02168300A0861E7
:101FD0003A464946204600F0DBF80028E7D1206861
:101FE00005610020CCE700000200010070B5164634
:101FF0000D4604461EE02046FFF78CFF08B1012085
:1020000070BD681C16D0FFF7F7F8801BA84200D8F7
:1020100085B920684069C04340070BD5002044F8CB
:10202000300F20216173A073216941F020012161EB
:102030002073E4E720684069C0434007DBD40020F8
:1020400070BD00002DE9F047984617460D4604463E
:10205000C1F30746DDF820902AE000BFB8F1FF3F4A
:1020600026D0FFF7C9F8A0EB0901414502D8B8F125
:10207000000F1DD12068012E16D0806925EA0000CE
:102080000004000C12D00020B84211D1002044F806
:10209000300F20216173A073216941F0200121617B
:1020A00020730120BDE8F0874069E7E70120EBE7F6
:1020B0002068012E0AD0806925EA00000004000C87
:1020C00006D00020B842C9D00020EBE74069F3E712
:1020D0000120F7E72DE9F047984616460D460446DD
:1020E0004FF000094FF0200AC1F3074723E02068B2
:1020F0004069C043400515D42068016841F400716F
:10210000016021686FF480604861C4F8309084F801
:102110003DA084F83E90216C41F00401216484F8D4
:102120003C9021E0701C06D0FFF766F8A0EB080099
:10213000B04203D816B1012F1FD021E02068012F33
:1021400015D0806925EA00000004000C18D000BFFB
:1021500044F8309F84F80DA084F80E90216941F076
:102160002001216184F80C900120BDE8F0874069CE
:1021700025EA00000004000CEAD12068406901E073
:102180002068806925EA00000004000CAFD1ECE76C
:1021900070B516460D4604461EE02046FFF7BAFE0F
:1021A00008B1012070BD681C16D0FFF725F8801B10
:1021B000A84200D885B920684069C04300060BD505
:1021C000002044F8300F20216173A073216941F091
:1021D000200121612073E4E720684069C0430006C4
:1021E000DBD4002070BD00003EB5002111480091F5
:1021F00001910F4A0291026001248160047301750C
:102200004FF460220461C2614160FEF77DFD08B1B8
:10221000FEF7D0FB02200094CDE901406946054855
:10222000FEF7F0FC002801D0FEF7C4FB3EBD000025
:1022300000240140A43200202DE9F04786B000269A
:1022400039480096019602960396816941F0200173
:102250008161816901F020010491816941F00401EB
:102260008161816901F004010491816941F00801F3
:1022700081618069DFF8B4A000F0080004900022BA
:1022800048F210015046FEF7B2FFDFF8A4904FF479
:10229000C068002241464846FEF7A9FF0122D70345
:1022A00039464846FEF7A3FF7020009021480124DC
:1022B000CDE9010469464846FEF7A4FE02250097D1
:1022C0000395CDE9014669465046FEF79BFECDF8E1
:1022D00000800395CDE9014669464846FEF792FE27
:1022E00001AA1120009782E8310069464846FEF7AE
:1022F00089FE10208DE83100694650460395FEF7AF
:1023000081FE002205210A20FFF7A8F90A20FFF725
:1023100097F9002205211720FFF7A0F91720FFF7F2
:102320008FF906B0BDE8F08700100240000C0140B4
:1023300000080140000021100D4810B50B49016054
:102340000C49416000214FF480428160C0E90312D2
:1023500041618161C1610162FEF754FF002803D031
:10236000BDE81040FEF726BB10BD00000054004041
:10237000D4320020A0860100FEE7FEE770B50024FD
:1023800004F1B000C0B200F0CFFA002000F0CCFAA7
:10239000102000F0C9FA0025002000F0D7FA6D1CCB
:1023A000EDB2802DF8D3641CE4B2082CE8D370BDE4
:1023B00010B5B030C0B200F0B7FA002000F0B4FAA7
:1023C000102000F0B1FA0024002000F0BFFA641CD5
:1023D000E4B2802CF8D310BD70B50E46044614E06C
:1023E00004F1B000C0B200F09FFA002000F09CFAA7
:1023F000102000F099FA0025002000F0A7FA6D1CCB
:10240000EDB2802DF8D3641CE4B2B442E8D370BDC1
:102410002DE9F05F9846DDE90A9A174683460024C5
:102420000D4615E02946584600F040F85E460BE0A0
:1024300019F80400BAF1000F01D0C043C0B2641C07
:1024400000F084FA761CF6B2BE42F1D36D1CEDB2F8
:102450004545E7D3BDE8F09F70B5064D0024285DE3
:1024600000F062FA641CE4B2172CF8D3BDE87040A7
:10247000FFF784BF8000002070B5002404F1B00095
:10248000C0B200F051FA002000F04EFA102000F027
:102490004BFA0025FF2000F059FA6D1CEDB2802D9B
:1024A000F8D3641CE4B2082CE8D370BD10B5044620
:1024B000B031C8B200F038FA102040EA141000F031
:1024C00033FA04F00F00BDE8104000F02DBA000010
:1024D0002DE9F0471D461646884681460024089F90
:1024E000FFF7E4FF124800EB851507E0285D0FB108
:1024F000C043C0B200F02AFA641CE4B2B442F5D37F
:1025000008F10100C1B24846FFF7D0FF00240AE0FD
:1025100005EB040090F820000FB1C043C0B200F0FA
:1025200015FA641CE4B2B442F2D3BDE8F0870000AF
:102530009C6100082DE9F047203A0024089E0F46D0
:102540008146D5B27F2803D900208F1C8146FFB277
:10255000102B394612D0FFF7A9FF1B4905EB4500A8
:1025600001EB4005285D0EB1C043C0B200F0EEF9AA
:10257000641CE4B2062CF5D3BDE8F087FFF796FFA4
:10258000DFF8488004EB051118F801000EB1C043D4
:10259000C0B200F0DBF9641CE4B2082CF2D37F1C5B
:1025A000F9B24846FFF782FF0024474604EB0510C6
:1025B0003844007A0EB1C043C0B200F0C7F9641CC1
:1025C000E4B2082CF2D3D7E794590008BC5B0008AA
:1025D0002DE9FF4F81B00026DDE90EA91D46934687
:1025E000804634464FEA5A0727E0281B401EC1B2F6
:1025F0000A2001F0FAFCBBFBF0F00A21B0FBF1F27B
:1026000001FB120026B9691E8C4201DA48B101268D
:102610003030C2B207FB0480C0B25346CDF8009000
:1026200006E007FB0480C0B253463022CDF800908C
:102630000299FFF77FFF641CE4B2AC42D5D305B02A
:10264000BDE8F08F2DE9F8431E461746894604463B
:102650000025DDF8208014E0334649462046CDF8B9
:102660000080FFF767FF0C2E10D00834E4B27A2CFC
:1026700001D90C2E0CD0782C01D9102E08D06D1C4D
:10268000EDB27A5D002AE7D1BDE8F883A41DEDE73D
:1026900009F10100002400F0FF09F0E72DE9FC5FDB
:1026A0004FF0000893460E46824644460C232BA268
:1026B00041464046CDF80080FFF7C4FF4FF00C09BB
:1026C000CDE900944D460423524600212020FFF717
:1026D0007FFFCDE900540223324600213A20FFF764
:1026E00077FFCDE9005402235A4600214820FFF726
:1026F0006FFF0C231BA2012100200094FFF7A2FF13
:102700000124022722463146504601F0A1FB00EB8E
:10271000C0004006050E3146504601F0C3FB064698
:10272000A24616E05C454FF0020322463946284691
:1027300002D0CDE9009801E0CDE9009AFFF748FF0B
:10274000641C1235EDB2E4B27E2D02D300257F1C4D
:10275000FFB2B442E6D9BDE8FC9F00004461746555
:102760003A0000005375204D6F20547520576520A6
:102770005468204672205361200000002DE9FF4F6D
:1027800083B08146DDF840B0129F1C4690464FF062
:10279000000A104612F1FF4F06D35C1C88F000407F
:1027A000E4B24FF0010A8046FDF7FCFD019011985C
:1027B0000025460828E0601B401EC1B20A2001F037
:1027C00014FC0199B1FBF0F10A20B1FBF0F200FB1F
:1027D0001210029929B9611E8D4202DA48B1012115
:1027E00002913030C2B206FB0590C0B20097119B37
:1027F00005E006FB0590119BC0B2009720220499CA
:10280000FFF798FE6D1CEDB2A542D4D306FB0490F1
:10281000C0B200972E22119B0499FFF78BFE5946F8
:102820000A2001F0E2FBFDF7A7FD05460198FDF740
:102830009AFD4146FDF74BFD2946FDF74BFDFDF79F
:10284000B1FD804600251CE0ABEB0500401EC1B287
:102850000A2001F0CAFBB8FBF0F10A20B1FBF0F24C
:1028600000FB12112A1909F1050006FB02003031A4
:10287000CAB2C0B20097119B0499FFF75BFE6D1CB2
:10288000EDB25D45E0D3BAF1000F06D000972D22DE
:102890004846119B0499FFF74DFE07B0BDE8F08F45
:1028A00070B5044615460E462E2000F03DF8204631
:1028B00000F03AF8002000F037F8304600F034F825
:1028C000072000F031F8284600F02EF8002000F034
:1028D0002BF8FF2000F028F8BDE870402F2000F012
:1028E00023B810B504462E2000F01EF8204600F054
:1028F0001BF8012000F018F8072000F015F8072059
:1029000000F012F8072000F00FF8012000F00CF89A
:10291000002000F009F8FF2000F006F8BDE81040A4
:102920002F2000F001B8000001B584B001214FF460
:10293000807204A88DE807000B4600227821024827
:10294000FEF724FD05B000BDD432002001B584B0EF
:1029500001214FF4807204A88DE807000B46402245
:1029600078210248FEF712FD05B000BDD4320020E8
:1029700070B50122104ED40321463046FEF737FCD5
:10298000002221463046FEF732FC4FF4FA75284605
:1029900001F0B4FA012221463046FEF728FC462019
:1029A00001F0ACFA21463046FEF71CFC04462846EE
:1029B00001F0A4FA204670BD000801402DE9F04165
:1029C00000252C465FF0010700F00CF818B107FA5B
:1029D00004F62E43F5B2641CE4B2082CF4D3284666
:1029E000BDE8F08170B501220F4DD4032146284681
:1029F000FEF7FDFB002221462846FEF7F8FB0520E6
:102A000001F07CFA012221462846FEF7F0FB052062
:102A100001F074FA21462846FEF7E4FB0446322012
:102A200001F06CFA204670BD0008014070B500242A
:102A30000546012606FA04F0284000F005F8641C5B
:102A4000E4B2082CF6D370BD70B501220E4E0446D8
:102A5000D50329463046FEF7CAFB002229463046F8
:102A6000FEF7C5FB0A2001F049FA22462946304606
:102A7000FEF7BDFB322001F041FA29463046BDE8A1
:102A800070400122FEF7B3BB000801401CB52B4D7E
:102A9000286802F097F92A48006802F093F929485B
:102AA000006802F08FF92848006802F08BF9274887
:102AB000006802F087F92648006802F083F925488B
:102AC000006802F07FF92448006802F07BF923488F
:102AD000006802F077F92248006802F073F9214F8C
:102AE000DFF8848001264FF0000900BF01F0ECFE02
:102AF0005FF0000407EB4420CDE9000608236022C4
:102B000000212020FFF784FC641CE4B2102CF1D3D8
:102B1000FFF734FC286802F0C9F802F0A7FC02466F
:102B2000CDF8009000230121D8F8000002F00AFF40
:102B300001F0D8FE002001F0DFFFD7E710010020F0
:102B400014010020180100201C0100202001002099
:102B50002401002028010020340100202C01002045
:102B600030010020316900084001002020BF00BF73
:102B70007047FDF7E7BAFDF7C3BA00000EB50022B3
:102B80000421012002F0DCF9DFF888B20025A24E12
:102B9000AA464FF00C092C46CBF800000C239FA24C
:102BA000012100200094FFF74DFD0C239DA202217E
:102BB00000200094FFF746FD0C239CA20321002077
:102BC0000094FFF73FFD0C239AA2042100200094FB
:102BD000FFF738FD0C2399A2052100200094FFF790
:102BE00031FD0C2397A2062100200094FFF72AFD57
:102BF00000210C2395A208460094FFF723FDCDE9A0
:102C00000094C8460223327800214020FFF7E0FC00
:102C100055B13178012000EB4100A8420FD94FF0A7
:102C20000C038DA2009403E04FF00C0390A20094DB
:102C30004FF007014FF00000FFF704FD05E004D15D
:102C40004FF00C038FA20094F2E730784FF00007AA
:102C500030B3C14620E08F48CDE9009400EB8708EF
:102C600007F10107B8F90220F9B24FF002034FF063
:102C70002C00FFF7ADFCF9B20C2387A23C20009496
:102C8000FFF7E0FCCDE90094B8F90420F9B2022383
:102C90004620FFF79DFCFFB230788742DBD30AE085
:102CA0007F1CF9B20C237DA22C200094FFF7CAFCF4
:102CB000FFB2062FF4D3002202A9DBF8000002F0D5
:102CC00061FA9DF8080001281CD09DF80900012830
:102CD00036D09DF80A0001287FF460AF3178002DCE
:102CE00072D000EB4100A8427BD96A4931F8150047
:102CF000401E00B221F81500EA075DD0002860DA16
:102D000017205CE05DB1634931F81500401C00B24A
:102D100021F81500EA070CD018280CD00DE0307807
:102D20004FF0010A401CC0B23070072805D1347042
:102D300003E03C2801D121F815408DF808402DE72B
:102D4000BAF1010F19D030786D1C0121EDB201EB01
:102D50004001A94227D10720FFF72AFB0C2352A2EA
:102D6000072100200094FFF76DFC4FF4FA7001F08A
:102D7000ABFE0720FFF71CFB1BE00720FFF718FB4B
:102D80000C234DA2072100200094FFF75BFC4FF4B9
:102D9000FA7001F099FE0720FFF70AFB6D1C4FF057
:102DA000000AEDB205E0022101EB4000A84200D18B
:102DB00001258DF80940F1E6002827DA3B2021F8AB
:102DC000150023E000E00CE059B14FF0010A0C239C
:102DD00032A22C200094FFF735FC3078401E307072
:102DE00014E0C9B2012000EB4100A8420ED1FFF768
:102DF000C5FA284831784FF0000A0180324855461C
:102E0000006801F053FF002001F0DCFF8DF80A405C
:102E1000C4E600004801002007010020436C6F63F6
:102E20006B313A00436C6F636B323A00436C6F63F3
:102E30006B333A00436C6F636B343A00436C6F63DF
:102E40006B353A00436C6F636B363A00436C6F63CB
:102E50006B204E756D3A0000436C6F636B2076619A
:102E60006C7565206E6F6E65206F6B210000000031
:102E7000436C6F636B204E756D204E6F6E65206FD7
:102E80006B210000596F752063616E206C6561765F
:102E9000652100008C3200203A0000002020202014
:102EA0002020202020000000436C6F636B205661BF
:102EB0006C7565204F4B0000436C6F636B204E7543
:102EC0006D204F4B0000000014010020A84886B080
:102ED0000024077981790291C179039190F80080EB
:102EE00090F8019090F802B0DFF888A20C262546F1
:102EF0000C23A1A2002104200095FFF7A3FB0C23C3
:102F0000A3A2012100200095FFF79CFB0C23A2A2A5
:102F1000022100200095FFF795FB0C23A0A20321BE
:102F200000200095FFF78EFB0C239FA204210020B8
:102F30000095FFF787FB0C239DA20521002000953B
:102F4000FFF780FB0C239CA2062100200095FFF7D1
:102F500079FB012C62D00020CDE9006002234246BB
:102F600001212020FFF734FB022C59D00020CDE9AD
:102F7000006002234A4619461A20FFF729FB032C5A
:102F800050D00020CDE9006002235A4603211A20C8
:102F9000FFF71EFB042C47D0002007F5FA620592CC
:102FA000CDE90060042319462020FFF711FB052C12
:102FB0003CD00020CDE90060022305212620029AA2
:102FC000FFF706FB062C33D00020CDE9006002237A
:102FD00006212020039AFFF7FBFA002204A9DAF861
:102FE000000002F0CFF89DF81000012822D09DF8D3
:102FF0001100012867D09DF8120001287FF478AFF6
:103000007CB3012C7FD0022C78D0032C77D0042CF9
:1030100076D0052C75D0062C74D0A6E001209BE755
:103020000120A4E70120ADE70120B6E70120C1E7B8
:103030000120CAE7012C0AD0022C13D0032C1BD08C
:10304000042C23D0052C24D0062C2BD038E008F1FA
:10305000010000F0FF08B8F1180F31D14FF000085F
:103060002EE038E009F1010000F0FF09B9F13C0F52
:1030700026D14FF0000923E00BF1010000F0FF0B17
:10308000BBF13C0F1CD14FF0000B19E07F1CFFB2CD
:1030900016E00298401CC0B202900D2810D1012009
:1030A00002900DE003980299401CC0B2039005986D
:1030B00000F0F8FE0399401C884201D101200390E2
:1030C0008DF8105014E7641CE4B2072C00D10024E2
:1030D0008DF811500CE7CDE9009BDDE90212434663
:1030E0003846FDF787FBFFF749F93548006801F0DE
:1030F000DDFD002001F066FE37E004E00DE016E0A3
:103100001FE021E029E0A8F1010000F0FF08B8F17C
:10311000FF0F2AD14FF0170827E0A9F1010000F0B6
:10312000FF09B9F1FF0F20D14FF03B091DE00BF172
:10313000010000F0FF0BBBF1FF0F16D14FF03B0B6E
:1031400013E07F1EFFB210E00298401E10F0FF0057
:1031500002900AD10C20029007E00398401E10F064
:10316000FF00039001D1012003908DF81250BFE6BB
:10317000FA0000204801002053657420546865203F
:1031800053797379656D2054696D652100000000E5
:10319000486F75723A0000004D696E3A00000000F9
:1031A0005365633A00000000596561723A000000FF
:1031B0004D6F6E74683A0000446174653A00000017
:1031C0001401002008B5194CDFF86480194D1A4F1E
:1031D00000260021206802F04DF801280FD1B8F830
:1031E000040098F8072000F5FA6098F8061080B2FD
:1031F000FFF754FA002211462620FFF751FB002268
:103200006946286801F0BEFF9DF802000128E0D160
:103210002E20FFF789FBFFF7B1F8386801F046FD73
:10322000002001F0CFFD8DF80260D2E738010020C8
:10323000FA000020480100201401002008B54FF0DA
:10324000FF340025124E134F01E0012C12D0FFF77E
:1032500095F800226946306801F094FF9DF802005D
:1032600001280AD09DF801000128EED164428DF8B2
:103270000150EAE7FFF700F9EBE7FFF77FF838685E
:1032800001F014FD002001F09DFD8DF80250DCE7F7
:1032900048010020140100201CB5124D124E0024DC
:1032A00000210C2311A208460094FFF7CBF900225D
:1032B00001A9286801F066FF9DF80600012806D0E4
:1032C0009DF805000128EBD18DF80540E8E7FFF7F0
:1032D00055F8306801F0EAFC002001F073FD8DF82C
:1032E0000640DDE748010020140100206465766592
:1032F0006C6F70696E672E2E2E0000001CB5DFF813
:1033000034814D4F4D4E4FF0FF3500240021306881
:1033100001F0B0FF01282CD1681C009445D0002199
:103320000C230846D8F81C20FFF78CF900940C23D6
:1033300001210020D8F82020FFF784F900940C2305
:1033400002210020D8F82420FFF77CF900940C23F8
:1033500003210020D8F82820FFF774F900940C23EB
:10336000D8F82C2004210020FFF76CF92920FFF762
:10337000B8FA002201A9386801F004FF9DF80600A0
:10338000012847D09DF805000128BFD12E20FFF766
:10339000CBFAFEF7F3FF00238DF805406D421A4685
:1033A0001946306801F03AFEB0E700210C230846C8
:1033B000D8F80020FFF746F900940C2301210020E3
:1033C000D8F80420FFF73EF900940C2302210020D6
:1033D000D8F80820FFF736F900940C2303210020C9
:1033E000D8F80C20FFF72EF900940C2304210020BC
:1033F000D8F81020FFF726F900940C2305210020AF
:10340000D8F81420FFF71EF900940C230621D8F8F1
:103410001820A8E72E20FFF787FAFEF7AFFF08482D
:10342000006801F043FC002001F0CCFC8DF8064060
:103430006CE70000C800002048010020380100208F
:10344000140100200EB500245C4E5D4FDFF874813E
:10345000254600210923102208460095FFF738F879
:103460000A231022002112200095FFF731F806EB05
:10347000C410CDE900050623502202213020FEF7BA
:10348000C7FF74B1012C12D0022C14D0032C18D019
:10349000042C1AD0052C1CD0062C20D0072C24D0AC
:1034A0002AE00C23072148A21F20009522E00C23CC
:1034B00048A2009516E00C23072149A2222000957E
:1034C00018E00C2349A2009506E00C234AA20095BF
:1034D0000EE00C234DA20095072125200AE00C23C5
:1034E0004DA200950721282004E00C234DA2009551
:1034F00007210A20FFF7A6F8002202A9386801F088
:1035000041FE9DF80900012813D09DF80A0001280A
:1035100047D09DF8080001289BD108210220FEF722
:103520005BFF641CE4B28DF80850082C91D1002494
:103530008FE7FEF723FF74B1012C0ED0022C15D0BB
:10354000032C15D0042C15D0052C1CD0062C1CD017
:10355000072C1CD01FE038481AE000231A461946F1
:10356000D8F8000001F05AFD344811E034480FE06B
:1035700034480DE000231A461946D8F8000001F03F
:103580004DFD314804E0314802E0314800E0314867
:10359000006801F08BFB002001F014FC8DF809504D
:1035A00057E7FEF7EBFE2C48006801F07FFB002098
:1035B00001F008FC8DF80A504BE700003189000843
:1035C000480100203801002054656D7065726174F7
:1035D0007572650063616C656E6461720000000065
:1035E000466C6173684C69676874000053746F704F
:1035F00057617463680000004465766963655F49DC
:103600006E666F726D6174696F6E00005365745FF2
:10361000436C6F636B0000005365745F54696D65A4
:10362000000000004D656173757265206865617208
:1036300074207261746500001C01002024010020C8
:103640001801002028010020200100202C0100206A
:103650003001002034010020100100200EB5604E22
:103660000A27DFF880B1604D4FF0FF394FF00C0AA8
:10367000002406F5207800210C235CA20846009463
:10368000FEF7E0FFCDE900A40223EA78002128201C
:10369000FEF79EFFA8780623B0FBF7F006EB80103C
:1036A000CDE90004102202210020FEF7B1FEA87827
:1036B0000623B0FBF7F107FB110006EB8010CDE904
:1036C00000041F2202210F20FEF7A2FECDE9008494
:1036D00006232D2202211D20FEF79AFE687806237C
:1036E000B0FBF7F006EB8010CDE900043F22022189
:1036F0002F20FEF78DFE68780623B0FBF7F107FB5D
:10370000110006EB8010CDE900044E2202213E207C
:10371000FEF77EFECDE9008406235C2202214C20C8
:10372000FEF776FE28780623B0FBF7F006EB801054
:10373000CDE900046E2202215E20FEF769FE2878A2
:103740000623B0FBF7F107FB110006EB8010CDE973
:1037500000047D2202216D20FEF75AFE002202A9FC
:10376000DBF8000001F00EFD9DF80800012814D0E0
:103770009DF80900012816D09DF80A0001287FF461
:103780007AAFFEF7FBFD1B48006801F08FFA0020BE
:1037900001F018FB8DF80A406DE72C706C70AC706E
:1037A0008DF8084067E7B9F1FF3F0DD012480023BC
:1037B00000941A460321006802F0C4F84FF0FF306D
:1037C00081468DF8094056E701F050FE02460A484E
:1037D000009400230121006802F0B4F80120EFE713
:1037E000716600084801002003010020636F756EB8
:1037F000743A000014010020440100201FB5DFF8D6
:1038000000A1404E0C274FF00208DFF8FC90002486
:1038100001F02CFBFDF798F8FDF7A5F85146FCF7F1
:1038200053FD054601F0BEFFB5424FF00C03009476
:103830000FDB002135A20846FEF704FF0C2336A259
:10384000012100200094FEF7FDFE0C2337A2009416
:103850000EE0002138A20846FEF7F4FE0C232EA24B
:10386000012100200094FEF7EDFE0C2335A2009408
:1038700002210020FEF7E6FE0B230C22032100208C
:103880000094FEF725FE0C231A46032118460094E7
:10389000FEF71EFE0D230C22032118200094FEF7D4
:1038A00017FE0E230C22032124200094FEF710FEA5
:1038B000CDF80080CDE9017402232A4605210020BD
:1038C000FEF75CFF0C2321A205211E200094FEF7C9
:1038D000B9FE002203A9D9F8000001F053FC9DF8BD
:1038E0000E00012894D1FEF749FD1948006801F047
:1038F000DDF9002001F066FA8DF80E4088E700003F
:10390000000040400000D041480100205761726E25
:10391000696E6721000000005468652054656D7071
:10392000657261747572652069730000746F6F2031
:10393000686967680000000057656C636F6D6521FA
:10394000000000006E6F726D616C00002743000084
:10395000140100200EB5012001F0E0FA8346DFF8E3
:1039600098A2DFF898920024FCF7FCFE4FF0FF319C
:10397000584601F07FFC01287ED10C23A0A2002133
:1039800025200094FEF75EFE9F48FDF777FA9E48DB
:10399000FDF7B6F9C0F3073255468AF80020642ACD
:1039A0006BD00C20CDE90004022300215A20FEF741
:1039B0000FFE28780123C0EBC00101EB00109349F2
:1039C00080220844CDE9000400217320FEF720FD89
:1039D0008F48CDE900040021012310220846FEF79C
:1039E00017FD8C48CDE9000401231A220021142080
:1039F000FEF70EFD804D0A26AD1C874F2878062362
:103A0000B0FBF6F007EB8010CDE900041022022194
:103A10000020FEF7FDFC28780623B0FBF6F106FB3C
:103A2000110007EB8010CDE900041F2202210F20B6
:103A3000FEF7EEFC07F52078CDE9008406232D2261
:103A400002211D20FEF7E4FC68780623B0FBF6F0A7
:103A500007EB8010CDE900043F2202212F20FEF762
:103A6000D7FC68780623B0FBF6F106FB11004E2266
:103A700007EB8010022101E07BE0A3E0CDE9000428
:103A80003E20FEF7C5FCCDE9008406235C2202211E
:103A90004C20FEF7BDFCA8780623B0FBF6F007EB40
:103AA0008010CDE900046E2202215E20FEF7B0FCFA
:103AB000A8780623B0FBF6F106FB110007EB801097
:103AC000CDE900047D2202216D20FEF7A1FC102724
:103AD000CDE90074AA8804230621002002F5FA62C9
:103AE000FEF776FD00231022062121200094FEF728
:103AF000EFFCA879CDE90074B0FBF6F201230621B2
:103B00003220FEF765FDA879CDE90074B0FBF6F12F
:103B100006FB1102012306213A20FEF759FD01237D
:103B20001022062143200094FEF7D2FCE879CDE96B
:103B30000074B0FBF6F2012306215420FEF748FD85
:103B4000E879CDE90074B0FBF6F106FB1102012320
:103B500006215C20FEF73CFD022310220621652091
:103B60000094FEF7B5FC00231A461946584601F0AA
:103B700055FA002202A9D9F8000001F003FB9DF8D4
:103B80000800012826D09DF80900012827D09DF8BB
:103B90000A0001287FF4E8AEFEF7F0FB00211023B5
:103BA0001EA208460094FEF74DFD4FF47A7000F017
:103BB0008BFFFEF7E3FB01210020FDF781FD8DF86F
:103BC0000A40D1E60C2318A200215A200094FEF7E7
:103BD00039FDEEE6FCF7F0FE8DF80840C4E6FEF78E
:103BE000CDFB1348006801F061F8002001F0EAF80D
:103BF0008DF80940B8E60000F800002048010020D8
:103C00004176656E67657200A43200205C6500082D
:103C100059660008696600087166000842796520E7
:103C2000427965210000000046756C6C00000000C0
:103C3000140100200E480178491CCAB2002102700C
:103C4000642A03D101704278521C427042783C2AA7
:103C500003D141708278521C82708278642A05D127
:103C6000017041708170C178491CC17070470000BB
:103C70000301002001F03CB930B593B0282168461B
:103C8000FCF7C5FA14210AA8FCF7C1FA00250120A7
:103C90000F9510951195010412958DE8230004905D
:103CA0004FF4E010CDE90810022407946846FDF7B0
:103CB0008BFE08B172B6FEE70AA90F2081E8310039
:103CC0004FF48060CDE90D0502210AA8FDF790FDB3
:103CD00008B172B6FEE74FF4004011900F940FA8A0
:103CE000FDF710FD002801D072B6FEE713B030BD1D
:103CF000704700000148FEF754B800002833002048
:103D0000F0B50268194B1A4C1A4D4FF08047984293
:103D100005D0B84203D0A04201D0A84203D122F07E
:103D200070064A683243984205D0B84203D0A04298
:103D300001D0A84203D122F44074CA6822434C69DE
:103D400022F08002224302608A68C2620A688262AC
:103D5000984201D109690163012141610169C907E3
:103D600003D0016921F001010161F0BD002C014087
:103D70000004004000080040F0B5194ADFF85CE09C
:103D80000121B2F900500EF1020301EB45065D7806
:103D90009EF801400A201B781BE000BFB3FBF0FC3B
:103DA000B3FBF0F700FB1C3C674432F911C06745D8
:103DB0000DD1B5FBF0FCB5FBF0F700FB1C5C6744D4
:103DC00002EB410CBCF902C0674500D10124891CFB
:103DD000C9B28E42E2DC8EF80140F0BDF80000204E
:103DE0008C320020FEE70907090E002804DB00F1F1
:103DF000E02080F80014704700F00F0000F1E02090
:103E000080F8141D704702E008C8121F08C1002A7C
:103E1000FAD170477047002001E001C1121F002A4B
:103E2000FBD1704710B5094C012210212046FDF747
:103E3000DEF9642000F054F8002210212046FDF73E
:103E4000D6F9BDE81040642000F04AB8000C0140EB
:103E500010B5032903D20C31401EC9B280B24B1CED
:103E600002EB410103EB43030524B3FBF4F36422AB
:103E7000B0FBF2F21944014401EB9001891A4FF4AE
:103E8000C872B0FBF2F00844072190FBF1F201FB8D
:103E90001200C0B2062802D0401CC0B210BD0020E3
:103EA00010BD0000022905D00C4800EB810010F87D
:103EB000040C7047810705D16421B0FBF1F201FBCE
:103EC000120141B94FF4C871B0FBF1F201FB1200CD
:103ED00008B11C2070471D2070470000980000208A
:103EE00070B5054600244FF47A7603E0304600F0C2
:103EF00005F8641CAC42F9D370BD000030B50C4A23
:103F000000211368DC6A4FF47A726043B0FBF2F56B
:103F10005A6A586A9042FCD002D9A0EB020202E031
:103F2000A4EB0202024411440246A942F1D330BD7F
:103F30002833002070B586B00025144900950195FE
:103F4000029503958A6942F004028A618969104EDC
:103F500001F004014FF400740491012812D00028EC
:103F60000ED1002221463046FDF741F90120CDE96E
:103F700000400220CDE9025069463046FDF742F884
:103F800006B070BD69460094F7E7000000100240DB
:103F9000000801400A490120096809B10020704762
:103FA0000849CA69002AF9D18A69002AF6D1044A67
:103FB000283212688968491E8A42F0D1022070476F
:103FC000283200202C000020FDF7B8FAFFF754FE3D
:103FD000FEF732F9FEF7B0F9FEF706F9FEF73CFA04
:103FE000FEF7CCF9FCF7F4FCFEE70246012000E006
:103FF0005043491EC9B2FBD2704700002DE9F04181
:104000001E4C0F460546E6682068001D00F010FCB7
:1040100038B9206890F82C1001208840216981432C
:104020002161681C15D1A7B11549226848689060C4
:1040300023688268DA6022688368121D5A602268E9
:10404000121D8260206841610868401C0860BDE85C
:10405000F08120683544B5424560216805D2E06BA7
:10406000BDE8F041091D00F00BBCA06B091D00F07C
:1040700007FCA06A8542EAD2A562E8E72C0000208E
:10408000503200202DE9F041054600F01DFC364C71
:10409000A068401CA0602068344F10B1606940B334
:1040A0002DE02560A068012829D1002606EB8600B6
:1040B00007EB800000F0D6FB761C052EF6D32B48CC
:1040C000643000F0CFFB2948783000F0CBFB274864
:1040D0008C3000F0C7FB2548A03000F0C3FB23481C
:1040E000B43000F0BFFB21486430A0631430E063BB
:1040F00005E02068E96AC06A884200D82560606AE5
:104100000121401C6062E86A2269814011432161FB
:1041100000EB800007EB80004068A8608168E960E0
:104120008268291D51608160E86A00EB800007EB1E
:104130008001696157F82010491C47F8201000F0F1
:10414000D1FB606900280CD02068E96AC06A884207
:1041500007D207494FF080500860BFF34F8FBFF37D
:104160006F8FBDE8F08100002C0000209C31002002
:1041700004ED00E010B500F0A7FB0E4C2068A0B9DC
:104180000D4800F06FFB0C48143000F06BFB0A4840
:10419000E06014302061002210210A2000F0D0FEDF
:1041A000206010B105A100F04FFCBDE8104000F008
:1041B00099BB00006C00002064320020546D7251E5
:1041C0000000000030B4026C0B46002A0BD0C1681E
:1041D0001144C1608468A14201D30168C16030BC50
:1041E0001846FBF7FBBF30BC70472DE9F041856BEB
:1041F000174604460026026C82B1C7B1E068FBF79F
:10420000EDFFE168206C091AE1602268914202D258
:10421000A168081AE060022F16D017E02068A8B93C
:10422000A06801F0BBF906460020A0600EE06068BF
:10423000FBF7D4FF216C606808446060A168884285
:1042400004D32068606001E005B16D1E6D1CA5639C
:104250003046BDE8F08110B50446006B00F04CFB21
:104260002046BDE8104000F047BB00000A4800218E
:104270000269012A00D901210268D26A0AB100202C
:104280007047064A1268012AF9D80029F7D1816AD5
:10429000C068081A704700002C0000209C310020E4
:1042A0000E484FF44051420706D0C01D0B4920F084
:1042B0000700411AC1F54051094A00230144C2E9EF
:1042C00000030839143A21F0070111604B600B60BC
:1042D0000B1AC0E900139360536070475C01002023
:1042E000140000201A4C1B4E12E000BF00F0ECFA44
:1042F000F068C568281D00F09BFAA068401EA06009
:104300006068401E606000F0EDFA2846FFF7A3FFEA
:1043100060680028EAD10F48A0380068012807D952
:104320000D494FF080500860BFF34F8FBFF36F8F80
:10433000FFF79CFF0228D6D300F098FDFFF796FF09
:10434000022801D300F014FB01F02CFACBE70000A7
:104350002C0000203C32002004ED00E02DE9F04765
:104360000E46DDE909841746824691009946089D6C
:10437000A522206BFBF744FF6FF00301206B01EBDC
:104380008701084420F0070766B100202218315C3D
:1043900082F83410315C11B1401C1028F6D3002093
:1043A00084F84300052D00D30425E562201D6564D3
:1043B00000F063FA04F1180000F05FFA2461C5F11F
:1043C00005006462A0614A465146384600F01EFA74
:1043D0002060B8F1000F01D0C8F80040BDE8F087B8
:1043E00030B5114900E011460A688242FBD34B68A0
:1043F0005C18844203D1406818444860084643680A
:104400001C18944209D1084C143C2468A24209D0DB
:1044100052681A4442600A6812680260814200D001
:10442000086030BD0460F9E71400002070B5002476
:1044300041600B4D0061914206D8D11A82699142C8
:1044400006D2011D286907E09A4203D2994201D39E
:10445000012403E0011DE86800F012FA204670BD57
:104460006C00002010B5044600F02EFAA06B28B1B5
:104470005FF0000400F036FA204610BD0124F9E791
:1044800070B506460D480D46C068C068C468201D5A
:1044900000F0CEF994F82400410705D52A463146AC
:1044A000204600F0B5F803E000F0FE0084F8240098
:1044B0002046216ABDE87040084700006C000020DB
:1044C00070B586B0364E61E00098002806DADDE966
:1044D0000201019A90470098002857DB029C60690E
:1044E00010B1201D00F0A4F904A800F0B3F80546AF
:1044F00000980A284AD2DFE800F0490505282E3D39
:104500000505282E94F824002A4640F0010084F87E
:1045100024000198A169034601442046FFF786FF65
:1045200038B394F82400410707D50198A1692A46B9
:104530000144204600F06CF803E000F0FE0084F82F
:104540002400216A2046884720E014F8240F00F058
:10455000FE0020701AE094F824002B4640F0010081
:1045600084F824000198A06141191A462046FFF7FB
:104570005DFF0BE094F82400810703D4204600F08F
:10458000BBF903E000F0FE0084F824000022694635
:10459000306800F0F7FD002896D106B070BD00002D
:1045A0006C000020F8B50D46064600F05FFC68463A
:1045B00000F050F80446009810B101F0F3F8F8BD8F
:1045C0001148ADB101690968D9B10025311B2A46EE
:1045D000006800F057FA01F0E5F80028EFD10B4928
:1045E0004FF080500860BFF34F8FBFF36F8FF8BD5F
:1045F000A642EBD801F0D6F821463046FFF740FF3F
:10460000F8BD0125E2E700006C00002004ED00E0A9
:1046100070B516460C46054604E0A869296A0444AC
:1046200028468847A8692346011932462846FFF7DD
:10463000FDFE0028F1D170BD0548816B096821B1EC
:10464000816BC9680968816270474FF0FF31FAE7F2
:104650002C0000202DE9F041064600F007FF0E4C2B
:104660000546A068854214D24FF0FF3704E0C068C9
:1046700039460068FFF704FFE06801680029F6D1B9
:104680002169C4E90310012030602846A560BDE817
:10469000F0810020F8E700006C000020502080F33B
:1046A0001188BFF34F8FBFF36F8FFEE7064B426950
:1046B00000219A4206D1806AA3F12802904201D0DB
:1046C00000B901210846704750320020074CE068CD
:1046D000016841B1C0680021D0F80000FFF762FF17
:1046E000FFF7EEFEF3E701210020F7E76C00002062
:1046F0002DE9F041044600F0E7F894F9455004F143
:10470000240609E0606A48B1304600F0E5FF08B1D0
:1047100000F048FA6D1E6DB2002DF3DC4FF0FF364D
:1047200084F8456000F0DEF800F0CEF894F94450CB
:1047300004F1100709E0206948B1384600F0CCFFC9
:1047400008B100F02FFA6D1E6DB2002DF3DC84F875
:104750004460BDE8F04100F0C5B8000070B5044603
:10476000002600F083FB224D286808B9FFF798FD6A
:10477000CCB304F00700C0F11000C1438C4232D822
:10478000211800292FDD686881422CD81848143080
:104790000246146801E02046144662688A4202D24A
:1047A0002268002AF7D12A6894421CD00668226841
:1047B000026060680836421A102A04D96018426004
:1047C0006160FFF70DFE61686868401A6860AA685A
:1047D000904200D2A86041F000406060002020605C
:1047E000E868401CE86000F0DDFF304670BD000066
:1047F000000000200449086818B10868826C521C47
:1048000082640868704700002C00002010B5031F68
:104810004FF080741C601B1F21F001011960191FEB
:10482000024B0B60143940380A6010BD9D460008E9
:10483000D0E9013201699A60D0E901235A604A68DF
:10484000824201D182684A60002202610868401EEB
:1048500008600868704700000148806870470000E1
:104860002C00002000F108014FF0FF32C0E90112D6
:10487000C160016100210160704700210161704742
:1048800030B50B685A1C02D000F1080202E0026940
:1048900004E02246546825689D42FAD953684B606B
:1048A00099608A60516008610168491C016030BDEF
:1048B00042684A6093688B609368596091600861B0
:1048C0000168491C01607047502080F31188BFF3D4
:1048D0004F8FBFF36F8F02480168491C016070471A
:1048E0001C00002003490868401E086001D180F3C5
:1048F000118870471C00002070B500281BD0A0F163
:1049000008046068002816DA2168002913D120F015
:104910000040606000F0AAFA074D606869680844CA
:1049200068602046FFF75CFD2869401C2861BDE8EF
:10493000704000F037BF70BD000000200B480A49EE
:104940006FF07F424160B2FBF1F181605E21C16096
:104950004FF0E0200021016181610349491E41615E
:104960000721016170470000401901001C00002070
:104970002DE9F041324D0446A868844200D904462E
:1049800072B6BFF34F8FBFF36F8FFFF703FB30B1EA
:104990004FF0E02106220A61886918B103E062B68F
:1049A000BDE8F08168686B68661E03FB0600254E53
:1049B00037687F0103D54FF000773760C01AEB6886
:1049C000984200D9C01A486100238B610E6946F0F5
:1049D00001060E6124B1BFF34F8F30BFBFF36F8F5D
:1049E00062B6BFF34F8FBFF36F8F72B6BFF34F8FB7
:1049F000BFF36F8F0A610A69D2030DD58A69EE6829
:104A0000801A6A68101A401EB04201D9904200D93B
:104A1000501E4861601E09E088696A685443241A80
:104A2000B4FBF2F0461C5643321B4A618B610722ED
:104A30000A616A68521E4A6100F0AEF9AFE70000F1
:104A40001C00002004ED00E070B50022002915D004
:104A50000B4C002304EBC3056E68864202D104EBC5
:104A6000C30207E01AB954F8336006B92A465B1C42
:104A7000082BEFD3002A01D0C2E9001070BD00005E
:104A80005C31002070B515460E460446FFF71CFF4A
:104A900094F944100020491C01D184F8440094F991
:104AA0004510491C01D184F84500FFF71BFFA06B9E
:104AB00028B92A46314604F1240000F089F820463E
:104AC000BDE87040FFF714BE10B5020009D000F039
:104AD000CDF900211046FFF791FA00F063FE00289F
:104AE00007D104494FF080500860BFF34F8FBFF3E8
:104AF0006F8F10BD04ED00E070B50546FFF7E4FED2
:104B0000214C05B92568281DFFF792FE58B9E86ABF
:104B10001E4A00EB800152F8211021B90121814089
:104B2000206988432061A86A18B105F11800FFF7D1
:104B30007FFE606A401C60622068854208D113488D
:104B4000291DA030FFF7B4FE6068401C606004E0DF
:104B5000A068401EA060FFF76FFDFFF7C3FE20684E
:104B6000854202D02846FFF776FB606900280AD00C
:104B70002068854207D106494FF080500860BFF396
:104B80004F8FBFF36F8F70BD2C0000209C31002031
:104B900004ED00E002490A6A0260C968416070479A
:104BA0002C00002001490120C86170472C00002022
:104BB00010B50C46054909681831FFF761FE20461B
:104BC000BDE810400121FFF719BA00002C000020B9
:104BD000F0B40C460D4943680D68EB619D680E68A2
:104BE00035620D689E68183575600D6818359D60D2
:104BF000096888620168491C01600AB14FF0FF34FE
:104C00002046F0BC1146FFF7F9B900002C00002047
:104C100070B5040044D0606C884200D30146E06A5D
:104C200088423DD0A26C012A3AD1E162A269002AF1
:104C300002DBC1F10501A1611A4D00EB8000616941
:104C400005EB800081422BD1201DFFF7F1FD1649B5
:104C5000012230B994F82C000B6902FA00F083436A
:104C60000B61E06A0B6982401A430A6100EB800025
:104C700005EB80004068A0608168E1608268211DCA
:104C800051608160E06A00EB800005EB80006061AC
:104C9000E06A00EB800055F82010491C45F8201010
:104CA00070BD00009C3100202C00002070B5214D0B
:104CB0000446286884423CD0002C3AD0FFF704FE1A
:104CC0002046FFF7F3FC80B3201DFFF7B1FDE06A3B
:104CD00001212A69814011432961174900EB8000B5
:104CE00001EB80004068A0608268E2608368221D5A
:104CF0005A608260E06A00EB800001EB8000606136
:104D0000E06A00EB800051F82020521C41F820207E
:104D1000E06A2968C96A884207D308494FF0805081
:104D20000860BFF34F8FBFF36F8FBDE87040FFF790
:104D3000D9BD70BD2C0000209C31002004ED00E0A6
:104D40007CB511480025CDE900502B4680220FA1EB
:104D5000104800F04FFB0C4C2C3C012812D100F005
:104D6000D3FD01280ED1502080F31188BFF34F8F5F
:104D7000BFF36F8F4FF0FF30A06201206061E560EC
:104D800000F09EF8206B7CBD5800002049444C4543
:104D900000000000E542000870B5094C0546E068D7
:104DA000A16A2844884207D1FFF78EFDA069401C04
:104DB000A061FFF797FD6D1EE0682844E06070BDBC
:104DC0002C00002070B50446FFF77EFD244D04B989
:104DD0002C68201DFFF72CFD58B9E06A214A00EB32
:104DE000800152F8211021B90121814028698843AE
:104DF0002861A06A18B104F11800FFF719FD1948DD
:104E0000211DB430FFF754FD94F85000002601280E
:104E100001D184F85060FFF765FD686928B1FFF79C
:104E200053FDFFF709FCFFF75DFD2868844209D1B7
:104E3000686940B10C494FF080500860BFF34F8F54
:104E4000BFF36F8F70BD0748B4300068A96888420F
:104E500001D12E6070BDBDE8704000F00FB80000B9
:104E60002C0000209C31002004ED00E00248416B42
:104E7000491C4163704700002C0000200E48416B24
:104E800011B10121C16170470021C16101690B4A63
:104E9000B1FA81F1C1F11F0101EB810102EB810146
:104EA00001F108034A6852684A609A4201D1526887
:104EB0004A60D168016070472C0000209C310020BE
:104EC000094810B5016841F470010160016841F0C2
:104ED00070410160FFF732FD044900200860FBF7D4
:104EE00021F9002010BD000020ED00E01C00002092
:104EF00010B5502080F31188BFF34F8FBFF36F8F31
:104F000000F0BAFA18B104494FF080500860002050
:104F100080F3118810BD000004ED00E010B50246DA
:104F20000021012000F00CF8041E07D00021816050
:104F300001600B460A46C16000F070F8204610BDC3
:104F400070B50E4605004FF0000418D0601EB0FB8F
:104F5000F5F0B04213D305FB06F010F1490F0ED85F
:104F60004830FFF7FBFB040009D004F1480120465C
:104F70003EB10160C0E90F56012100F005F820465E
:104F800070BD0060F6E700002DE9F0410F46040017
:104F90004FF001063CD0E06BC8B3B51EB5FBF0F195
:104FA000206C814234D3FFF78FFCD4E90F202168B5
:104FB00002FB0011A1600021A163216861600A4623
:104FC000D4E90F01401E00FB01212046E16000F8FA
:104FD000445F457004F110004FB1FFF743FC04F14A
:104FE0002400FFF73FFC00BFFFF77CFC11E02169C4
:104FF0000029F9D000F070FB0028F5D006494FF0E9
:1050000080500860BFF34F8FBFF36F8FECE7FFE76F
:1050100000263046BDE8F08104ED00E02DE9FF47B1
:1050200000273B4E82B099468A460446B8464FF068
:10503000805500BFFFF748FCA06BE16B884206D3A8
:10504000B9F1020F03D00498C0B1D7B11DE04A46B0
:1050500051462046FFF7C9F8616A19B104F12400EE
:1050600000F03AFB20B13560BFF34F8FBFF36F8F75
:10507000FFF738FC012006B0BDE8F087FFF732FCEF
:1050800021E06846FFF786FD0127FFF72BFCFFF7BD
:10509000EDFEFFF719FC94F94400401C01D184F89F
:1050A000448094F94500401C01D184F84580FFF705
:1050B00019FC04A9684600F071F930B12046FFF7E9
:1050C00017FB00F06FFB0020D5E7FFF7FDFBA06B9F
:1050D000E16B884213D1FFF705FC04F1100004993D
:1050E000FFF766FD2046FFF703FB00F05BFB00289F
:1050F000A0D13560BFF34F8FBFF36F8F9AE7FFF7F3
:10510000F1FB2046FFF7F4FA00F04CFB92E70000B9
:1051100004ED00E02DE9F041044617465020EFF37E
:10512000118680F31188BFF34F8FBFF36F8FA26B8F
:10513000E06B824206D3022B04D0002086F3118854
:10514000BDE8F08194F94550A06B1A462046FFF760
:105150004CF8681C08D0FFF77FFB854202D26D1C1B
:1051600084F845500120E9E7606A0028FAD004F18C
:10517000240000F0B1FA0028F4D0002FF2D0012072
:105180003860EFE72DE9F7470026DFF8E48083B0C9
:105190008A460446B1464FF0805700BFFFF794FBA4
:1051A000A56BC5B151462046FFF70CF86D1EA563EF
:1051B000206950B104F1100000F08EFA28B1C8F84F
:1051C0000070BFF34F8FBFF36F8FFFF78BFB012092
:1051D00006B0BDE8F087059808B11EB106E0FFF7FC
:1051E00081FB27E06846FFF7D5FC0126FFF77AFB35
:1051F000FFF73CFEFFF768FB94F94400401C01D127
:1052000084F8449094F94500401C01D184F84590FD
:10521000FFF768FB05A9684600F0C0F800282046A3
:105220000AD0FFF765FA00F0BDFA2046FFF71AF939
:105230000028B3D00020CBE7FFF714F990B104F1B8
:1052400024000599FFF7B4FC2046FFF751FA00F05F
:10525000A9FA0028A2D1C8F80070BFF34F8FBFF39E
:105260006F8F9BE72046FFF743FA00F09BFA95E724
:1052700004ED00E02DE9F3430026DFF81C8183B044
:1052800004463546B1464FF0805700BFFFF71CFB80
:10529000A06BC8B1401EA063206810B9FFF7AAFA3E
:1052A000A060206950B104F1100000F015FA28B197
:1052B000C8F80070BFF34F8FBFF36F8FFFF712FB7B
:1052C000012005B0BDE8F083049808B11EB106E0E6
:1052D000FFF708FB5EE06846FFF75CFC0126FFF77E
:1052E00001FBFFF7C3FDFFF7EFFA94F94400401C00
:1052F00001D184F8449094F94500401C01D184F810
:105300004590FFF7EFFA04A9684600F047F8002837
:10531000204612D0FFF7ECF900F044FA2046FFF7E0
:10532000A1F80028B2D075B3FFF7CEFA606A58B37F
:10533000206B0068C0F1050128E0FFF793F8E0B1A9
:10534000206838B9FFF7C0FAA06800F06DF905468B
:10535000FFF7C8FA04F124000499FFF729FC20465E
:10536000FFF7C6F900F01EFA00288FD1C8F80070C8
:10537000BFF34F8FBFF36F8F88E72046FFF7B8F971
:1053800000F010FA82E705E0FFE70021A068FFF7D0
:105390003FFC9DE7002094E704ED00E02DE9F0419B
:1053A0000C460546FFF790FA114EF2686B682168CB
:1053B000D01A4F1C0AD02F68D6F820C000266745A7
:1053C00006D0934204D8012526600BE0002509E0B1
:1053D000814205D9081A20602846FFF7DBFBF5E774
:1053E00001252660FFF77EFA2846BDE8F08100001F
:1053F0002C0000202DE9FF5F8346DDE90E879946EA
:1054000016468A469000FFF7A9F905001DD05420E2
:10541000FFF7A4F9040015D05421FAF7F8FE25632C
:105420000021CDE90241CDE900874B463246514685
:105430005846FEF793FF2046FEF724FE012004B0F5
:10544000BDE8F09F2846FFF757FA4FF0FF30F6E728
:105450000548416919B1406B18B10020704701201F
:1054600070470220704700002C0000200148C068EF
:10547000704700002C0000202DE9F041454C00262B
:10548000606B28B1A069401CA0613046BDE8F08186
:10549000E5686D1CE56008D1A06BE16BA163E0637A
:1054A000206A401C2062FFF7C7F8A16A3A488D4283
:1054B0000FD34FF0000EA16B096839B1A16BC96819
:1054C000C9684A68954212D2A26202E04FF0FF31E9
:1054D000A1622168C96A01EB810150F8210001280D
:1054E00000D90126E0690028CFD00126CDE7D1E917
:1054F00002724B69BA60D1E902277A605F680A1DBF
:10550000974201D1CF685F60C1F814E01F687F1E29
:105510001F60D1F828C0BCF1000F15D0D1E90737C2
:105520009F60D1E907377B60DCF8047001F1180354
:105530009F4202D10B6ACCF80430C1F828E0DCF8B5
:1055400000305B1ECCF80030CB6A0127D4F810C0C5
:105550009F4047EA0C07276103EB830300EB8303BB
:105560005B688B609F68CF609F687A609A60CA6A48
:1055700002EB820200EB82034B6150F822305B1C8D
:1055800040F82230C96A2268D26A914293D9012632
:1055900091E700002C0000209C31002010B5040091
:1055A0004FF000013AD0A06C401EA064636CE26A28
:1055B0009A4233D090BB201DFFF73AF9184A0121D7
:1055C00030B994F82C00136901FA00F08343136199
:1055D000606CE062C0F10500A061E06A136981407F
:1055E000194311610F4900EB800001EB8000406816
:1055F000A0608268E2608368221D5A608260E06A6F
:1056000000EB800001EB80006061E06A00EB80004D
:1056100051F82020521C41F820200121084610BDDD
:105620002C0000209C31002070B504004FF00000D9
:1056300047D0274DE16A2A68D26A914242D2A069D6
:10564000002804DB2868C06AC0F10500A061214E73
:1056500001EB8101606906EB810188422DD1201D9B
:10566000FFF7E6F8012130B994F82C002A6901FA15
:1056700000F082432A612868C06AE0622A6981409A
:105680001143296100EB800006EB80004068A060B8
:105690008168E1608268211D51608160E06A00EBF1
:1056A000800006EB80006061E06A00EB800056F845
:1056B0002010491C46F8201002E02868C06AE06209
:1056C000012070BD616C2A68D26A9142F8D370BD26
:1056D0002C0000209C31002070B5C068C468D4E95B
:1056E0000720A16A9060D4E9070250604A6804F17B
:1056F0001800824201D1226A4A600023A3620A682C
:10570000521E0A60254D696B012699B1244A5168E1
:10571000E1618B6823628B6858608860A2621068C0
:10572000401C1060E06A2968C96A884234D90120A7
:10573000EE6170BDD4E9022160699160D4E9021282
:1057400051604168221D914201D1E168416063616D
:105750000168491E0160E06A2B6906FA00F11943ED
:1057600029610F4900EB80008C3901EB8000406813
:10577000A0608368E36083685A608260E06A00EB3F
:10578000800001EB8002626151F82020521C41F838
:105790002020FEF751FFC5E7002070BD2C0000203F
:1057A000283200202DE9F04100242746FFF78CF82D
:1057B0003F4D686B401E6863686B002872D1A86813
:1057C0003C4B00264FF00108F0BB6BE0D868C46882
:1057D000D4E90721A06A9160D4E9071251604268B8
:1057E00004F118018A4201D1216A4160A662016870
:1057F000491E0160D4E9022160699160D4E9021276
:1058000051604268211D8A4201D1E26842606661AE
:105810000268521E0260E26AD5F810C008FA02F06F
:1058200040EA0C00286102EB8200224A8C3A02EB2B
:1058300080004068A060D0F808C0C4F80CC0D0F860
:1058400008C0CCF8041000E012E08160E06A00EBD0
:10585000800002EB8001616152F82010491C42F87F
:105860002010E06A2968C96A884201D3C5F81C8003
:1058700018680028AAD10CB1FEF7DEFEAC693CB175
:10588000FFF7FAFD08B1C5F81C80641EF8D1AE61BF
:10589000E86938B10849012738070860BFF34F8F1E
:1058A000BFF36F8FFFF71EF83846BDE8F0810000A8
:1058B0002C0000202832002004ED00E02DE9F04704
:1058C00080461F4615460E462820DDF82090FEF73C
:1058D00045FF040014D0002084F82400FEF74AFCA1
:1058E00004F11801C4F8008081E8C002201DFEF711
:1058F000C4FF2DB194F8240040F0040184F8241072
:105900002046BDE8F08700001CB50024FEF732FCFD
:105910000848006858B107492220091DCDE9000157
:105920000023802204A10648FFF764FD04462046B8
:105930001CBD00006C000020546D72205376630083
:10594000CD4600082DE9FF41114C1F46034626684D
:1059500000200A9D002E0ED08DE80E0006290FDAD9
:10596000FFF776FD02284FF0000307D000226946BA
:105970002068FFF753FB04B0BDE8F0812A46F6E744
:1059800000233A4669463046FFF7C4FBF3E70000C0
:105990006C0000200000000000000000002F00004C
:1059A00000000700070000147F147F1400242A7FE2
:1059B0002A12006264081323003649552250000061
:1059C0000503000000001C224100000041221C00D1
:1059D0000014083E08140008083E0808000000A053
:1059E000600000080808080800006060000000204F
:1059F00010080402003E5149453E0000427F40002D
:105A0000004261514946002141454B3100181412B2
:105A10007F10002745454539003C4A49493000017F
:105A20007109050300364949493600064949291ECE
:105A30000000363600000000563600000008142230
:105A40004100001414141414000041221408000230
:105A50000151090600324959513E007C1211127C55
:105A6000007F49494936003E41414122007F414182
:105A7000221C007F49494941007F09090901003E74
:105A80004149497A007F0808087F0000417F4100B2
:105A9000002040413F01007F08142241007F404028
:105AA0004040007F020C027F007F0408107F003E10
:105AB0004141413E007F09090906003E4151215EF6
:105AC000007F091929460046494949310001017FF3
:105AD0000101003F4040403F001F2040201F003F89
:105AE0004038403F0063140814630007087008073B
:105AF00000615149454300007F41410000552A554E
:105B00002A55000041417F000004020102040040C8
:105B100040404040000001020400002054545478EA
:105B2000007F48444438003844444420003844440A
:105B3000487F00385454541800087E0901020018A8
:105B4000A4A4A47C007F080404780000447D4000E5
:105B5000004080847D00007F102844000000417FC9
:105B60004000007C04180478007C080404780038A5
:105B70004444443800FC242424180018242418FC2D
:105B8000007C0804040800485454542000043F4496
:105B90004020003C4040207C001C2040201C003C59
:105BA0004030403C004428102844001CA0A0A07CA9
:105BB000004464544C4414141414141400000000E1
:105BC000000000000000000000000000000000F8DD
:105BD00000000000000000333000000000100C0640
:105BE000100C0600000000000000000040C07840DB
:105BF000C0784000043F04043F040400007088FCA7
:105C000008300000001820FF211E0000F008F000FE
:105C1000E018000000211C031E211E0000F008886F
:105C2000700000001E2123241927211010160E00D9
:105C3000000000000000000000000000000000E084
:105C40001804020000000007182040000002041899
:105C5000E00000000040201807000000404080F0F5
:105C6000804040000202010F01020200000000F02B
:105C7000000000000101011F0101010000000000FF
:105C80000000000080B07000000000000000000074
:105C900000000000000101010101010100000000FD
:105CA0000000000000303000000000000000000094
:105CB00080601804006018060100000000E0100871
:105CC0000810E000000F102020100F00001010F846
:105CD000000000000020203F202000000070080885
:105CE0000888700000302824222130000030088805
:105CF000884830000018202020110E000000C0202D
:105D000010F8000000070424243F240000F808884D
:105D1000880808000019212020110E0000E01088DA
:105D200088180000000F112020110E00003808080C
:105D3000C83808000000003F00000000007088081C
:105D400008887000001C222121221C0000E010089D
:105D50000810E0000000312222110F00000000C0F6
:105D6000C000000000000030300000000000008093
:105D70000000000000008060000000000000804083
:105D8000201008000001020408102000404040409C
:105D900040404000040404040404040000081020EF
:105DA0004080000000201008040201000070480834
:105DB0000808F0000000003036010000C030C8289C
:105DC000E810E0000718272423140B000000C03857
:105DD000E0000000203C23020227382008F88888D1
:105DE00088700000203F202020110E00C0300808DD
:105DF00008083800071820202010080008F80808B4
:105E00000810E000203F202020100F0008F88888AC
:105E1000E8081000203F20202320180008F8888878
:105E2000E8081000203F200003000000C0300808F0
:105E30000838000007182020221E020008F8080079
:105E40000008F808203F210101213F20000808F840
:105E5000080800000020203F202000000000080863
:105E6000F8080800C08080807F00000008F888C023
:105E700028180800203F20012638200008F80800D4
:105E800000000000203F20202020300008F8F8000B
:105E9000F8F80800203F003F003F200008F830C01D
:105EA0000008F808203F200007183F00E01008080D
:105EB0000810E0000F10202020100F0008F808083C
:105EC0000808F000203F210101010000E01008084F
:105ED0000810E0000F18242438504F0008F8888874
:105EE00088887000203F2000030C30200070880854
:105EF000080838000038202121221C00180808F862
:105F0000080818000000203F2000000008F80800E2
:105F10000008F808001F202020201F0008788800B3
:105F200000C83808000007380E010000F80800F823
:105F30000008F800033C0700073C030008186880CD
:105F40008068180820302C03032C30200838C80043
:105F5000C83808000000203F200000001008080892
:105F6000C83808002038262120201800000000FE34
:105F7000020202000000007F40404000000C30C0E0
:105F800000000000000000010638C000000202020C
:105F9000FE000000004040407F00000000000402BE
:105FA00002020400000000000000000000000000E9
:105FB00000000000808080808080808000020204D9
:105FC00000000000000000000000000000008080D1
:105FD000808000000019242222223F2008F800803F
:105FE00080000000003F112020110E000000008002
:105FF00080800000000E1120202011000000008091
:106000008088F800000E112020103F2000008080C2
:1060100080800000001F222222221300008080F0D6
:10602000888888180020203F202000000000808001
:1060300080808000006B94949493600008F8008046
:1060400080800000203F210000203F2000809898A1
:10605000000000000020203F202000000000008001
:106060009898000000C08080807F000008F8000041
:1060700080808000203F24022D302000000808F896
:10608000000000000020203F202000008080808051
:1060900080808000203F20003F20003F80800080E3
:1060A00080800000203F210000203F2000008080F1
:1060B00080800000001F202020201F0080800080A2
:1060C0008000000080FFA12020110E000000008051
:1060D00080808000000E112020A0FF808080800042
:1060E0008080800020203F2120000100000080806F
:1060F000808080000033242424241900008080E064
:10610000808000000000001F202000008080000030
:1061100000808000001F202020103F208080800011
:106120000080808000010E30080601008080008021
:10613000008080800F300C030C300F000080800046
:10614000808080000020312E0E3120008080800071
:106150000080808080818E70180601000080808021
:10616000808080000021302C2221300000000000BF
:10617000807C020200000000003F40400002027CE0
:10618000800000000040403F0000000000000000D0
:10619000FF00000000000000FF000000002018C702
:1061A00044444444FC4444444404000000000000CF
:1061B00000000000000000000000000004040407CC
:1061C00004040404FF0404040404040000000000A8
:1061D000000000000000000000000000000000FEC1
:1061E0002222222222222222FE00000000000000A1
:1061F0000000000000000000000000008040300FA0
:1062000002020202020242827F000000000000003F
:10621000000000000000000000000000000000FE80
:1062200082828282828282FE0000000000000000E2
:10623000000000000000000000000000000000FF5F
:1062400040404040404040FF00000000000000008F
:10625000000000000000000000000000EDCDADE8EF
:10626000CD2DEDB0D5F5FDFFFFFFFFFF00000000D5
:10627000000000000000000000000000F6F6FAFC3C
:10628000FEF0FEFCFAF6F6FFFFFFFFFF0000000045
:10629000000000000000000000000000FF83AAA929
:1062A000AB03ABA9AA83FFFFFFFFFFFF00000000C5
:1062B000000000000000000000000000FEFEFEFEE6
:1062C000FEF0FEFEFEFEFEFFFFFFFFFF00000000EF
:1062D000000000000000000000000000EF9FFD73C0
:1062E000FF01FD0DFD01FF07FF00FFFF00000000A3
:1062F000000000000000000000000000FBFB81FE29
:106300007FB8CFF0EFD8FFB87F80FFFF000000001C
:10631000000000000000000000000000DFDFDF419F
:106320005555555555555541DFDFDFFF000000003D
:10633000000000000000000000000000FF7F7F5010
:1063400055555500555555507F7FFFFF0000000003
:10635000000000000000000000000000FFFF07F741
:10636000F707F3F4F707F7F707FFFFFF0000000058
:10637000000000000000000000000000BFBF80BF60
:10638000BF80BFBFBF80BFBF80BFBFFF0000000096
:10639000000000000000000000000000F7DBDC95BA
:1063A00055D55595D5D5D515FDFDFFFF000000004D
:1063B000000000000000000000000000EFEEEAEA2C
:1063C000EA00EAEAEAEEEFF0CFBF07FF00000000C4
:1063D000000000000000000000000000404042CC2F
:1063E0000040A09E8282829EA0202000000000002B
:1063F0000000000000000000000000000000003F5E
:10640000908840432C102846418080000000000006
:10641000000000000000000000000000002E2AAA7A
:10642000AAAEAAFAAAAEAAAA2A2E0000000000006C
:10643000000000000000000000000000808080FFDD
:10644000AAAAAAAAAAAAAAFF808080000000000027
:106450000000000000000000000000000012949006
:10646000909F909094F20000000000000000000057
:106470000000000000000000000000000004040410
:1064800004040404040F00000000000000000000E9
:1064900000000000000000000000000004F4555659
:1064A00054F404E605F404000000000000000000BD
:1064B000000000000000000000000000000F0101CB
:1064C000090F0003080F000000000000000000009A
:1064D000000000000000000000000000224400C096
:1064E0005FD555D55FC0000000000000000000002F
:1064F0000000000000000000000000000402090F7E
:10650000080F080F080F080000000000000000003E
:1065100000000000000000000000000000FE0A8AE9
:10652000BEAAABAABE8A0A0000000000000000005C
:106530000000000000000000000000000807000844
:10654000090A04040A090800000000000000000015
:106550000000000000000000000000007EFFFFFFC0
:10656000FFFFFFFFFFFF7E3C3C000000000000003B
:106570000000007EFFFFFFFFFFFFFFFFFF7E3C3CB0
:10658000000000000000000000007EFFFFFFFFFF92
:10659000FFFFFF817E3C3C00000000000000000087
:1065A000007EFFFFFFFFFFFFFF81817E3C3C00007C
:1065B00000000000000000007EFFFFFFFFFFFF81E2
:1065C00081817E3C3C000000000000000000007E55
:1065D000FFFFFFFFFF818181817E3C3C00000000C6
:1065E0000000000000007EFFFFFFFF8181818181AC
:1065F0007E3C3C000000000000000000007EFFFF29
:10660000FF8181818181817E3C3C0000000000008F
:10661000000000007EFFFF818181818181817E3CBD
:106620003C000000000000000000007EFF8181812E
:1066300081818181817E3C3C0000000000000000DF
:1066400000007E8181818181818181817E3C3C004D
:106650000000000000000000002010F800F84020BA
:106660008000C000F000FC00FF004224FF5A24001C
:10667000000000000080C060202020C080000000DA
:10668000000000F8FF0700000000000003FFF80012
:106690000000001FFFE0000000000000C0FF1F001E
:1066A00000000000000103060404040301000000D0
:1066B0000000000080808080C0E00000000000003A
:1066C0000000000000000000FFFF000000000000CC
:1066D0000000000000000000FFFF000000000000BC
:1066E0000000000004040406070706040404000078
:1066F000000000008040202020202060C0C000005A
:106700000000000F0C00000000000080E07F1F0070
:1067100000000000804020180C0603010000E0008B
:106720000000000706060606060606060607010024
:1067300000000080C0402020202060C080000000B9
:1067400000000007070000808080C0603F1F00003D
:10675000000000E0E00000000000010103FE7800FE
:106760000000000103020404040404020301000009
:1067700000000000000000000080E0E000000000D9
:106780000000000000C030080601FFFF000000000C
:1067900000001816131010101010FFFF101010003A
:1067A00000000000000000040404070704040400C3
:1067B0000000000080606060606060606060600099
:1067C00000000000FF80402020202060C0800000EA
:1067D000000000E0610000000000000080FF7E007B
:1067E000000000010202040404040402030100008A
:1067F000000000000080C04020202020C0C0000019
:10680000000000F0FE83406020202060C181000075
:106810000000003FFFC100000000000000FF7E00FC
:106820000000000000030306040404060301000046
:1068300000000000E06060606060606060E0600038
:1068400000000007010000000080700C0300000041
:1068500000000000000000E0FE0100000000000059
:10686000000000000000000707000000000000001A
:106870000000000080C0602020202060C080000058
:106880000000001F3F78E0E0C0808040203F0F0004
:106890000000F8FE07010000000103070FFEF800EA
:1068A00000000001030204040404040203010000C8
:1068B00000000080C04020202020204080000000F8
:1068C0000000FEFF810000000000000081FFFC00CE
:1068D000000000818306040404040283F03F0F00DB
:1068E0000000000303040404040603010000000088
:1068F0000000000000000000000000000000000098
:106900000000000000000060F0F0600000000000E7
:106910000000000000000000808000000000000077
:106920000000000000000003070703000000000053
:1069300000FFFFFFFFFFFFFFFFFFFFFFFFFFFFFF66
:10694000FFFF6B97FC3BB34F0FDF5FBF0B7DD36542
:10695000972F7F3F5F2F1F2F5F3FFF7FFFFFFFFFBF
:10696000FFFFFFFFFFFFFFFFFFFFFFFFFFFFFFFF37
:10697000FFFFFFFF7FFF3F1F1F170B0703010301EF
:106980000100010000000000000000000001000103
:10699000000300040012200B36C0068502010F37E9
:1069A0001FFFFFFFFFFFFFFFFFFFFFFFFFFFFFFFD7
:1069B000FF2F0B0501000000000000000000000098
:1069C00000000000000000000000000000000000C7
:1069D0000000004B4DB4508019002B802872C51C5C
:1069E00022B4C00B379FFFFFFFFFFFFFFFFFFFFF3A
:1069F000FF00000000000000000000000000000098
:106A00000000000000000000000000000000000086
:106A10000000010101020002088DB000418208035C
:106A200024E892CB24D0062BBFFFFFFFFFFFFFFF20
:106A3000FF00000000000000000000000000000057
:106A40000000000000000000000000000000004006
:106A50000020202030202000020B0F360E35400091
:106A6000010205020B12041802B7DFFFFFFFFFFF50
:106A7000FF000000000000000000080C04030201F9
:106A80000101010000000000000000000000000003
:106A90000000000000000000000000000080000076
:106AA00000000000000000A0D4FEFFFFFFFFFFFF7A
:106AB000FF28B074F8808000000000001000300053
:106AC000608000C0000080008000000000808060C6
:106AD00080E0806894C4200000A0D0F0FCF3F8802F
:106AE0004000000000906AFFFFFFFFFFFFFFFFFF75
:106AF000FFFEFFFCFFFFFEFAFCF0E8F0C0E0C488F8
:106B000046080E150B042D7E1EBBEF518E77EECD81
:106B10001E37020102040A3DDFBF7FFFFFFFFFFFB8
:106B2000F5E0A04080020205070D8603EDFFFFFFA0
:106B3000FFFFFFFFFFFFFFFFFFFFFFFFFFFFFFFF65
:106B4000FFFFFFFFFFFFCB36FD1A534F578F7F9F8D
:106B50000BFD7345975FBF7F3F5F1F6FBF7F7FFF59
:106B6000FFFFFFFFFFFFFFFFFFFFFFFFFFFFFFFF35
:106B7000FFFFFFFFFFFFFFBF7F1F0F1F070B03017B
:106B80000300010000000000000000000000000001
:106B900000000101020204001404403EC20C8902FC
:106BA000050B2F5FFFFFFFFFFFFFFFFFFFFFFFFF53
:106BB000FFFFBF5F170B0200000000000000000095
:106BC00000000000000000000000000000000000C5
:106BD000000000000000CB4EB0508011020196680A
:106BE000A14E1074A8420B6F9FFFFFFFFFFFFFFF36
:106BF000FF6B060000000000000000000000000025
:106C00000000000000000000000000000000000084
:106C10000000000000030002050004099470004118
:106C2000820916C8518649B4410DE7BFFFFFFFFF37
:106C3000FF1D220000000000000000000000000016
:106C40000000000000000000000000000000000044
:106C50000000402020203020400000030F3D0E7D2A
:106C6000820000020307154A2A0020AA5FFFFFFFE7
:106C7000FF00000000000000000000000404020308
:106C80000101010001000000000000000000000000
:106C900000000000000000000000000000000000F4
:106CA00000000000000000008040E8FAFFFFFFFF46
:106CB000FFD0A04CBA7AE8A08000000000000010CD
:106CC0004030C06000400080800080000000400034
:106CD000C0A08020C038C420008000E0D0F0F4A024
:106CE000800000000000B0E8FEFFFFFFFFFFFFFF95
:106CF000FFFFFFFFFFFEFFFFFEFFF8FCF0E8E0D024
:106D0000A4C00C0A1309010E3C3F1A6F354A37EF35
:106D1000DD1E3E060005020C1EFFBF7FFFFFFFFACF
:106D2000D540800000020D17173F0BBBD7FFFFFFB8
:106D3000FFFFFFFFFFFFFFFFFFFFFFFFFFFFFFFF63
:106D4000FFFFFFFFFFFFFFFFFFFF7FFF7F7F7F7FD3
:106D50003FEB557E9965978FBF3F7FAFBFC317DF6E
:106D60007FFFFFFFFF7FFFFFFFFFFFFFFFFFFFFF33
:106D7000FFFFFFFFFFFFFFFFFFFFFFFFFFFFFF7FA3
:106D80001F170F03070103010001000000000000AE
:106D900000000000000000000000010201060A08D7
:106DA0001241101001F013634F0F7FBFFFFFFFFF71
:106DB000FFFFFFFFFFFFFFFFFF7F5F0701020000F4
:106DC00000000000000000000000000000000000C3
:106DD0000000000000000000000000000000003C77
:106DE000F04080014803BC008830C021420FBF7FC3
:106DF000FFFF7FBFBF7FBFAF540300000000000054
:106E00000000000000000000000000000000000082
:106E1000000000000000000000000000000609055E
:106E2000140328D0800008164B34C1022DB4400B47
:106E300065BEC180A08000010200000000000000CB
:106E40000000008080C040404080800000000000C2
:106E5000000000000000008000804080C080000032
:106E60000010BCFCF1502E0001007EB578807B0440
:106E700000AFCE8740820000C0204000000000002C
:106E80000000010000000000000000000000000001
:106E900000000000000000000000000000000100F1
:106EA0000000000002010400000000000402018450
:106EB00020FFFFFFFFFEF8FBE4FFFBE8A04080009F
:106EC000000004102C706010E00040804080000042
:106ED0000000008040408080A0B00048000000809A
:106EE00040A0000000000000000040C0E0F8FAFEF2
:106EF000FFFFFFFFFFFFFFFFFFFFFFFFFFFFFEFFA3
:106F0000FC78B4500002050A562543820302070D9F
:106F10000407030742AD04060815283EFCFFFEFFE8
:106F2000EF1205001000A058F6FDFFFFFFFFFFFF66
:106F3000FFFFFFFFFFFFFFFFFFFFFFFFFFFFFFFF61
:106F4000FFFFFFFFFFFFFFFFFFFFFFFFFFFFFFFF51
:106F5000FFFFFFFF7FFF7FFFFFFFFFFFBF4FF77DBB
:106F6000E30F3FFFFFFFFF7F7FBF7FFFFFFFFFFFBD
:106F7000FFFFFFFFFFFFFFFFFFFFFFFFFFFFFFFF21
:106F8000FFFFFFFFFF7F7F1F2F170F030503010187
:106F900000010001000000000000000001000100ED
:106FA000030003040A110B6D17C01A2F1F3F2F1F78
:106FB0004FFFFFFFFFFFFFFFFFFFFFFFFFFFFF7F11
:106FC000DF2F0F01010000000000000000000000A2
:106FD00000000000000000000000000000000000B1
:106FE0000000000000000080800001042000FC0779
:106FF00008FFFFFF7F7FBF6F970F0307070B1B057E
:107000000000000000000000000000000000000080
:107010000000000000000000000000000000000070
:107020000000000020106012AF1448000920877093
:1070300081FFFFFEFFFD3B7D16340A0800000000C3
:1070400000000000000000406020202020200040C0
:107050000000000000000000000000000000000030
:107060000000000000000180C057184080012A0580
:10707000BAFFFFFFFFFEFFFCFEEA80B06A926800E5
:107080000000000000000000000000000000000000
:1070900000000000000000000000000000000202EC
:1070A00002060C08000000073F075C030000001701
:1070B0002EFFFFFFFFFFFFFFFFFFFFFEFFFFFDFCB7
:1070C000E0D0C00000000B28FE10784040A0C000B7
:1070D00040000000008000800000808040402010C0
:1070E00000000000000000000000000000000000A0
:1070F00000FFFFFFFFFFFFFFFFFFFFFFFFFFFFFF9F
:10710000FFBF27DE2304000801000000000000018B
:10711000000000002000032A0504130A7069F0F83B
:10712000F0B82C12040000008000E0D0E0F8F4F881
:10713000FEFFFFFFFFFFFFFFFFFFFFFFFFFFFFFF60
:10714000FFFFFFFFFFFFFFFFFFFFFFFFFFFFFFFF4F
:10715000FFFFFFFFFFFFFFFFFFFFFFFFFFFFFFFF3F
:10716000FF7FDFAFEF972FFFFFFFFFFFFFFFFFFF67
:10717000FFFFFFFFFFFFFFFFFFFFFFFFFFFFFFFF1F
:10718000FFFFFFFFFFFFFFFF7F7F1F3F0F170F0373
:1071900005010301000100010001000000010103DD
:1071A000010304030509060813671FA37D92097FE5
:1071B000FFFFFFFFFFFFFFFFFFFFFFFFFFFFFFFFDF
:1071C000FFFF7F5F970B030100000000000000003D
:1071D00000000000000000000000000000000000AF
:1071E000000000000000000000000000000710C1C7
:1071F00008FFFFFFFFFFFFAF6FEFD72B85030002F4
:10720000030C03000000000000000000000000006C
:10721000000000000000000000000000000000006E
:1072200000000000000080400040A87F9400400063
:1072300080FFFFFFFFFFFFDFDF860F8007020000F8
:10724000000000000000000000202000301020207E
:1072500000400000000000000000000000000000EE
:1072600000000000000000000105002AD400000416
:10727000A8FFFFFFFFFFFFFFFFFFFFF5D0E8916EC4
:10728000000000000000000080000000000000007E
:1072900000000000000000000000000000000004EA
:1072A00004040818300000000A7F3EF9100B0000AB
:1072B000A0FFFFFFFFFFFFFFFFFFFFFFFFFFFFFF3D
:1072C000F9FCE0F080800000334C5A206020C0A020
:1072D000400000000000000000000080000040802E
:1072E000600000000000000000000102000000003B
:1072F00000FFFFFFFFFFFFFFFFFFFFFFFFFFFFFF9D
:10730000FFEFD7B18D4201000100004000000000F6
:10731000000000000000001B0C02041314C5C4C0D0
:10732000E0C060B008280400000000008000C080B9
:10733000E0FFFFFFFFFFFFFFFFFFFFFFFFFFFFFF7C
:10734000FFFFFFFFFFFFFFFFFFFFFFFFFFFFFFFF4D
:10735000FFFFFFFFFFFFFFFFFFFFFFFFFFFFFFFF3D
:10736000FFFFFF3FDFAFDF2F7FFFFFFFFFFFFFFFCD
:10737000FFFFFFFFFFFFFFFFFFFFFFFFFFFFFFFF1D
:10738000FFFFFFFFFFFFFFFFFF7F7F1F3F0F170F75
:1073900003050301030001000100010001000103D6
:1073A0000103050207010B150833472FDF27F905F5
:1073B0002BFFFFFFFFFFFFFFFFFFFFFFFFFFFFFFB1
:1073C000FFFFFF3F5F170F010200000000000000F9
:1073D00000000000000000000000000000000000AD
:1073E0000000000000000000000000000100071085
:1073F00081FFFFFFFFFFFFFFAF6FAFD72D820102BD
:107400000003040300000000000000000000000072
:10741000000000000000000000000000000000006C
:10742000000000000000000080404048BE540040C2
:1074300000FFFFFFFFFFFFFFCFA78E430403020003
:10744000000000000000000000003000301010209C
:1074500020400000000000000000000000000000CC
:10746000000000000000000100050128A3540000F6
:1074700008FFFFFFFFFFFFFFFFFFFFFFFDE0D8A3B7
:10748000A5000000000000000080000000000000D7
:1074900000000000000000000000000000040004E4
:1074A000040C081830600000007CBE7651100A0001
:1074B00000FFFFFFFFFFFFFFFFFFFFFFFFFFFFFFDB
:1074C000FEFAF4F0C0A0400000552A30286040A029
:1074D00040000000000000000000000080000040AC
:1074E00040802000000000000000804300000000F9
:1074F00000FFFFFFFFFFFFFFFFFFFFFFFFFFFFFF9B
:10750000FFFFEFD5A64900050010000000000000B5
:10751000000000000000000B1C020A026C0AC98176
:1075200081C080E040B0401804030000000000006B
:1075300080FFFFFFFFFFFFFFFFFFFFFFFFFFFFFFDA
:10754000FFFFFFFFFFFFFFFFFFFFFFFFFFFFFFFF4B
:10755000FFFFFFFFFFFFFFFFFFFFFFFFFFFFFFFF3B
:10756000FFFFFF7FBFBFDF5FAF7FFFFFFFFFFFFFBB
:10757000FFFFFFFFFFFFFFFFFFFFFFFFFFFFFFFF1B
:10758000FFFFFFFFFFFFFFFFFF7FBF5F3F0F1F07F3
:107590000F030501030003000100010000010103C6
:1075A0000103050304070B130C320B571FEF532580
:1075B0009BFFFFFFFFFFFFFFFFFFFFFFFFFFFFFF3F
:1075C000FFFFFFFF5F370B05030000000000000016
:1075D00000000000000000000000000000000000AB
:1075E0000000000000000000000000000001041581
:1075F00040FFFFFFFFFFFFFFBF7FAFEF5B85020193
:10760000000304060100000000000000000000006C
:10761000000000000000000000000000000000006A
:107620000000000000000000008040807856A000AC
:1076300000FFFFFFFFFFFFFFFFC7CB864182010175
:10764000800000000000000000000030101010203A
:1076500020004000000000000000000000000000CA
:10766000000000000000000001021401AA55000003
:1076700008FFFFFFFFFFFFFFFFFFFFFFFDF6E0BA80
:107680006500000000000000000000000000000095
:1076900000000000000000000000000000000004E6
:1076A000040808183060000000583EF454211C0003
:1076B00000FFFFFFFFFFFFFFFFFFFFFFFFFFFFFFD9
:1076C000FFFDFAE8F080C00080000C30282060A0A8
:1076D000400000000000000000000000008000806A
:1076E0004000C0000000000000000104C1000000D4
:1076F00000FFFFFFFFFFFFFFFFFFFFFFFFFFFFFF99
:10770000FFFFFFEF53AC0205001000000000000077
:10771000000000200000000B1C0205104F12D705CE
:1077200093018000C0A0D0E05822080200000000B1
:1077300000FFFFFFFFFFFFFFFFFFFFFFFFFFFFFF58
:10774000FFFFFFFFFFFFFFFFFFFFFFFFFFFFFFFF49
:10775000FFFFFFFFFFFFFFFFFFFFFFFFFFFFFFFF39
:10776000FFFFFFFF7FBFDFAF5FBFFFFFFFFFFFFF39
:10777000FFFFFFFFFFFFFFFFFFFFFFFFFFFFFFFF19
:10778000FFFFFFFFFFFFFFFFFF7FBF7F1F2F0F17D1
:107790000F030701030102010200010000010103C0
:1077A000010303040507031B042817473FCF57F5C0
:1077B00007FFFFFFFFFFFFFFFFFFFFFFFFFFFFFFD1
:1077C000FFFFFF7FDF2F0B0701010000000000001B
:1077D00000000000000000000000000000000000A9
:1077E0000000000000000000000000000001020D89
:1077F00020FFFFFFFFFFFFFFBF5FDFEFD32D830001
:107800000101060502000000000000000000000069
:107810000000000000000000000000000000000068
:1078200000000000000000000080008078D4288064
:1078300000FFFFFFFFFFFFFFFFC7EA858243000154
:107840008000000000000000000000301010102038
:1078500020004000000000000000000000000000C8
:10786000000000000000000001041201AAC5100081
:1078700000FFFFFFFFFFFFFFFFFFFFFFFEF5D0A8A8
:107880007700000000000000000000000000000081
:1078900000000000000000000000000000000400E4
:1078A000040808183060000000287EF474011C00F1
:1078B00000FFFFFFFFFFFFFFFFFFFFFFFFFFFFFFD7
:1078C000FFFFF8E8F0C0804880200004282040A096
:1078D00040000000000000000000000000008000E8
:1078E00040A0004000000000000001044100000032
:1078F00000FFFFFFFFFFFFFFFFFFFFFFFFFFFFFF97
:10790000FFFFFFFF6F95220D001000000000000038
:10791000000000200000000B1C02041B2697378B80
:10792000278001804080C0D0E8F45D13050100008D
:1079300000FFFFFFFFFFFFFFFFFFFFFFFFFFFFFF56
:10794000FFFFFFFFFFFFFFFFFFFFFFFFFFFFFFFF47
:10795000FFFFFFFFFFFFFFFFFFFFFFFFFFFFFFFF37
:10796000FFFFFF7FBF5FEF5F9F7FFFFFFFFFFFFF17
:10797000FFFFFFFFFFFFFFFFFFFFFFFFFFFFFFFF17
:10798000FFFFFFFFFFFFFFFFFFFF3F5F3F0F1F07EF
:107990000F030501030001020100010000010103C2
:1079A0000103050304070B130C126B871FEF5B0524
:1079B000ABFFFFFFFFFFFFFFFFFFFFFFFFFFFFFF2B
:1079C000FFFFFF7FDF2F0B0502000000000000001B
:1079D00000000000000000000000000000000000A7
:1079E000000000000000000000000000000104157D
:1079F00040FFFFFFFFFFFFFF7FBFBFCF7385020187
:107A0000000304030000000000000000000000006C
:107A10000000000000000000000000000000000066
:107A20000000000000000000008040807C540080C6
:107A300000FFFFFFFFFFFFFFF7CFC28542030001FA
:107A40008000000000000000000020101010102036
:107A500020400000000000000000000000000000C6
:107A60000000000000000001000512016A91000002
:107A700008FFFFFFFFFFFFFFFFFFFFFFFDE8D0AAAA
:107A800055000000000000000000000000000000A1
:107A900000000000000000000000000000000400E2
:107AA00004080818206000000078BE7451300A00F5
:107AB00000FFFFFFFFFFFFFFFFFFFFFFFFFFFFFFD5
:107AC000FFF9FCE0D0E0804490201000000000208E
:107AD0000000000000000000000000000080000026
:107AE000C0208000000000000000810441800000F0
:107AF00000FFFFFFFFFFFFFFFFFFFFFFFFFFFFFF95
:107B0000FFFFFFFFAF59250A010000000000000041
:107B10000000000000000000000A051A6E3F4F2719
:107B2000250280008080E0D0F4FA3E570501000075
:107B300000FFFFFFFFFFFFFFFFFFFFFFFFFFFFFF54
:107B4000FFFFFFFFFFFFFFFFFFFFFFFFFFFFFFFF45
:107B5000FFFFFFFFFFFFFFFFFFFFFFFFFFFFFF7FB5
:107B6000BF5FEFF707BFFFFFFFFFFFFFFFFFFFFF55
:107B7000FFFFFFFFFFFFFFFFFFFFFFFFFFFFFFFF15
:107B8000FFFFFFFFFFFF7FBF5F3F0F1F070B0501D9
:107B900003010001000100010001000000010103D8
:107BA0000007010305080A114F27BB5500A77FFFF7
:107BB0007FFFFFFFFFFFFFFFFFFFFFFFFFFFFFFF55
:107BC000FF5F2F1705030000000000000000000009
:107BD00000000000000000000000000000000000A5
:107BE000000000000000000000000001061048082E
:107BF000C0FFFFFFFFFFFFFF5FB74B050203020956
:107C0000060100000000000000000000000000006D
:107C10000000000000000000000000000000000064
:107C200000000000008040A020AA5D2200200588FE
:107C300036FFFFFFFFFF9DDE030B850601000000FE
:107C40000000000000000000202010103020200064
:107C50000000000000000000000000000000000024
:107C600000001000000000020100AC510000044AB6
:107C70002AFFFFFFFFFFFFFFFFFFF5F0806AD5003F
:107C800000000000000000000000000000000000F4
:107C900000000000000000000000000002000004DE
:107CA000040C10300000000A7F9B78040B0000A930
:107CB0005CFFFFFFFFFFFFFFFFFFFFFFFFFFFEFD7A
:107CC000F4F0C0A0C00008300070100000000000F8
:107CD0000000000000000000000000000000A040C4
:107CE000802000000000000000D0C1A000000000C3
:107CF00000FFFFFFFFFFFFFFFFFFFFFFFFFFFFFF93
:107D0000FFFFFF7FB74B35000000000000000010B0
:107D1000000000000000000020000000000006013C
:107D2000008080C0D0E0F8FCFF370A0000000000AF
:107D300000FFFFFFFFFFFFFFFFFFFFFFFFFFFFFF52
:107D4000FFFFFFFFFFFFFFFFFFFFFFFFFF7FFF7F43
:107D50007F7F7F7FFF7FAFB7EB7FB14BAF3F7FFF71
:107D6000FFBFDF2F9FFFFFFFFFFFFFFFFFFFFFFFB3
:107D7000FFFFFFFFFFFFFFFFFFFFFFFFFFFFFFFF13
:107D8000FF3F5F2F1F0707010301010001000000F3
:107D900000000000000000000000000100010205DA
:107DA000000E0B34400B878F070F832F5FBFFFFF41
:107DB000FFFFFFFFFFFFFFFFFFFFFF7F5F2F0502BA
:107DC00000000000000000000000000000000000B3
:107DD00000000000000000000000000000000000A3
:107DE000000000E04000001400AF510282000219C0
:107DF0002FFFFF3FDF2F1F0F172F350B0000000055
:107E00000000000000000000000000000000000072
:107E10000000000000000000000000000000001052
:107E2000081454055B842002004821DC200D2A54EC
:107E300080FFABFF2438601000000000000000004D
:107E40000000004040406020202000400000000072
:107E50000000000000000000000000000000000022
:107E6000000000E0E1A28D1060000289E648800178
:107E70002AFFFAF8FCF0D80000D0148000000000BF
:107E80000000000000000000000000000000800072
:107E900000000000000000000001000101010206D6
:107EA00000000000030B17010000000007010F1085
:107EB0002AFFFFFFFFFFFFFFFFFCFAF6F8D0A0400C
:107EC000800000106010C0A01040806000004000E2
:107ED0008000000000000000000000000000000022
:107EE0000000000008B0EA1C0200000000000000D2
:107EF00000FFFFFFFFFFFFFFFFFFFFFFFFFFFFFF91
:107F0000FFFE7F9C6A1000000101000000000000DD
:107F1000000084400000000000000000800000001D
:107F200000000000030017CD20400000000080503A
:107F3000F6FFFFFFFFFFFFFFFFFFFFFFFFFFFFFF5A
:107F4000FFFFFFFFFFFFFF7FFF7F9F2BFF3C53578C
:107F500027CF3F9F7F8BF545175F7F7FFF7F5F9F19
:107F60007FFF0743AB53A3438F1F9F1F3FFFFFFFBD
:107F7000FFFFFFFFFFFFFFFFFFFF3F5F1F070F0335
:107F800007010201000000000000000000000000E6
:107F9000000000000100010203040110084800FC79
:107FA000851810000324A5E2E5F2F1F0F8FFFFFFC9
:107FB000FFFFFFFFFF5F170B020100000000000042
:107FC00000000000000000000000000000000000B1
:107FD000000000000000000000809C74904021041C
:107FE000026E00C20C7088D0230FBF7FFFFFFFFF1F
:107FF000FFFFFFDF0521000000000000000000007F
:108000000000000000000000000000000000000070
:10801000000000000000000003020208010A2450D2
:10802000400205114F10A0420D2AD007299FFFFFE3
:10803000FF0202070800000000000000000000002E
:1080400000808080808000000000000000000000B0
:1080500000000000404040406040C00000041F7E1F
:1080600038F50A0000040B1D2E1422558002355FDE
:10807000FF0E00000000800000000000000002036E
:1080800001000000000000000000000000000000EF
:108090000000408000000000000000000000000020
:1080A0000000C1900000000000000100000050F539
:1080B000FFFEFAE8F0C5AAD590C00000000000005D
:1080C0000000804000C080008000C0000000000070
:1080D00002095422895420804000800000000000E2
:1080E000000000000000800140A800A058F5FFFF3C
:1080F000FFFFFFFFFFFFFFFFFFFFFEFFFCF8FCF0AD
:10810000F8E13241020406050F3E1B80000000002A
:1081100000000000000528421548225500552A405D
:1081200014AA00140A010A00050208020D172F1FE5
:1081300037FFFFFFFFFFFFFFFFFFFFFFABF7F36F0F
:10814000974FBF9FBF3F4D73D167972F5F1F2F1F63
:10815000039F8FBF1F7F3FFF7FFFFFFFFFFFFFFFDB
:10816000FFFF0F0121D824D821C10FCF1F1F7FFF90
:10817000FFFFFFFF7F1F3F0F0F07070702020101ED
:108180000001000000000100000100010200840164
:1081900000100F20916180208182430F8F3FBF7FAD
:1081A000FFFFFFF8F1F2F3F0E7F0F3F0F9F8FEFF6C
:1081B000FF030000000000000000000000000000BD
:1081C000000000000000000000000000000004A308
:1081D000AC5A244084000A20164C3123CA8C30A1AA
:1081E000461B6FBFFFFFFFFFFFFFFFFFFFFFFFFF0C
:1081F000FF00000000000000000000000000000080
:10820000000000000000000000000000000001006D
:10821000000001000202E2EC80C8508102083D50DB
:108220003D7214C00501912D2159A1592109C3FFA7
:10823000FF0000000000000000000000000000003F
:1082400000000000000000000000000000002010FE
:10825000101018101000000303030D02140000009A
:1082600000000100010001AAFCFEFCFCFEFFFFFF74
:10827000FF00000000000000000020300C08040493
:1082800000000000000000000000000000000000EE
:108290000000004080205000000000001800000096
:1082A000000000000080AAFEFF7FFFFFFFFFFFFF2E
:1082B000FF004080C00000C020400000004000805F
:1082C000400080000000000000800000000000204E
:1082D0000000122904522944902040800000000030
:1082E000000000000000000000018122439FA77FE2
:1082F000FFF0FBE5F7DEFAFCE0F0C080C000800094
:10830000881821140B020E3D3F9AEF6D000000000B
:10831000000000000001002552085522481542289F
:10832000540054A80228140015021409629876FF1C
:10833000FFFFFFFFFFFFFFFFFFAF77E7DF4FBF1F2D
:10834000FF3F7F2BABF3479F2F5F1F2F1F03178F1D
:108350001FAF3F1F7FFF7FFFFFFFFFFFFFFFFFFFFD
:10836000FFFFAF0140B846B8A441834F8F1F3FFFC6
:10837000FFFFFF7F3F1F1F0F0F04070503000100D2
:1083800001000100010001000103000000010803D9
:108390004D10714190006182430F471F5FFFFFFF47
:1083A000FFFFFFF8F0F3F2F2F2F1F2F1F2F8FCFF66
:1083B000FF020000000000000000000000000000BC
:1083C00000000000000000000000000001A38E7CFF
:1083D000002490800411122D18A3455EA831C20B11
:1083E0002FBFFFFFFFFFFF7F7FFFFFFFFFFFFFFFAD
:1083F000FF0000000000000000000000000000007E
:10840000000000000000000000000000000000006C
:108410000100000222F5F4C0E8D00100160A1C5D3C
:10842000A82006738740801E202C504C300C80E121
:10843000FF0000000000000000000000000000003D
:1084400000000000000000000000000000201010EC
:1084500018080808000000030502050800000000D5
:108460000000000001D4FFFFFEFEFEFEFEFFFFFF46
:10847000FF0000000000000000404030100808002D
:1084800004000000000000000000000000000000E8
:10849000000000408040100000000000000000804C
:1084A000000080A80149515163070FDFFFFFFFFF64
:1084B000FF0000004020502C500000000020C000B1
:1084C000800000000000000000800000000000208C
:1084D0001004112A44114AA410408000000000003A
:1084E0000000000000000000804003D629AF5FFFBD
:1084F000FFC6FAAFDCFEF0F0E0A0C0008001020190
:1085000007236F060B040E3E3F9AFF470000000052
:1085100000000000000005284512A84512482592D9
:108520004824528824120815020815025876FDFFC7
:10853000FFFFFFFFFFFFFFFFFFFFAFF7EFD74F5F2B
:10854000BF1F7F7F4DB3F5475F9F5F3F1F170B171F
:108550009F8F3F1F7FBFFFFFFFFFFFFFFFFFFFFF5B
:10856000FFFFBF0150A856A8D620C10FCF1F1FFF85
:10857000FFFFFF7F7F1F1F1F0F070606010300017C
:1085800001000100010000010100030004010108D5
:10859000034C3141D0002001E6034F8F3FFF7FFFA6
:1085A000FFFFFFF8F8F2F1F2F2F1F2F1F2F8FCFF5E
:1085B000FF020100000000000000000000000000B9
:1085C0000000000000000000000000000003A79C65
:1085D000522C40802004132A4C31A34A9CA052857F
:1085E000177F7FFFFFFF7F7F7F7FFFFF7F7FFFFF83
:1085F000FF0000000000000000000000000000007C
:108600000000000000000000000000000001000069
:10861000000100000362F6D0C0D84001021C2A59B4
:10862000BE10A15723C0000E304E304C320C80E0FB
:10863000FF0000000000000000000000000000003B
:1086400000000000000000000000000000002010FA
:1086500010081808000000030107010C00000000CA
:108660000000000053E0FFFEFFFEFEFEFEFFFFFFE6
:10867000FF000000000000000000602018080C004F
:1086800004040000000000000000000000000000E2
:1086900000000080205000000000100000000000DA
:1086A00000C030A4014138C431432707DFFFFFFF7A
:1086B000FF0080002050205C20000000204000C00F
:1086C000008000000000000000000000000000200A
:1086D000001229045229845020804000000000002C
:1086E00000010000000000800042AA05EB1FFFFF10
:1086F000FFE3DEEEFEF8E8F0C080C08000810403F6
:108700000E176F0E0B04062E3E1BEFC30000000079
:10871000000000000001244A11A44A11442A914497
:108720002A50842A1005120805120825BA7DFFFF79
:10873000FFFFFFFFFFFFFFFFFFFFFFFFA3FFF36F41
:10874000CF5F9FBF9F7F0DF3F54B8F3F5F3F0F1BA9
:1087500007BF8FBF1F3F7FFF7FFFFFFFFFFFFFFFB1
:10876000FFFFFF0340A856A8B648A1478F9F1F7F71
:10877000FFFFFFFF3F7F1F1F0F07070702020102D6
:10878000000100000000010000010001020084015E
:1087900000100F24B141802001C2034F8F3FBF7FE3
:1087A000FFFFFFF8F8F2F1F2F2F1F2F1F2F8FCFF5C
:1087B000FF010200000000000000000000000000B7
:1087C00000000000000000000000000000008063C6
:1087D0008E58245084000A201B4C3923CA8C3051F7
:1087E000861B6F7FFFFF7F7F7F7F7FFF7F7F7FFF06
:1087F000FF0000000000000000000000000000007A
:108800000000000000000000000000000000000068
:10881000000001000003E2ECA0C8A84002002D35D2
:108820003ABA50837F80801F007E007C021C80E06B
:10883000F700000000000000000000000000000041
:1088400000000000000000000000000000002010F8
:1088500010100818100000010303050B08000000A9
:10886000000100000043ECF5FEFEFEFEFEFFFFFFF0
:10887000FF00000000000000000060201808040451
:1088800004040000000000000000000000000000E0
:1088900000004080401000000010000000000000B8
:1088A0000080A0A8010028D4285127078FFFFFFFD0
:1088B000FF8000002050205C20000000003080007D
:1088C0004000800000000000008000000000000068
:1088D00000152A4015AA4010A0400000000000002A
:1088E000000000000000804000D2249B6FFFFFFFCB
:1088F000FFFAE9F6FEFEF8E0E080C0008000020525
:1089000029176F1F0205061E3E3FDB810000000095
:108910000000000001044A21548A21540A51A40A8B
:1089200050AA04280209040A010A1056FDFFFFFF9D
:10893000FF00000000000000F0F8FC1C1E0E0E0EF0
:108940000E1EFCFCF8E00080C0C0C0C0C08000006B
:108950000000000000000000FFFFFF00F0F8FCF83E
:10896000F000FFFFFFFF00183D3D3D3D3D3C18007E
:108970000000000000F8FC1E0FE3F1FC3F1F0F1F7A
:108980001FBCFBE70FFFF8FA0707070707070702F7
:10899000000000000003070F1E1C3933377766679D
:1089A00067333331181F0F0700000000000000007C
:1089B00000000000C0E0E0E0F8F8F8E0E0E0E0E00F
:1089C000E0E0E0E0E0E0E0F8F8F8E0E0E0C000003F
:1089D00000000000FFFFFF1CDFDFDF1CDCDCDCDC55
:1089E000DCDCDCDCDCDC1CDFDFDF1CFFFFFF00008D
:1089F00000000000FFFFFF00DDDDDD00DDDDDDDD6F
:108A0000DDDDDDDDDDDD00DDDDDD00FFFFFF0000A4
:108A1000000000000F1F1F1C1D1D1D1C1D1D1D1D06
:108A20001D1D1D1D1D1D1C1D1D1D1C1F1F0F0000BC
:108A3000000000000000000000000000000000E056
:108A400070D88C2684C810204487012010088480A8
:108A5000C00000000000000000000080C060301F67
:108A600040800103060C193166D8092284C87120A0
:108A700000000080C06030180C067379683880C030
:108A80006030190C0602020202020203010000001B
:108A9000000C3361408080406030180C06030100F8
:108AA00000000000000000000000000000000000C6
:108AB0000000000000000000008080C04040263F11
:108AC000AFAF3F264040C08080C040C08000000063
:108AD00000000000E0380CE63B1D04060201010125
:108AE000F9F90101010206041D3BE60F39E000001F
:108AF0000000001FFF801FE0800000000000000E4B
:108B00001F1F0E00000000000080E01F80FF1F00FC
:108B1000000000000003060C1932246C5858D0F0F5
:108B2000F0F0F0D058586C2432190C060300000005
:108B300000000080C06030180C0C0606020303031E
:108B400083830303030206060C0C183060C0800008
:108B500000F0FE070100000000000000000040C11E
:108B6000C3E7E3000000000000000000000107FE72
:108B7000F00F7FE080000000000000000000008097
:108B8000FFFFFF0000000000000000000080E07F09
:108B90000F00000103060C183030606040C0C1C1F6
:108BA000C1C1C1C1C04060603030180C0603010073
:108BB0000000FEFF7F1ECEEFE7F3FB783C3C3C1C41
:108BC000DCDC1C3C3C3C797BF3F7E7CE9F7FFEE48A
:108BD000000003F0FEFFFF0F83010202000000C04F
:108BE000FEFEC080808082820083077FFFFEF80146
:108BF0000000000F3FFFFFF0C080202000000001B8
:108C0000030303010101216180C0F0FEFF3F0F005B
:108C10000000F0F8FE7C1903070F0F1E1E1C3C3CE1
:108C20003D3D3C3C1C1E1E0F0F0703193CFEF8F097
:108C300000F8FCFCFEFF83FB7E1C1C1C7EFF83FBFC
:108C40007E1C1C1C7E7F437B7E1C1CFCFCF00000F9
:108C500000FFFFFF00003C24243CC0E0F0783C1EF5
:108C60000E0E0E07E7E7070E0E0E1E3F7FFFE0C059
:108C700000FFFFFF00003C24243CFFFF81000000B8
:108C8000000000387F7F3830303030000081FFFF37
:108C90003E070F1F1C1C1C1C1C1C1F1F1F1E3C788A
:108CA0007070E0E0E0E0E0E07070783C1E0F0703D9
:108CB0000000000000000000000000000000800034
:108CC000000000F0180C080000080C98F0000000EC
:108CD000000000000808B6C8C8C080000282CDC2EB
:108CE000828000077F40C0C0C0C0407F03000000FA
:108CF000000000001E23408000003049C930000001
:108D00000080413E000000FFFF00008000000000E6
:108D1000000000000000000001020C181B0C0406FB
:108D200005040404040402030002020D0202000010
:108D300000010202030405060708090A0B0C0D0EC8
:108D40000F101000000000000000000102030406E4
:108D50000708090000000001020304004E616D6570
:108D60003A204669727374205761746368204279AF
:108D700020000000206D6F6D20657665727964615A
:108D80007921000056657273696F6E3A20312E307A
:108D90002E30000053657269616C204E756D6265FE
:108DA000723A203030303031000000004368697082
:108DB0003A2053544D333200446174653A203230C6
:108DC00032352E342E32340052414D3A2032304B5F
:108DD00042000000524F4D3A2036344B4200000012
:108DE0004672656552544F5300000000536372652C
:108DF000656E3A203132382A363420506978656CF5
:108E0000000000004465766963652049443A2047C4
:108E1000656E7368696E00004D6573736167653ACE
:108E20002049206C6F7665206D7900004C8E00081B
:108E3000000000205C0100007A050008AC8E0008EC
:108E40005C01002014360000163E0008011C1AAA1E
:108E500001013C02230417AED580A83FD310114076
:108E6000A1C8DA1281CFD9F1DB40A4A68D14AF32AC
:108E70001F321C2908DA1E0809121413048E140864
:108E80005C8D1B08E0041A94041AAC041AD4041A6A
:108E9000C8041AEC041A84041A18241A74081AB89C
:0C8EA000040253643201821013127A00A5
:04000005080000ED02
:00000001FF
