Component: ARM Compiler 5.06 update 5 (build 528) Tool: armlink [4d35e2]

==============================================================================

Section Cross References

    startup_stm32f103xb.o(RESET) refers to startup_stm32f103xb.o(STACK) for __initial_sp
    startup_stm32f103xb.o(RESET) refers to startup_stm32f103xb.o(.text) for Reset_Handler
    startup_stm32f103xb.o(RESET) refers to stm32f1xx_it.o(i.NMI_Handler) for NMI_Handler
    startup_stm32f103xb.o(RESET) refers to stm32f1xx_it.o(i.HardFault_Handler) for HardFault_Handler
    startup_stm32f103xb.o(RESET) refers to stm32f1xx_it.o(i.MemManage_Handler) for MemManage_Handler
    startup_stm32f103xb.o(RESET) refers to stm32f1xx_it.o(i.BusFault_Handler) for BusFault_Handler
    startup_stm32f103xb.o(RESET) refers to stm32f1xx_it.o(i.UsageFault_Handler) for UsageFault_Handler
    startup_stm32f103xb.o(RESET) refers to stm32f1xx_it.o(i.SVC_Handler) for SVC_Handler
    startup_stm32f103xb.o(RESET) refers to stm32f1xx_it.o(i.DebugMon_Handler) for DebugMon_Handler
    startup_stm32f103xb.o(RESET) refers to stm32f1xx_it.o(i.PendSV_Handler) for PendSV_Handler
    startup_stm32f103xb.o(RESET) refers to stm32f1xx_it.o(i.SysTick_Handler) for SysTick_Handler
    startup_stm32f103xb.o(RESET) refers to stm32f1xx_it.o(i.EXTI4_IRQHandler) for EXTI4_IRQHandler
    startup_stm32f103xb.o(RESET) refers to stm32f1xx_it.o(i.EXTI9_5_IRQHandler) for EXTI9_5_IRQHandler
    startup_stm32f103xb.o(RESET) refers to stm32f1xx_it.o(i.TIM4_IRQHandler) for TIM4_IRQHandler
    startup_stm32f103xb.o(.text) refers to system_stm32f1xx.o(i.SystemInit) for SystemInit
    startup_stm32f103xb.o(.text) refers to entry.o(.ARM.Collect$$$$00000000) for __main
    event_groups.o(i.vEventGroupClearBitsCallback) refers to event_groups.o(i.xEventGroupClearBits) for xEventGroupClearBits
    event_groups.o(i.vEventGroupDelete) refers to tasks.o(i.vTaskSuspendAll) for vTaskSuspendAll
==============================================================================

Removing Unused input sections from the image.

    Removing startup_stm32f103xb.o(HEAP), (512 bytes).
    Removing event_groups.o(i.prvTestWaitCondition), (20 bytes).
    Removing event_groups.o(i.vEventGroupClearBitsCallback), (4 bytes).
    Removing event_groups.o(i.vEventGroupDelete), (44 bytes).
    Removing event_groups.o(i.vEventGroupSetBitsCallback), (4 bytes).
    Removing event_groups.o(i.xEventGroupClearBits), (26 bytes).
    Removing event_groups.o(i.xEventGroupCreate), (26 bytes).
    Removing event_groups.o(i.xEventGroupGetBitsFromISR), (26 bytes).
    Removing event_groups.o(i.xEventGroupSetBits), (100 bytes).
    Removing event_groups.o(i.xEventGroupSync), (140 bytes).
    Removing event_groups.o(i.xEventGroupWaitBits), (176 bytes).
    Removing heap_4.o(i.pvPortCalloc), (38 bytes).
    Removing heap_4.o(i.vPortGetHeapStats), (108 bytes).
    Removing heap_4.o(i.vPortInitialiseBlocks), (2 bytes).
    Removing heap_4.o(i.xPortGetFreeHeapSize), (12 bytes).
    Removing heap_4.o(i.xPortGetMinimumEverFreeHeapSize), (12 bytes).
    Removing port.o(i.vPortEndScheduler), (2 bytes).
    Removing queue.o(i.pcQueueGetName), (40 bytes).
==============================================================================

Image Symbol Table

    Local Symbols

    Symbol Name                              Value     Ov Type        Size  Object(Section)

    ../Core/Src/adc.c                        0x00000000   Number         0  adc.o ABSOLUTE
    ../Core/Src/gpio.c                       0x00000000   Number         0  gpio.o ABSOLUTE
    ../Core/Src/i2c.c                        0x00000000   Number         0  i2c.o ABSOLUTE
    ../Core/Src/main.c                       0x00000000   Number         0  main.o ABSOLUTE
    ../Core/Src/stm32f1xx_hal_msp.c          0x00000000   Number         0  stm32f1xx_hal_msp.o ABSOLUTE
    ../Core/Src/stm32f1xx_hal_timebase_tim.c 0x00000000   Number         0  stm32f1xx_hal_timebase_tim.o ABSOLUTE
    ../Core/Src/stm32f1xx_it.c               0x00000000   Number         0  stm32f1xx_it.o ABSOLUTE
    ../Core/Src/system_stm32f1xx.c           0x00000000   Number         0  system_stm32f1xx.o ABSOLUTE
    ../Drivers/STM32F1xx_HAL_Driver/Src/stm32f1xx_hal.c 0x00000000   Number         0  stm32f1xx_hal.o ABSOLUTE
    ../Drivers/STM32F1xx_HAL_Driver/Src/stm32f1xx_hal_adc.c 0x00000000   Number         0  stm32f1xx_hal_adc.o ABSOLUTE
    ../Drivers/STM32F1xx_HAL_Driver/Src/stm32f1xx_hal_adc_ex.c 0x00000000   Number         0  stm32f1xx_hal_adc_ex.o ABSOLUTE
    ../Drivers/STM32F1xx_HAL_Driver/Src/stm32f1xx_hal_cortex.c 0x00000000   Number         0  stm32f1xx_hal_cortex.o ABSOLUTE
    ../Drivers/STM32F1xx_HAL_Driver/Src/stm32f1xx_hal_dma.c 0x00000000   Number         0  stm32f1xx_hal_dma.o ABSOLUTE
    ../Drivers/STM32F1xx_HAL_Driver/Src/stm32f1xx_hal_exti.c 0x00000000   Number         0  stm32f1xx_hal_exti.o ABSOLUTE
    ../Drivers/STM32F1xx_HAL_Driver/Src/stm32f1xx_hal_flash.c 0x00000000   Number         0  stm32f1xx_hal_flash.o ABSOLUTE
    ../Drivers/STM32F1xx_HAL_Driver/Src/stm32f1xx_hal_flash_ex.c 0x00000000   Number         0  stm32f1xx_hal_flash_ex.o ABSOLUTE
    ../Drivers/STM32F1xx_HAL_Driver/Src/stm32f1xx_hal_gpio.c 0x00000000   Number         0  stm32f1xx_hal_gpio.o ABSOLUTE
    ../Drivers/STM32F1xx_HAL_Driver/Src/stm32f1xx_hal_gpio_ex.c 0x00000000   Number         0  stm32f1xx_hal_gpio_ex.o ABSOLUTE
    ../Drivers/STM32F1xx_HAL_Driver/Src/stm32f1xx_hal_i2c.c 0x00000000   Number         0  stm32f1xx_hal_i2c.o ABSOLUTE
    ../Drivers/STM32F1xx_HAL_Driver/Src/stm32f1xx_hal_pwr.c 0x00000000   Number         0  stm32f1xx_hal_pwr.o ABSOLUTE
    ../Drivers/STM32F1xx_HAL_Driver/Src/stm32f1xx_hal_rcc.c 0x00000000   Number         0  stm32f1xx_hal_rcc.o ABSOLUTE
    ../Drivers/STM32F1xx_HAL_Driver/Src/stm32f1xx_hal_rcc_ex.c 0x00000000   Number         0  stm32f1xx_hal_rcc_ex.o ABSOLUTE
    ../Drivers/STM32F1xx_HAL_Driver/Src/stm32f1xx_hal_tim.c 0x00000000   Number         0  stm32f1xx_hal_tim.o ABSOLUTE
    ../Drivers/STM32F1xx_HAL_Driver/Src/stm32f1xx_hal_tim_ex.c 0x00000000   Number         0  stm32f1xx_hal_tim_ex.o ABSOLUTE
    ../clib/../cmprslib/zerorunl2.c          0x00000000   Number         0  __dczerorl2.o ABSOLUTE
    ../clib/microlib/init/entry.s            0x00000000   Number         0  entry5.o ABSOLUTE
    ../clib/microlib/init/entry.s            0x00000000   Number         0  entry2.o ABSOLUTE
    ../clib/microlib/init/entry.s            0x00000000   Number         0  entry10a.o ABSOLUTE
    ../clib/microlib/init/entry.s            0x00000000   Number         0  entry7a.o ABSOLUTE
    ../clib/microlib/init/entry.s            0x00000000   Number         0  entry7b.o ABSOLUTE
    ../clib/microlib/init/entry.s            0x00000000   Number         0  entry9a.o ABSOLUTE
    ../clib/microlib/init/entry.s            0x00000000   Number         0  entry9b.o ABSOLUTE
    ../clib/microlib/init/entry.s            0x00000000   Number         0  entry10b.o ABSOLUTE
    ../clib/microlib/init/entry.s            0x00000000   Number         0  entry11a.o ABSOLUTE
    ../clib/microlib/init/entry.s            0x00000000   Number         0  entry11b.o ABSOLUTE
    ../clib/microlib/init/entry.s            0x00000000   Number         0  entry8a.o ABSOLUTE
    ../clib/microlib/init/entry.s            0x00000000   Number         0  entry8b.o ABSOLUTE
    ../clib/microlib/init/entry.s            0x00000000   Number         0  entry.o ABSOLUTE
    ../clib/microlib/longlong.c              0x00000000   Number         0  llshl.o ABSOLUTE
    ../clib/microlib/longlong.c              0x00000000   Number         0  llushr.o ABSOLUTE
    ../clib/microlib/string/memcpy.c         0x00000000   Number         0  memcpyb.o ABSOLUTE
    ../clib/microlib/string/memcpy.c         0x00000000   Number         0  memcpya.o ABSOLUTE
    ../clib/microlib/string/memset.c         0x00000000   Number         0  memseta.o ABSOLUTE
    ../clib/microlib/stubs.s                 0x00000000   Number         0  iusefp.o ABSOLUTE
    ../fplib/microlib/d2f.c                  0x00000000   Number         0  d2f.o ABSOLUTE
    ../fplib/microlib/fpadd.c                0x00000000   Number         0  fadd.o ABSOLUTE
    ../fplib/microlib/fpepilogue.c           0x00000000   Number         0  depilogue.o ABSOLUTE
    ../fplib/microlib/fpepilogue.c           0x00000000   Number         0  fepilogue.o ABSOLUTE
    ../fplib/microlib/fpfix.c                0x00000000   Number         0  ffixi.o ABSOLUTE
    ../fplib/microlib/fpflt.c                0x00000000   Number         0  fflti.o ABSOLUTE
    ../fplib/microlib/fpflt.c                0x00000000   Number         0  ffltui.o ABSOLUTE
    ../fplib/microlib/fpflt.c                0x00000000   Number         0  dflti.o ABSOLUTE
    ../fplib/microlib/fpmul.c                0x00000000   Number         0  fmul.o ABSOLUTE
    ../fplib/microlib/fpscalb.c              0x00000000   Number         0  dscalb.o ABSOLUTE
    ..\Core\Src\FreeRTOSInit.c               0x00000000   Number         0  freertosinit.o ABSOLUTE
    ..\Core\Src\adc.c                        0x00000000   Number         0  adc.o ABSOLUTE
    ..\Core\Src\gpio.c                       0x00000000   Number         0  gpio.o ABSOLUTE
    ..\Core\Src\i2c.c                        0x00000000   Number         0  i2c.o ABSOLUTE
    ..\Core\Src\main.c                       0x00000000   Number         0  main.o ABSOLUTE
    ..\Core\Src\stm32f1xx_hal_msp.c          0x00000000   Number         0  stm32f1xx_hal_msp.o ABSOLUTE
    ..\Core\Src\stm32f1xx_hal_timebase_tim.c 0x00000000   Number         0  stm32f1xx_hal_timebase_tim.o ABSOLUTE
    ..\Core\Src\stm32f1xx_it.c               0x00000000   Number         0  stm32f1xx_it.o ABSOLUTE
    ..\Core\Src\system_stm32f1xx.c           0x00000000   Number         0  system_stm32f1xx.o ABSOLUTE
    ..\Drivers\STM32F1xx_HAL_Driver\Src\stm32f1xx_hal.c 0x00000000   Number         0  stm32f1xx_hal.o ABSOLUTE
    ..\Drivers\STM32F1xx_HAL_Driver\Src\stm32f1xx_hal_adc.c 0x00000000   Number         0  stm32f1xx_hal_adc.o ABSOLUTE
    ..\Drivers\STM32F1xx_HAL_Driver\Src\stm32f1xx_hal_adc_ex.c 0x00000000   Number         0  stm32f1xx_hal_adc_ex.o ABSOLUTE
    ..\Drivers\STM32F1xx_HAL_Driver\Src\stm32f1xx_hal_cortex.c 0x00000000   Number         0  stm32f1xx_hal_cortex.o ABSOLUTE
    ..\Drivers\STM32F1xx_HAL_Driver\Src\stm32f1xx_hal_dma.c 0x00000000   Number         0  stm32f1xx_hal_dma.o ABSOLUTE
    ..\Drivers\STM32F1xx_HAL_Driver\Src\stm32f1xx_hal_exti.c 0x00000000   Number         0  stm32f1xx_hal_exti.o ABSOLUTE
    ..\Drivers\STM32F1xx_HAL_Driver\Src\stm32f1xx_hal_flash.c 0x00000000   Number         0  stm32f1xx_hal_flash.o ABSOLUTE
    ..\Drivers\STM32F1xx_HAL_Driver\Src\stm32f1xx_hal_flash_ex.c 0x00000000   Number         0  stm32f1xx_hal_flash_ex.o ABSOLUTE
    ..\Drivers\STM32F1xx_HAL_Driver\Src\stm32f1xx_hal_gpio.c 0x00000000   Number         0  stm32f1xx_hal_gpio.o ABSOLUTE
    ..\Drivers\STM32F1xx_HAL_Driver\Src\stm32f1xx_hal_gpio_ex.c 0x00000000   Number         0  stm32f1xx_hal_gpio_ex.o ABSOLUTE
    ..\Drivers\STM32F1xx_HAL_Driver\Src\stm32f1xx_hal_i2c.c 0x00000000   Number         0  stm32f1xx_hal_i2c.o ABSOLUTE
    ..\Drivers\STM32F1xx_HAL_Driver\Src\stm32f1xx_hal_pwr.c 0x00000000   Number         0  stm32f1xx_hal_pwr.o ABSOLUTE
    ..\Drivers\STM32F1xx_HAL_Driver\Src\stm32f1xx_hal_rcc.c 0x00000000   Number         0  stm32f1xx_hal_rcc.o ABSOLUTE
    ..\Drivers\STM32F1xx_HAL_Driver\Src\stm32f1xx_hal_rcc_ex.c 0x00000000   Number         0  stm32f1xx_hal_rcc_ex.o ABSOLUTE
    ..\Drivers\STM32F1xx_HAL_Driver\Src\stm32f1xx_hal_tim.c 0x00000000   Number         0  stm32f1xx_hal_tim.o ABSOLUTE
    ..\Drivers\STM32F1xx_HAL_Driver\Src\stm32f1xx_hal_tim_ex.c 0x00000000   Number         0  stm32f1xx_hal_tim_ex.o ABSOLUTE
    ..\\Core\\Src\\FreeRTOSInit.c            0x00000000   Number         0  freertosinit.o ABSOLUTE
    FreeRTOS\\src\\port.c                    0x00000000   Number         0  port.o ABSOLUTE
    FreeRTOS\src\croutine.c                  0x00000000   Number         0  croutine.o ABSOLUTE
    FreeRTOS\src\event_groups.c              0x00000000   Number         0  event_groups.o ABSOLUTE
    FreeRTOS\src\heap_4.c                    0x00000000   Number         0  heap_4.o ABSOLUTE
    FreeRTOS\src\list.c                      0x00000000   Number         0  list.o ABSOLUTE
    FreeRTOS\src\port.c                      0x00000000   Number         0  port.o ABSOLUTE
    FreeRTOS\src\queue.c                     0x00000000   Number         0  queue.o ABSOLUTE
    FreeRTOS\src\stream_buffer.c             0x00000000   Number         0  stream_buffer.o ABSOLUTE
    FreeRTOS\src\tasks.c                     0x00000000   Number         0  tasks.o ABSOLUTE
    FreeRTOS\src\timers.c                    0x00000000   Number         0  timers.o ABSOLUTE
    HardWare\\buzzer.c                       0x00000000   Number         0  buzzer.o ABSOLUTE
    HardWare\\delay.c                        0x00000000   Number         0  delay.o ABSOLUTE
    HardWare\\ds1302.c                       0x00000000   Number         0  ds1302.o ABSOLUTE
    HardWare\\ds18b20.c                      0x00000000   Number         0  ds18b20.o ABSOLUTE
    HardWare\\oled.c                         0x00000000   Number         0  oled.o ABSOLUTE
    HardWare\buzzer.c                        0x00000000   Number         0  buzzer.o ABSOLUTE
    HardWare\delay.c                         0x00000000   Number         0  delay.o ABSOLUTE
    HardWare\ds1302.c                        0x00000000   Number         0  ds1302.o ABSOLUTE
    HardWare\ds18b20.c                       0x00000000   Number         0  ds18b20.o ABSOLUTE
    HardWare\oled.c                          0x00000000   Number         0  oled.o ABSOLUTE
    HardWare\oledfont.c                      0x00000000   Number         0  oledfont.o ABSOLUTE
    My_Task\Calendar_Task.c                  0x00000000   Number         0  calendar_task.o ABSOLUTE
    My_Task\Clock_Task.c                     0x00000000   Number         0  clock_task.o ABSOLUTE
    My_Task\Enter_StopMode_Task.c            0x00000000   Number         0  enter_stopmode_task.o ABSOLUTE
    My_Task\Exit_StopMode_Task.c             0x00000000   Number         0  exit_stopmode_task.o ABSOLUTE
    My_Task\FlashLight_Task.c                0x00000000   Number         0  flashlight_task.o ABSOLUTE
    My_Task\Heart_Task.c                     0x00000000   Number         0  heart_task.o ABSOLUTE
    My_Task\Information_Task.c               0x00000000   Number         0  information_task.o ABSOLUTE
    My_Task\Menu_Task.c                      0x00000000   Number         0  menu_task.o ABSOLUTE
    My_Task\Open_Task.c                      0x00000000   Number         0  open_task.o ABSOLUTE
    My_Task\SetSystemTime_Task.c             0x00000000   Number         0  setsystemtime_task.o ABSOLUTE
    My_Task\Stopwatch_Task.c                 0x00000000   Number         0  stopwatch_task.o ABSOLUTE
    My_Task\Temperature_Task.c               0x00000000   Number         0  temperature_task.o ABSOLUTE
    My_Task\Time_Task.c                      0x00000000   Number         0  time_task.o ABSOLUTE
    My_Task\\Calendar_Task.c                 0x00000000   Number         0  calendar_task.o ABSOLUTE
    My_Task\\Clock_Task.c                    0x00000000   Number         0  clock_task.o ABSOLUTE
    My_Task\\Enter_StopMode_Task.c           0x00000000   Number         0  enter_stopmode_task.o ABSOLUTE
    My_Task\\Exit_StopMode_Task.c            0x00000000   Number         0  exit_stopmode_task.o ABSOLUTE
    My_Task\\FlashLight_Task.c               0x00000000   Number         0  flashlight_task.o ABSOLUTE
    My_Task\\Heart_Task.c                    0x00000000   Number         0  heart_task.o ABSOLUTE
    My_Task\\Information_Task.c              0x00000000   Number         0  information_task.o ABSOLUTE
    My_Task\\Menu_Task.c                     0x00000000   Number         0  menu_task.o ABSOLUTE
    My_Task\\Open_Task.c                     0x00000000   Number         0  open_task.o ABSOLUTE
    My_Task\\SetSystemTime_Task.c            0x00000000   Number         0  setsystemtime_task.o ABSOLUTE
    My_Task\\Stopwatch_Task.c                0x00000000   Number         0  stopwatch_task.o ABSOLUTE
    My_Task\\Temperature_Task.c              0x00000000   Number         0  temperature_task.o ABSOLUTE
    My_Task\\Time_Task.c                     0x00000000   Number         0  time_task.o ABSOLUTE
    dc.s                                     0x00000000   Number         0  dc.o ABSOLUTE
    handlers.s                               0x00000000   Number         0  handlers.o ABSOLUTE
    init.s                                   0x00000000   Number         0  init.o ABSOLUTE
    startup_stm32f103xb.s                    0x00000000   Number         0  startup_stm32f103xb.o ABSOLUTE
    RESET                                    0x08000000   Section      236  startup_stm32f103xb.o(RESET)
    .ARM.Collect$$$$00000000                 0x080000ec   Section        0  entry.o(.ARM.Collect$$$$00000000)
    .ARM.Collect$$$$00000001                 0x080000ec   Section        4  entry2.o(.ARM.Collect$$$$00000001)
    .ARM.Collect$$$$00000004                 0x080000f0   Section        4  entry5.o(.ARM.Collect$$$$00000004)
    .ARM.Collect$$$$00000008                 0x080000f4   Section        0  entry7b.o(.ARM.Collect$$$$00000008)
    .ARM.Collect$$$$0000000A                 0x080000f4   Section        0  entry8b.o(.ARM.Collect$$$$0000000A)
    .ARM.Collect$$$$0000000B                 0x080000f4   Section        8  entry9a.o(.ARM.Collect$$$$0000000B)
    .ARM.Collect$$$$0000000D                 0x080000fc   Section        0  entry10a.o(.ARM.Collect$$$$0000000D)
    .ARM.Collect$$$$0000000F                 0x080000fc   Section        0  entry11a.o(.ARM.Collect$$$$0000000F)
    .ARM.Collect$$$$00002712                 0x080000fc   Section        4  entry2.o(.ARM.Collect$$$$00002712)
    __lit__00000000                          0x080000fc   Data           4  entry2.o(.ARM.Collect$$$$00002712)
    .emb_text                                0x08000100   Section      150  port.o(.emb_text)
    .text                                    0x08000198   Section       36  startup_stm32f103xb.o(.text)
    .text                                    0x080001bc   Section        0  llushr.o(.text)
    .text                                    0x080001dc   Section        0  memcpya.o(.text)
    .text                                    0x08000200   Section        0  memseta.o(.text)
    .text                                    0x08000224   Section        0  fadd.o(.text)
    .text                                    0x080002d4   Section        0  fmul.o(.text)
    .text                                    0x08000338   Section        0  dscalb.o(.text)
    .text                                    0x08000366   Section        0  fflti.o(.text)
    .text                                    0x08000378   Section        0  ffltui.o(.text)
    .text                                    0x08000382   Section        0  dflti.o(.text)
    .text                                    0x080003a4   Section        0  ffixi.o(.text)
    .text                                    0x080003d6   Section        0  d2f.o(.text)
    .text                                    0x0800040e   Section        0  iusefp.o(.text)
    .text                                    0x0800040e   Section        0  fepilogue.o(.text)
    .text                                    0x0800047c   Section        0  depilogue.o(.text)
    .text                                    0x08000538   Section       36  init.o(.text)
    .text                                    0x0800055c   Section        0  llshl.o(.text)
    .text                                    0x0800057a   Section        0  __dczerorl2.o(.text)
    i.ADC_ConversionStop_Disable             0x080005d0   Section        0  stm32f1xx_hal_adc.o(i.ADC_ConversionStop_Disable)
    i.ADC_Enable                             0x08000628   Section        0  stm32f1xx_hal_adc.o(i.ADC_Enable)
    i.BusFault_Handler                       0x080006a4   Section        0  stm32f1xx_it.o(i.BusFault_Handler)
    i.DS1302_ReadByte                        0x080006a8   Section        0  ds1302.o(i.DS1302_ReadByte)
    i.DS1302_ReadTime                        0x08000764   Section        0  ds1302.o(i.DS1302_ReadTime)
    i.DS1302_SetTime                         0x080007f4   Section        0  ds1302.o(i.DS1302_SetTime)
    i.DS1302_WriteByte                       0x080008ac   Section        0  ds1302.o(i.DS1302_WriteByte)
    i.DS18B20ConvertTemperature              0x08000948   Section        0  ds18b20.o(i.DS18B20ConvertTemperature)
    i.DS18B20ReadTemperature                 0x08000966   Section        0  ds18b20.o(i.DS18B20ReadTemperature)
    i.DebugMon_Handler                       0x0800099a   Section        0  stm32f1xx_it.o(i.DebugMon_Handler)
    i.EXTI4_IRQHandler                       0x0800099c   Section        0  stm32f1xx_it.o(i.EXTI4_IRQHandler)
    i.EXTI9_5_IRQHandler                     0x080009a2   Section        0  stm32f1xx_it.o(i.EXTI9_5_IRQHandler)
    i.Error_Handler                          0x080009b4   Section        0  main.o(i.Error_Handler)
    i.Escape_Stop_Mode                       0x080009b8   Section        0  main.o(i.Escape_Stop_Mode)
    i.FreeRTOS_Init                          0x080009d0   Section        0  freertosinit.o(i.FreeRTOS_Init)
    i.HAL_ADC_ConfigChannel                  0x08000c04   Section        0  stm32f1xx_hal_adc.o(i.HAL_ADC_ConfigChannel)
    i.HAL_ADC_GetValue                       0x08000d00   Section        0  stm32f1xx_hal_adc.o(i.HAL_ADC_GetValue)
    i.HAL_ADC_Init                           0x08000d08   Section        0  stm32f1xx_hal_adc.o(i.HAL_ADC_Init)
    i.HAL_ADC_MspInit                        0x08000e24   Section        0  adc.o(i.HAL_ADC_MspInit)
    i.HAL_ADC_Start                          0x08000e7c   Section        0  stm32f1xx_hal_adc.o(i.HAL_ADC_Start)
    i.HAL_GPIO_EXTI_Callback                 0x08000f3c   Section        0  freertosinit.o(i.HAL_GPIO_EXTI_Callback)
    i.HAL_GPIO_EXTI_IRQHandler               0x08000fec   Section        0  stm32f1xx_hal_gpio.o(i.HAL_GPIO_EXTI_IRQHandler)
    i.HAL_GPIO_Init                          0x08001004   Section        0  stm32f1xx_hal_gpio.o(i.HAL_GPIO_Init)
    i.HAL_GPIO_ReadPin                       0x080011e4   Section        0  stm32f1xx_hal_gpio.o(i.HAL_GPIO_ReadPin)
    i.HAL_GPIO_WritePin                      0x080011ee   Section        0  stm32f1xx_hal_gpio.o(i.HAL_GPIO_WritePin)
    i.HAL_GetTick                            0x080011f8   Section        0  stm32f1xx_hal.o(i.HAL_GetTick)
    i.HAL_I2C_Init                           0x08001204   Section        0  stm32f1xx_hal_i2c.o(i.HAL_I2C_Init)
    i.HAL_I2C_Mem_Write                      0x0800138c   Section        0  stm32f1xx_hal_i2c.o(i.HAL_I2C_Mem_Write)
    i.HAL_I2C_MspInit                        0x080014bc   Section        0  i2c.o(i.HAL_I2C_MspInit)
    i.HAL_IncTick                            0x0800152c   Section        0  stm32f1xx_hal.o(i.HAL_IncTick)
    i.HAL_Init                               0x0800153c   Section        0  stm32f1xx_hal.o(i.HAL_Init)
    i.HAL_InitTick                           0x08001560   Section        0  stm32f1xx_hal_timebase_tim.o(i.HAL_InitTick)
    i.HAL_MspInit                            0x080015f8   Section        0  stm32f1xx_hal_msp.o(i.HAL_MspInit)
    i.HAL_NVIC_EnableIRQ                     0x08001640   Section        0  stm32f1xx_hal_cortex.o(i.HAL_NVIC_EnableIRQ)
    i.HAL_NVIC_SetPriority                   0x0800165c   Section        0  stm32f1xx_hal_cortex.o(i.HAL_NVIC_SetPriority)
    i.HAL_NVIC_SetPriorityGrouping           0x0800169c   Section        0  stm32f1xx_hal_cortex.o(i.HAL_NVIC_SetPriorityGrouping)
    i.HAL_PWR_EnterSTOPMode                  0x080016c0   Section        0  stm32f1xx_hal_pwr.o(i.HAL_PWR_EnterSTOPMode)
    i.HAL_RCCEx_PeriphCLKConfig              0x08001704   Section        0  stm32f1xx_hal_rcc_ex.o(i.HAL_RCCEx_PeriphCLKConfig)
    i.HAL_RCC_ClockConfig                    0x080017f0   Section        0  stm32f1xx_hal_rcc.o(i.HAL_RCC_ClockConfig)
    i.HAL_RCC_GetClockConfig                 0x0800191c   Section        0  stm32f1xx_hal_rcc.o(i.HAL_RCC_GetClockConfig)
    i.HAL_RCC_GetPCLK1Freq                   0x0800195c   Section        0  stm32f1xx_hal_rcc.o(i.HAL_RCC_GetPCLK1Freq)
    i.HAL_RCC_GetSysClockFreq                0x0800197c   Section        0  stm32f1xx_hal_rcc.o(i.HAL_RCC_GetSysClockFreq)
    i.HAL_RCC_OscConfig                      0x080019c8   Section        0  stm32f1xx_hal_rcc.o(i.HAL_RCC_OscConfig)
    i.HAL_TIMEx_BreakCallback                0x08001ce8   Section        0  stm32f1xx_hal_tim_ex.o(i.HAL_TIMEx_BreakCallback)
    i.HAL_TIMEx_CommutCallback               0x08001cea   Section        0  stm32f1xx_hal_tim_ex.o(i.HAL_TIMEx_CommutCallback)
    i.HAL_TIM_Base_Init                      0x08001cec   Section        0  stm32f1xx_hal_tim.o(i.HAL_TIM_Base_Init)
    i.HAL_TIM_Base_MspInit                   0x08001d46   Section        0  stm32f1xx_hal_tim.o(i.HAL_TIM_Base_MspInit)
    i.HAL_TIM_Base_Start_IT                  0x08001d48   Section        0  stm32f1xx_hal_tim.o(i.HAL_TIM_Base_Start_IT)
    i.HAL_TIM_IC_CaptureCallback             0x08001da0   Section        0  stm32f1xx_hal_tim.o(i.HAL_TIM_IC_CaptureCallback)
    i.HAL_TIM_IRQHandler                     0x08001da2   Section        0  stm32f1xx_hal_tim.o(i.HAL_TIM_IRQHandler)
    i.HAL_TIM_OC_DelayElapsedCallback        0x08001ed2   Section        0  stm32f1xx_hal_tim.o(i.HAL_TIM_OC_DelayElapsedCallback)
    i.HAL_TIM_PWM_PulseFinishedCallback      0x08001ed4   Section        0  stm32f1xx_hal_tim.o(i.HAL_TIM_PWM_PulseFinishedCallback)
    i.HAL_TIM_PeriodElapsedCallback          0x08001ed8   Section        0  main.o(i.HAL_TIM_PeriodElapsedCallback)
    i.HAL_TIM_TriggerCallback                0x08001eec   Section        0  stm32f1xx_hal_tim.o(i.HAL_TIM_TriggerCallback)
    i.HardFault_Handler                      0x08001ef0   Section        0  stm32f1xx_it.o(i.HardFault_Handler)
    i.I2C_IsAcknowledgeFailed                0x08001f14   Section        0  stm32f1xx_hal_i2c.o(i.I2C_IsAcknowledgeFailed)
    I2C_IsAcknowledgeFailed                  0x08001f15   Thumb Code    46  stm32f1xx_hal_i2c.o(i.I2C_IsAcknowledgeFailed)
    i.I2C_RequestMemoryWrite                 0x08001f44   Section        0  stm32f1xx_hal_i2c.o(i.I2C_RequestMemoryWrite)
    I2C_RequestMemoryWrite                   0x08001f45   Thumb Code   162  stm32f1xx_hal_i2c.o(i.I2C_RequestMemoryWrite)
    i.I2C_WaitOnBTFFlagUntilTimeout          0x08001fec   Section        0  stm32f1xx_hal_i2c.o(i.I2C_WaitOnBTFFlagUntilTimeout)
    I2C_WaitOnBTFFlagUntilTimeout            0x08001fed   Thumb Code    86  stm32f1xx_hal_i2c.o(i.I2C_WaitOnBTFFlagUntilTimeout)
    i.I2C_WaitOnFlagUntilTimeout             0x08002044   Section        0  stm32f1xx_hal_i2c.o(i.I2C_WaitOnFlagUntilTimeout)
    I2C_WaitOnFlagUntilTimeout               0x08002045   Thumb Code   144  stm32f1xx_hal_i2c.o(i.I2C_WaitOnFlagUntilTimeout)
    i.I2C_WaitOnMasterAddressFlagUntilTimeout 0x080020d4   Section        0  stm32f1xx_hal_i2c.o(i.I2C_WaitOnMasterAddressFlagUntilTimeout)
    I2C_WaitOnMasterAddressFlagUntilTimeout  0x080020d5   Thumb Code   188  stm32f1xx_hal_i2c.o(i.I2C_WaitOnMasterAddressFlagUntilTimeout)
    i.I2C_WaitOnTXEFlagUntilTimeout          0x08002190   Section        0  stm32f1xx_hal_i2c.o(i.I2C_WaitOnTXEFlagUntilTimeout)
    I2C_WaitOnTXEFlagUntilTimeout            0x08002191   Thumb Code    86  stm32f1xx_hal_i2c.o(i.I2C_WaitOnTXEFlagUntilTimeout)
    i.MX_ADC1_Init                           0x080021e8   Section        0  adc.o(i.MX_ADC1_Init)
    i.MX_GPIO_Init                           0x08002238   Section        0  gpio.o(i.MX_GPIO_Init)
    i.MX_I2C1_Init                           0x08002338   Section        0  i2c.o(i.MX_I2C1_Init)
    i.MemManage_Handler                      0x08002378   Section        0  stm32f1xx_it.o(i.MemManage_Handler)
    i.NMI_Handler                            0x0800237a   Section        0  stm32f1xx_it.o(i.NMI_Handler)
    i.OLED_Clear                             0x0800237c   Section        0  oled.o(i.OLED_Clear)
    i.OLED_Clear_One_Line                    0x080023b0   Section        0  oled.o(i.OLED_Clear_One_Line)
    i.OLED_Clear_Part                        0x080023d8   Section        0  oled.o(i.OLED_Clear_Part)
    i.OLED_DrawBMP                           0x08002410   Section        0  oled.o(i.OLED_DrawBMP)
    i.OLED_Init                              0x08002458   Section        0  oled.o(i.OLED_Init)
    i.OLED_On                                0x08002478   Section        0  oled.o(i.OLED_On)
    i.OLED_Set_Pos                           0x080024ac   Section        0  oled.o(i.OLED_Set_Pos)
    i.OLED_ShowCHinese                       0x080024d0   Section        0  oled.o(i.OLED_ShowCHinese)
    i.OLED_ShowChar                          0x08002534   Section        0  oled.o(i.OLED_ShowChar)
    i.OLED_ShowNum                           0x080025d0   Section        0  oled.o(i.OLED_ShowNum)
    i.OLED_ShowString                        0x08002644   Section        0  oled.o(i.OLED_ShowString)
    i.OLED_Show_Calender                     0x0800269c   Section        0  oled.o(i.OLED_Show_Calender)
    i.OLED_Showdecimal                       0x0800277c   Section        0  oled.o(i.OLED_Showdecimal)
    i.OLED_Some_HorizontalShift              0x080028a0   Section        0  oled.o(i.OLED_Some_HorizontalShift)
    i.OLED_VerticalAndHorizontalShift        0x080028e2   Section        0  oled.o(i.OLED_VerticalAndHorizontalShift)
    i.OLED_Write_Command                     0x08002928   Section        0  oled.o(i.OLED_Write_Command)
    i.OLED_Write_Data                        0x0800294c   Section        0  oled.o(i.OLED_Write_Data)
    i.OneWireInit                            0x08002970   Section        0  ds18b20.o(i.OneWireInit)
    i.OneWireReceiveByte                     0x080029bc   Section        0  ds18b20.o(i.OneWireReceiveByte)
    i.OneWireReceiveOne                      0x080029e4   Section        0  ds18b20.o(i.OneWireReceiveOne)
    i.OneWireSendByte                        0x08002a2c   Section        0  ds18b20.o(i.OneWireSendByte)
    i.OneWireSendOne                         0x08002a48   Section        0  ds18b20.o(i.OneWireSendOne)
    i.OpenTask                               0x08002a8c   Section        0  open_task.o(i.OpenTask)
    i.PWR_OverloadWfe                        0x08002b6c   Section        0  stm32f1xx_hal_pwr.o(i.PWR_OverloadWfe)
    PWR_OverloadWfe                          0x08002b6d   Thumb Code     6  stm32f1xx_hal_pwr.o(i.PWR_OverloadWfe)
    __tagsym$$noinline                       0x08002b6d   Number         0  stm32f1xx_hal_pwr.o(i.PWR_OverloadWfe)
    i.PendSV_Handler                         0x08002b72   Section        0  stm32f1xx_it.o(i.PendSV_Handler)
    i.SVC_Handler                            0x08002b76   Section        0  stm32f1xx_it.o(i.SVC_Handler)
    i.SetClockTask                           0x08002b7c   Section        0  clock_task.o(i.SetClockTask)
    i.SetSystemTimeTask                      0x08002ecc   Section        0  setsystemtime_task.o(i.SetSystemTimeTask)
    i.ShowCalendarTask                       0x080031c4   Section        0  calendar_task.o(i.ShowCalendarTask)
    i.ShowFlahLightTask                      0x0800323c   Section        0  flashlight_task.o(i.ShowFlahLightTask)
    i.ShowHeartTask                          0x08003298   Section        0  heart_task.o(i.ShowHeartTask)
    i.ShowInformationTask                    0x080032fc   Section        0  information_task.o(i.ShowInformationTask)
    i.ShowMenuTask                           0x08003444   Section        0  menu_task.o(i.ShowMenuTask)
    i.ShowStopwatchTask                      0x0800365c   Section        0  stopwatch_task.o(i.ShowStopwatchTask)
    i.ShowTemperatureTask                    0x080037fc   Section        0  temperature_task.o(i.ShowTemperatureTask)
    i.ShowTimeTask                           0x08003954   Section        0  time_task.o(i.ShowTimeTask)
    i.Stopwatch_Task_CallBack                0x08003c34   Section        0  stopwatch_task.o(i.Stopwatch_Task_CallBack)
    i.SysTick_Handler                        0x08003c74   Section        0  stm32f1xx_it.o(i.SysTick_Handler)
    i.SystemClock_Config                     0x08003c78   Section        0  main.o(i.SystemClock_Config)
    i.SystemInit                             0x08003cf0   Section        0  system_stm32f1xx.o(i.SystemInit)
    i.TIM4_IRQHandler                        0x08003cf4   Section        0  stm32f1xx_it.o(i.TIM4_IRQHandler)
    i.TIM_Base_SetConfig                     0x08003d00   Section        0  stm32f1xx_hal_tim.o(i.TIM_Base_SetConfig)
    i.Time_Task_CallBack                     0x08003d78   Section        0  time_task.o(i.Time_Task_CallBack)
    i.UsageFault_Handler                     0x08003de4   Section        0  stm32f1xx_it.o(i.UsageFault_Handler)
    i.__NVIC_SetPriority                     0x08003de6   Section        0  stm32f1xx_hal_cortex.o(i.__NVIC_SetPriority)
    __NVIC_SetPriority                       0x08003de7   Thumb Code    32  stm32f1xx_hal_cortex.o(i.__NVIC_SetPriority)
    i.__scatterload_copy                     0x08003e06   Section       14  handlers.o(i.__scatterload_copy)
    i.__scatterload_null                     0x08003e14   Section        2  handlers.o(i.__scatterload_null)
    i.__scatterload_zeroinit                 0x08003e16   Section       14  handlers.o(i.__scatterload_zeroinit)
    i.buzzer_function                        0x08003e24   Section        0  buzzer.o(i.buzzer_function)
    i.dayOfWeek                              0x08003e50   Section        0  oled.o(i.dayOfWeek)
    i.daysInMonth                            0x08003ea4   Section        0  oled.o(i.daysInMonth)
    i.delay_ms                               0x08003ee0   Section        0  delay.o(i.delay_ms)
    i.delay_us                               0x08003efc   Section        0  delay.o(i.delay_us)
    i.ds1302_io_work                         0x08003f34   Section        0  ds1302.o(i.ds1302_io_work)
    i.eTaskConfirmSleepModeStatus            0x08003f94   Section        0  tasks.o(i.eTaskConfirmSleepModeStatus)
    i.main                                   0x08003fc8   Section        0  main.o(i.main)
    i.oled_pow                               0x08003fea   Section        0  oled.o(i.oled_pow)
    i.prvAddCurrentTaskToDelayedList         0x08003ffc   Section        0  tasks.o(i.prvAddCurrentTaskToDelayedList)
    prvAddCurrentTaskToDelayedList           0x08003ffd   Thumb Code   128  tasks.o(i.prvAddCurrentTaskToDelayedList)
    i.prvAddNewTaskToReadyList               0x08004084   Section        0  tasks.o(i.prvAddNewTaskToReadyList)
    prvAddNewTaskToReadyList                 0x08004085   Thumb Code   226  tasks.o(i.prvAddNewTaskToReadyList)
    i.prvCheckForValidListAndQueue           0x08004174   Section        0  timers.o(i.prvCheckForValidListAndQueue)
    prvCheckForValidListAndQueue             0x08004175   Thumb Code    62  timers.o(i.prvCheckForValidListAndQueue)
    i.prvCopyDataFromQueue                   0x080041c4   Section        0  queue.o(i.prvCopyDataFromQueue)
    prvCopyDataFromQueue                     0x080041c5   Thumb Code    38  queue.o(i.prvCopyDataFromQueue)
    i.prvCopyDataToQueue                     0x080041ea   Section        0  queue.o(i.prvCopyDataToQueue)
    prvCopyDataToQueue                       0x080041eb   Thumb Code   108  queue.o(i.prvCopyDataToQueue)
    i.prvDeleteTCB                           0x08004256   Section        0  tasks.o(i.prvDeleteTCB)
    prvDeleteTCB                             0x08004257   Thumb Code    20  tasks.o(i.prvDeleteTCB)
    i.prvGetExpectedIdleTime                 0x0800426c   Section        0  tasks.o(i.prvGetExpectedIdleTime)
    prvGetExpectedIdleTime                   0x0800426d   Thumb Code    42  tasks.o(i.prvGetExpectedIdleTime)
    i.prvHeapInit                            0x080042a0   Section        0  heap_4.o(i.prvHeapInit)
    prvHeapInit                              0x080042a1   Thumb Code    60  heap_4.o(i.prvHeapInit)
    i.prvIdleTask                            0x080042e4   Section        0  tasks.o(i.prvIdleTask)
    prvIdleTask                              0x080042e5   Thumb Code   106  tasks.o(i.prvIdleTask)
    i.prvInitialiseNewTask                   0x0800435c   Section        0  tasks.o(i.prvInitialiseNewTask)
    prvInitialiseNewTask                     0x0800435d   Thumb Code   132  tasks.o(i.prvInitialiseNewTask)
    i.prvInsertBlockIntoFreeList             0x080043e0   Section        0  heap_4.o(i.prvInsertBlockIntoFreeList)
    prvInsertBlockIntoFreeList               0x080043e1   Thumb Code    72  heap_4.o(i.prvInsertBlockIntoFreeList)
    i.prvInsertTimerInActiveList             0x0800442c   Section        0  timers.o(i.prvInsertTimerInActiveList)
    prvInsertTimerInActiveList               0x0800442d   Thumb Code    52  timers.o(i.prvInsertTimerInActiveList)
    i.prvIsQueueEmpty                        0x08004464   Section        0  queue.o(i.prvIsQueueEmpty)
    prvIsQueueEmpty                          0x08004465   Thumb Code    28  queue.o(i.prvIsQueueEmpty)
    i.prvProcessExpiredTimer                 0x08004480   Section        0  timers.o(i.prvProcessExpiredTimer)
    prvProcessExpiredTimer                   0x08004481   Thumb Code    58  timers.o(i.prvProcessExpiredTimer)
    i.prvProcessReceivedCommands             0x080044c0   Section        0  timers.o(i.prvProcessReceivedCommands)
    prvProcessReceivedCommands               0x080044c1   Thumb Code   222  timers.o(i.prvProcessReceivedCommands)
    i.prvProcessTimerOrBlockTask             0x080045a4   Section        0  timers.o(i.prvProcessTimerOrBlockTask)
    prvProcessTimerOrBlockTask               0x080045a5   Thumb Code    98  timers.o(i.prvProcessTimerOrBlockTask)
    i.prvReloadTimer                         0x08004610   Section        0  timers.o(i.prvReloadTimer)
    prvReloadTimer                           0x08004611   Thumb Code    40  timers.o(i.prvReloadTimer)
    i.prvResetNextTaskUnblockTime            0x08004638   Section        0  tasks.o(i.prvResetNextTaskUnblockTime)
    prvResetNextTaskUnblockTime              0x08004639   Thumb Code    24  tasks.o(i.prvResetNextTaskUnblockTime)
    i.prvSampleTimeNow                       0x08004654   Section        0  timers.o(i.prvSampleTimeNow)
    prvSampleTimeNow                         0x08004655   Thumb Code    66  timers.o(i.prvSampleTimeNow)
    i.prvTaskExitError                       0x0800469c   Section        0  port.o(i.prvTaskExitError)
    prvTaskExitError                         0x0800469d   Thumb Code    16  port.o(i.prvTaskExitError)
    i.prvTaskIsTaskSuspended                 0x080046ac   Section        0  tasks.o(i.prvTaskIsTaskSuspended)
    prvTaskIsTaskSuspended                   0x080046ad   Thumb Code    28  tasks.o(i.prvTaskIsTaskSuspended)
    i.prvTimerTask                           0x080046cc   Section        0  timers.o(i.prvTimerTask)
    prvTimerTask                             0x080046cd   Thumb Code    32  timers.o(i.prvTimerTask)
    i.prvUnlockQueue                         0x080046f0   Section        0  queue.o(i.prvUnlockQueue)
    prvUnlockQueue                           0x080046f1   Thumb Code   106  queue.o(i.prvUnlockQueue)
    i.pvPortMalloc                           0x0800475c   Section        0  heap_4.o(i.pvPortMalloc)
    i.pvTaskIncrementMutexHeldCount          0x080047f4   Section        0  tasks.o(i.pvTaskIncrementMutexHeldCount)
    i.pxPortInitialiseStack                  0x0800480c   Section        0  port.o(i.pxPortInitialiseStack)
    i.uxListRemove                           0x08004830   Section        0  list.o(i.uxListRemove)
    i.uxTaskGetNumberOfTasks                 0x08004858   Section        0  tasks.o(i.uxTaskGetNumberOfTasks)
    i.vListInitialise                        0x08004864   Section        0  list.o(i.vListInitialise)
    i.vListInitialiseItem                    0x0800487a   Section        0  list.o(i.vListInitialiseItem)
    i.vListInsert                            0x08004880   Section        0  list.o(i.vListInsert)
    i.vListInsertEnd                         0x080048b0   Section        0  list.o(i.vListInsertEnd)
    i.vPortEnterCritical                     0x080048c8   Section        0  port.o(i.vPortEnterCritical)
    i.vPortExitCritical                      0x080048e4   Section        0  port.o(i.vPortExitCritical)
    i.vPortFree                              0x080048f8   Section        0  heap_4.o(i.vPortFree)
    i.vPortSetupTimerInterrupt               0x0800493c   Section        0  port.o(i.vPortSetupTimerInterrupt)
    i.vPortSuppressTicksAndSleep             0x08004970   Section        0  port.o(i.vPortSuppressTicksAndSleep)
    i.vQueueAddToRegistry                    0x08004a48   Section        0  queue.o(i.vQueueAddToRegistry)
    i.vQueueWaitForMessageRestricted         0x08004a84   Section        0  queue.o(i.vQueueWaitForMessageRestricted)
    i.vTaskDelay                             0x08004ac8   Section        0  tasks.o(i.vTaskDelay)
    i.vTaskDelete                            0x08004af8   Section        0  tasks.o(i.vTaskDelete)
    i.vTaskInternalSetTimeOutState           0x08004b94   Section        0  tasks.o(i.vTaskInternalSetTimeOutState)
    i.vTaskMissedYield                       0x08004ba4   Section        0  tasks.o(i.vTaskMissedYield)
    i.vTaskPlaceOnEventList                  0x08004bb0   Section        0  tasks.o(i.vTaskPlaceOnEventList)
    i.vTaskPlaceOnEventListRestricted        0x08004bd0   Section        0  tasks.o(i.vTaskPlaceOnEventListRestricted)
    i.vTaskPriorityDisinheritAfterTimeout    0x08004c10   Section        0  tasks.o(i.vTaskPriorityDisinheritAfterTimeout)
    i.vTaskResume                            0x08004cac   Section        0  tasks.o(i.vTaskResume)
    i.vTaskStartScheduler                    0x08004d40   Section        0  tasks.o(i.vTaskStartScheduler)
    i.vTaskStepTick                          0x08004d98   Section        0  tasks.o(i.vTaskStepTick)
    i.vTaskSuspend                           0x08004dc4   Section        0  tasks.o(i.vTaskSuspend)
    i.vTaskSuspendAll                        0x08004e6c   Section        0  tasks.o(i.vTaskSuspendAll)
    i.vTaskSwitchContext                     0x08004e7c   Section        0  tasks.o(i.vTaskSwitchContext)
    i.xPortStartScheduler                    0x08004ec0   Section        0  port.o(i.xPortStartScheduler)
    i.xPortSysTickHandler                    0x08004ef0   Section        0  port.o(i.xPortSysTickHandler)
    i.xQueueCreateMutex                      0x08004f1c   Section        0  queue.o(i.xQueueCreateMutex)
    i.xQueueGenericCreate                    0x08004f40   Section        0  queue.o(i.xQueueGenericCreate)
    i.xQueueGenericReset                     0x08004f88   Section        0  queue.o(i.xQueueGenericReset)
    i.xQueueGenericSend                      0x0800501c   Section        0  queue.o(i.xQueueGenericSend)
    i.xQueueGenericSendFromISR               0x08005114   Section        0  queue.o(i.xQueueGenericSendFromISR)
    i.xQueueReceive                          0x08005184   Section        0  queue.o(i.xQueueReceive)
    i.xQueueSemaphoreTake                    0x08005274   Section        0  queue.o(i.xQueueSemaphoreTake)
    i.xTaskCheckForTimeOut                   0x0800539c   Section        0  tasks.o(i.xTaskCheckForTimeOut)
    i.xTaskCreate                            0x080053f4   Section        0  tasks.o(i.xTaskCreate)
    i.xTaskGetSchedulerState                 0x08005450   Section        0  tasks.o(i.xTaskGetSchedulerState)
    i.xTaskGetTickCount                      0x0800546c   Section        0  tasks.o(i.xTaskGetTickCount)
    i.xTaskIncrementTick                     0x08005478   Section        0  tasks.o(i.xTaskIncrementTick)
    i.xTaskPriorityDisinherit                0x0800559c   Section        0  tasks.o(i.xTaskPriorityDisinherit)
    i.xTaskPriorityInherit                   0x08005628   Section        0  tasks.o(i.xTaskPriorityInherit)
    i.xTaskRemoveFromEventList               0x080056d8   Section        0  tasks.o(i.xTaskRemoveFromEventList)
    i.xTaskResumeAll                         0x080057a4   Section        0  tasks.o(i.xTaskResumeAll)
    i.xTimerCreate                           0x080058bc   Section        0  timers.o(i.xTimerCreate)
    i.xTimerCreateTimerTask                  0x08005908   Section        0  timers.o(i.xTimerCreateTimerTask)
    i.xTimerGenericCommand                   0x08005944   Section        0  timers.o(i.xTimerGenericCommand)
    .constdata                               0x08005994   Section      552  oledfont.o(.constdata)
    .constdata                               0x08005bbc   Section     1504  oledfont.o(.constdata)
    .constdata                               0x0800619c   Section      960  oledfont.o(.constdata)
    .constdata                               0x0800655c   Section      253  oledfont.o(.constdata)
    .constdata                               0x08006659   Section       16  oledfont.o(.constdata)
    .constdata                               0x08006669   Section        8  oledfont.o(.constdata)
    .constdata                               0x08006671   Section      704  oledfont.o(.constdata)
    .constdata                               0x08006931   Section     8192  oledfont.o(.constdata)
    .constdata                               0x08008931   Section     1024  oledfont.o(.constdata)
    .constdata                               0x08008d31   Section       18  stm32f1xx_hal_rcc.o(.constdata)
    aPredivFactorTable                       0x08008d31   Data           2  stm32f1xx_hal_rcc.o(.constdata)
    aPLLMULFactorTable                       0x08008d33   Data          16  stm32f1xx_hal_rcc.o(.constdata)
    .constdata                               0x08008d43   Section       16  system_stm32f1xx.o(.constdata)
    .constdata                               0x08008d53   Section        8  system_stm32f1xx.o(.constdata)
    .conststring                             0x08008d5c   Section      207  oledfont.o(.conststring)
    .data                                    0x20000000   Section       28  heap_4.o(.data)
    pxEnd                                    0x20000000   Data           4  heap_4.o(.data)
    xFreeBytesRemaining                      0x20000004   Data           4  heap_4.o(.data)
    xMinimumEverFreeBytesRemaining           0x20000008   Data           4  heap_4.o(.data)
    xNumberOfSuccessfulAllocations           0x2000000c   Data           4  heap_4.o(.data)
    xNumberOfSuccessfulFrees                 0x20000010   Data           4  heap_4.o(.data)
    xStart                                   0x20000014   Data           8  heap_4.o(.data)
    .data                                    0x2000001c   Section       16  port.o(.data)
    uxCriticalNesting                        0x2000001c   Data           4  port.o(.data)
    ulTimerCountsForOneTick                  0x20000020   Data           4  port.o(.data)
    xMaximumPossibleSuppressedTicks          0x20000024   Data           4  port.o(.data)
    ulStoppedTimerCompensation               0x20000028   Data           4  port.o(.data)
    .data                                    0x2000002c   Section       64  tasks.o(.data)
    uxDeletedTasksWaitingCleanUp             0x20000030   Data           4  tasks.o(.data)
    uxCurrentNumberOfTasks                   0x20000034   Data           4  tasks.o(.data)
    xTickCount                               0x20000038   Data           4  tasks.o(.data)
    uxTopReadyPriority                       0x2000003c   Data           4  tasks.o(.data)
    xSchedulerRunning                        0x20000040   Data           4  tasks.o(.data)
    xPendedTicks                             0x20000044   Data           4  tasks.o(.data)
    xYieldPending                            0x20000048   Data           4  tasks.o(.data)
    xNumOfOverflows                          0x2000004c   Data           4  tasks.o(.data)
    uxTaskNumber                             0x20000050   Data           4  tasks.o(.data)
    xNextTaskUnblockTime                     0x20000054   Data           4  tasks.o(.data)
    xIdleTaskHandle                          0x20000058   Data           4  tasks.o(.data)
    uxSchedulerSuspended                     0x20000060   Data           4  tasks.o(.data)
    pxDelayedTaskList                        0x20000064   Data           4  tasks.o(.data)
    pxOverflowDelayedTaskList                0x20000068   Data           4  tasks.o(.data)
    .data                                    0x2000006c   Section       20  timers.o(.data)
    xTimerQueue                              0x2000006c   Data           4  timers.o(.data)
    xTimerTaskHandle                         0x20000070   Data           4  timers.o(.data)
    xLastTime                                0x20000074   Data           4  timers.o(.data)
    pxCurrentTimerList                       0x20000078   Data           4  timers.o(.data)
    pxOverflowTimerList                      0x2000007c   Data           4  timers.o(.data)
    .data                                    0x20000080   Section       72  oled.o(.data)
    days                                     0x20000098   Data          48  oled.o(.data)
    .data                                    0x200000c8   Section       48  oledfont.o(.data)
    .data                                    0x200000f8   Section       10  time_task.o(.data)
    .data                                    0x20000102   Section        1  time_task.o(.data)
    .data                                    0x20000103   Section        4  stopwatch_task.o(.data)
    .data                                    0x20000107   Section        1  clock_task.o(.data)
    .data                                    0x20000108   Section       68  freertosinit.o(.data)
    .data                                    0x2000014c   Section       12  stm32f1xx_hal.o(.data)
    .data                                    0x20000158   Section        4  system_stm32f1xx.o(.data)
    .bss                                     0x2000015c   Section    12288  heap_4.o(.bss)
    ucHeap                                   0x2000015c   Data       12288  heap_4.o(.bss)
    .bss                                     0x2000315c   Section       64  queue.o(.bss)
    .bss                                     0x2000319c   Section      200  tasks.o(.bss)
    pxReadyTasksLists                        0x2000319c   Data         100  tasks.o(.bss)
    xDelayedTaskList1                        0x20003200   Data          20  tasks.o(.bss)
    xDelayedTaskList2                        0x20003214   Data          20  tasks.o(.bss)
    xPendingReadyList                        0x20003228   Data          20  tasks.o(.bss)
    xTasksWaitingTermination                 0x2000323c   Data          20  tasks.o(.bss)
    xSuspendedTaskList                       0x20003250   Data          20  tasks.o(.bss)
    .bss                                     0x20003264   Section       40  timers.o(.bss)
    xActiveTimerList1                        0x20003264   Data          20  timers.o(.bss)
    xActiveTimerList2                        0x20003278   Data          20  timers.o(.bss)
    .bss                                     0x2000328c   Section       24  clock_task.o(.bss)
    .bss                                     0x200032a4   Section       48  adc.o(.bss)
    .bss                                     0x200032d4   Section       84  i2c.o(.bss)
    .bss                                     0x20003328   Section       72  stm32f1xx_hal_timebase_tim.o(.bss)
    STACK                                    0x20003370   Section     1024  startup_stm32f103xb.o(STACK)

    Global Symbols

    Symbol Name                              Value     Ov Type        Size  Object(Section)

    BuildAttributes$$THM_ISAv4$P$D$K$B$S$PE$A:L22UL41UL21$X:L11$S22US41US21$IEEE1$IW$USESV6$~STKCKD$USESV7$~SHL$OTIME$ROPI$EBA8$MICROLIB$REQ8$PRES8$EABIv2 0x00000000   Number         0  anon$$obj.o ABSOLUTE
    __ARM_use_no_argv                        0x00000000   Number         0  main.o ABSOLUTE
    __cpp_initialize__aeabi_                  - Undefined Weak Reference
    __cxa_finalize                            - Undefined Weak Reference
    _clock_init                               - Undefined Weak Reference
    _microlib_exit                            - Undefined Weak Reference
    __Vectors_Size                           0x000000ec   Number         0  startup_stm32f103xb.o ABSOLUTE
    __Vectors                                0x08000000   Data           4  startup_stm32f103xb.o(RESET)
    __Vectors_End                            0x080000ec   Data           0  startup_stm32f103xb.o(RESET)
    __main                                   0x080000ed   Thumb Code     0  entry.o(.ARM.Collect$$$$00000000)
    _main_stk                                0x080000ed   Thumb Code     0  entry2.o(.ARM.Collect$$$$00000001)
    _main_scatterload                        0x080000f1   Thumb Code     0  entry5.o(.ARM.Collect$$$$00000004)
    __main_after_scatterload                 0x080000f5   Thumb Code     0  entry5.o(.ARM.Collect$$$$00000004)
    _main_clock                              0x080000f5   Thumb Code     0  entry7b.o(.ARM.Collect$$$$00000008)
    _main_cpp_init                           0x080000f5   Thumb Code     0  entry8b.o(.ARM.Collect$$$$0000000A)
    _main_init                               0x080000f5   Thumb Code     0  entry9a.o(.ARM.Collect$$$$0000000B)
    __rt_final_cpp                           0x080000fd   Thumb Code     0  entry10a.o(.ARM.Collect$$$$0000000D)
    __rt_final_exit                          0x080000fd   Thumb Code     0  entry11a.o(.ARM.Collect$$$$0000000F)
    vPortSVCHandler                          0x08000101   Thumb Code    32  port.o(.emb_text)
    __asm___6_port_c_39a90d8d__prvStartFirstTask 0x08000125   Thumb Code    28  port.o(.emb_text)
    xPortPendSVHandler                       0x08000145   Thumb Code    72  port.o(.emb_text)
    vPortGetIPSR                             0x08000191   Thumb Code     6  port.o(.emb_text)
    Reset_Handler                            0x08000199   Thumb Code     8  startup_stm32f103xb.o(.text)
    ADC1_2_IRQHandler                        0x080001b3   Thumb Code     0  startup_stm32f103xb.o(.text)
    CAN1_RX1_IRQHandler                      0x080001b3   Thumb Code     0  startup_stm32f103xb.o(.text)
    CAN1_SCE_IRQHandler                      0x080001b3   Thumb Code     0  startup_stm32f103xb.o(.text)
    DMA1_Channel1_IRQHandler                 0x080001b3   Thumb Code     0  startup_stm32f103xb.o(.text)
    DMA1_Channel2_IRQHandler                 0x080001b3   Thumb Code     0  startup_stm32f103xb.o(.text)
    DMA1_Channel3_IRQHandler                 0x080001b3   Thumb Code     0  startup_stm32f103xb.o(.text)
    DMA1_Channel4_IRQHandler                 0x080001b3   Thumb Code     0  startup_stm32f103xb.o(.text)
    DMA1_Channel5_IRQHandler                 0x080001b3   Thumb Code     0  startup_stm32f103xb.o(.text)
    DMA1_Channel6_IRQHandler                 0x080001b3   Thumb Code     0  startup_stm32f103xb.o(.text)
    DMA1_Channel7_IRQHandler                 0x080001b3   Thumb Code     0  startup_stm32f103xb.o(.text)
    EXTI0_IRQHandler                         0x080001b3   Thumb Code     0  startup_stm32f103xb.o(.text)
    EXTI15_10_IRQHandler                     0x080001b3   Thumb Code     0  startup_stm32f103xb.o(.text)
    EXTI1_IRQHandler                         0x080001b3   Thumb Code     0  startup_stm32f103xb.o(.text)
    EXTI2_IRQHandler                         0x080001b3   Thumb Code     0  startup_stm32f103xb.o(.text)
    EXTI3_IRQHandler                         0x080001b3   Thumb Code     0  startup_stm32f103xb.o(.text)
    FLASH_IRQHandler                         0x080001b3   Thumb Code     0  startup_stm32f103xb.o(.text)
    I2C1_ER_IRQHandler                       0x080001b3   Thumb Code     0  startup_stm32f103xb.o(.text)
    I2C1_EV_IRQHandler                       0x080001b3   Thumb Code     0  startup_stm32f103xb.o(.text)
    I2C2_ER_IRQHandler                       0x080001b3   Thumb Code     0  startup_stm32f103xb.o(.text)
    I2C2_EV_IRQHandler                       0x080001b3   Thumb Code     0  startup_stm32f103xb.o(.text)
    PVD_IRQHandler                           0x080001b3   Thumb Code     0  startup_stm32f103xb.o(.text)
    RCC_IRQHandler                           0x080001b3   Thumb Code     0  startup_stm32f103xb.o(.text)
    RTC_Alarm_IRQHandler                     0x080001b3   Thumb Code     0  startup_stm32f103xb.o(.text)
    RTC_IRQHandler                           0x080001b3   Thumb Code     0  startup_stm32f103xb.o(.text)
    SPI1_IRQHandler                          0x080001b3   Thumb Code     0  startup_stm32f103xb.o(.text)
    SPI2_IRQHandler                          0x080001b3   Thumb Code     0  startup_stm32f103xb.o(.text)
    TAMPER_IRQHandler                        0x080001b3   Thumb Code     0  startup_stm32f103xb.o(.text)
    TIM1_BRK_IRQHandler                      0x080001b3   Thumb Code     0  startup_stm32f103xb.o(.text)
    TIM1_CC_IRQHandler                       0x080001b3   Thumb Code     0  startup_stm32f103xb.o(.text)
    TIM1_TRG_COM_IRQHandler                  0x080001b3   Thumb Code     0  startup_stm32f103xb.o(.text)
    TIM1_UP_IRQHandler                       0x080001b3   Thumb Code     0  startup_stm32f103xb.o(.text)
    TIM2_IRQHandler                          0x080001b3   Thumb Code     0  startup_stm32f103xb.o(.text)
    TIM3_IRQHandler                          0x080001b3   Thumb Code     0  startup_stm32f103xb.o(.text)
    USART1_IRQHandler                        0x080001b3   Thumb Code     0  startup_stm32f103xb.o(.text)
    USART2_IRQHandler                        0x080001b3   Thumb Code     0  startup_stm32f103xb.o(.text)
    USART3_IRQHandler                        0x080001b3   Thumb Code     0  startup_stm32f103xb.o(.text)
    USBWakeUp_IRQHandler                     0x080001b3   Thumb Code     0  startup_stm32f103xb.o(.text)
    USB_HP_CAN1_TX_IRQHandler                0x080001b3   Thumb Code     0  startup_stm32f103xb.o(.text)
    USB_LP_CAN1_RX0_IRQHandler               0x080001b3   Thumb Code     0  startup_stm32f103xb.o(.text)
    WWDG_IRQHandler                          0x080001b3   Thumb Code     0  startup_stm32f103xb.o(.text)
    __aeabi_llsr                             0x080001bd   Thumb Code    32  llushr.o(.text)
    _ll_ushift_r                             0x080001bd   Thumb Code     0  llushr.o(.text)
    __aeabi_memcpy                           0x080001dd   Thumb Code    36  memcpya.o(.text)
    __aeabi_memcpy4                          0x080001dd   Thumb Code     0  memcpya.o(.text)
    __aeabi_memcpy8                          0x080001dd   Thumb Code     0  memcpya.o(.text)
    __aeabi_memset                           0x08000201   Thumb Code    14  memseta.o(.text)
    __aeabi_memset4                          0x08000201   Thumb Code     0  memseta.o(.text)
    __aeabi_memset8                          0x08000201   Thumb Code     0  memseta.o(.text)
    __aeabi_memclr                           0x0800020f   Thumb Code     4  memseta.o(.text)
    __aeabi_memclr4                          0x0800020f   Thumb Code     0  memseta.o(.text)
    __aeabi_memclr8                          0x0800020f   Thumb Code     0  memseta.o(.text)
    _memset$wrapper                          0x08000213   Thumb Code    18  memseta.o(.text)
    __aeabi_fadd                             0x08000225   Thumb Code   164  fadd.o(.text)
    __aeabi_fsub                             0x080002c9   Thumb Code     6  fadd.o(.text)
    __aeabi_frsub                            0x080002cf   Thumb Code     6  fadd.o(.text)
    __aeabi_fmul                             0x080002d5   Thumb Code   100  fmul.o(.text)
    __ARM_scalbn                             0x08000339   Thumb Code    46  dscalb.o(.text)
    scalbn                                   0x08000339   Thumb Code     0  dscalb.o(.text)
    __aeabi_i2f                              0x08000367   Thumb Code    18  fflti.o(.text)
    __aeabi_ui2f                             0x08000379   Thumb Code    10  ffltui.o(.text)
    __aeabi_i2d                              0x08000383   Thumb Code    34  dflti.o(.text)
    __aeabi_f2iz                             0x080003a5   Thumb Code    50  ffixi.o(.text)
    __aeabi_d2f                              0x080003d7   Thumb Code    56  d2f.o(.text)
    __I$use$fp                               0x0800040f   Thumb Code     0  iusefp.o(.text)
    _float_round                             0x0800040f   Thumb Code    18  fepilogue.o(.text)
    _float_epilogue                          0x08000421   Thumb Code    92  fepilogue.o(.text)
    _double_round                            0x0800047d   Thumb Code    30  depilogue.o(.text)
    _double_epilogue                         0x0800049b   Thumb Code   156  depilogue.o(.text)
    __scatterload                            0x08000539   Thumb Code    28  init.o(.text)
    __scatterload_rt2                        0x08000539   Thumb Code     0  init.o(.text)
    __aeabi_llsl                             0x0800055d   Thumb Code    30  llshl.o(.text)
    _ll_shift_l                              0x0800055d   Thumb Code     0  llshl.o(.text)
    __decompress                             0x0800057b   Thumb Code     0  __dczerorl2.o(.text)
    __decompress1                            0x0800057b   Thumb Code    86  __dczerorl2.o(.text)
    ADC_ConversionStop_Disable               0x080005d1   Thumb Code    86  stm32f1xx_hal_adc.o(i.ADC_ConversionStop_Disable)
    ADC_Enable                               0x08000629   Thumb Code   114  stm32f1xx_hal_adc.o(i.ADC_Enable)
    BusFault_Handler                         0x080006a5   Thumb Code     2  stm32f1xx_it.o(i.BusFault_Handler)
    DS1302_ReadByte                          0x080006a9   Thumb Code   180  ds1302.o(i.DS1302_ReadByte)
    DS1302_ReadTime                          0x08000765   Thumb Code   138  ds1302.o(i.DS1302_ReadTime)
    DS1302_SetTime                           0x080007f5   Thumb Code   182  ds1302.o(i.DS1302_SetTime)
    DS1302_WriteByte                         0x080008ad   Thumb Code   148  ds1302.o(i.DS1302_WriteByte)
    DS18B20ConvertTemperature                0x08000949   Thumb Code    30  ds18b20.o(i.DS18B20ConvertTemperature)
    DS18B20ReadTemperature                   0x08000967   Thumb Code    52  ds18b20.o(i.DS18B20ReadTemperature)
    DebugMon_Handler                         0x0800099b   Thumb Code     2  stm32f1xx_it.o(i.DebugMon_Handler)
    EXTI4_IRQHandler                         0x0800099d   Thumb Code     6  stm32f1xx_it.o(i.EXTI4_IRQHandler)
    EXTI9_5_IRQHandler                       0x080009a3   Thumb Code    18  stm32f1xx_it.o(i.EXTI9_5_IRQHandler)
    Error_Handler                            0x080009b5   Thumb Code     4  main.o(i.Error_Handler)
    Escape_Stop_Mode                         0x080009b9   Thumb Code    22  main.o(i.Escape_Stop_Mode)
    FreeRTOS_Init                            0x080009d1   Thumb Code   320  freertosinit.o(i.FreeRTOS_Init)
    HAL_ADC_ConfigChannel                    0x08000c05   Thumb Code   240  stm32f1xx_hal_adc.o(i.HAL_ADC_ConfigChannel)
    HAL_ADC_GetValue                         0x08000d01   Thumb Code     6  stm32f1xx_hal_adc.o(i.HAL_ADC_GetValue)
    HAL_ADC_Init                             0x08000d09   Thumb Code   272  stm32f1xx_hal_adc.o(i.HAL_ADC_Init)
    HAL_ADC_MspInit                          0x08000e25   Thumb Code    76  adc.o(i.HAL_ADC_MspInit)
    HAL_ADC_Start                            0x08000e7d   Thumb Code   184  stm32f1xx_hal_adc.o(i.HAL_ADC_Start)
    HAL_GPIO_EXTI_Callback                   0x08000f3d   Thumb Code   164  freertosinit.o(i.HAL_GPIO_EXTI_Callback)
    HAL_GPIO_EXTI_IRQHandler                 0x08000fed   Thumb Code    18  stm32f1xx_hal_gpio.o(i.HAL_GPIO_EXTI_IRQHandler)
    HAL_GPIO_Init                            0x08001005   Thumb Code   446  stm32f1xx_hal_gpio.o(i.HAL_GPIO_Init)
    HAL_GPIO_ReadPin                         0x080011e5   Thumb Code    10  stm32f1xx_hal_gpio.o(i.HAL_GPIO_ReadPin)
    HAL_GPIO_WritePin                        0x080011ef   Thumb Code    10  stm32f1xx_hal_gpio.o(i.HAL_GPIO_WritePin)
    HAL_GetTick                              0x080011f9   Thumb Code     6  stm32f1xx_hal.o(i.HAL_GetTick)
    HAL_I2C_Init                             0x08001205   Thumb Code   376  stm32f1xx_hal_i2c.o(i.HAL_I2C_Init)
    HAL_I2C_Mem_Write                        0x0800138d   Thumb Code   294  stm32f1xx_hal_i2c.o(i.HAL_I2C_Mem_Write)
    HAL_I2C_MspInit                          0x080014bd   Thumb Code    96  i2c.o(i.HAL_I2C_MspInit)
    HAL_IncTick                              0x0800152d   Thumb Code    12  stm32f1xx_hal.o(i.HAL_IncTick)
    HAL_Init                                 0x0800153d   Thumb Code    32  stm32f1xx_hal.o(i.HAL_Init)
    HAL_InitTick                             0x08001561   Thumb Code   132  stm32f1xx_hal_timebase_tim.o(i.HAL_InitTick)
    HAL_MspInit                              0x080015f9   Thumb Code    62  stm32f1xx_hal_msp.o(i.HAL_MspInit)
    HAL_NVIC_EnableIRQ                       0x08001641   Thumb Code    26  stm32f1xx_hal_cortex.o(i.HAL_NVIC_EnableIRQ)
    HAL_NVIC_SetPriority                     0x0800165d   Thumb Code    60  stm32f1xx_hal_cortex.o(i.HAL_NVIC_SetPriority)
    HAL_NVIC_SetPriorityGrouping             0x0800169d   Thumb Code    26  stm32f1xx_hal_cortex.o(i.HAL_NVIC_SetPriorityGrouping)
    HAL_PWR_EnterSTOPMode                    0x080016c1   Thumb Code    60  stm32f1xx_hal_pwr.o(i.HAL_PWR_EnterSTOPMode)
    HAL_RCCEx_PeriphCLKConfig                0x08001705   Thumb Code   224  stm32f1xx_hal_rcc_ex.o(i.HAL_RCCEx_PeriphCLKConfig)
    HAL_RCC_ClockConfig                      0x080017f1   Thumb Code   280  stm32f1xx_hal_rcc.o(i.HAL_RCC_ClockConfig)
    HAL_RCC_GetClockConfig                   0x0800191d   Thumb Code    54  stm32f1xx_hal_rcc.o(i.HAL_RCC_GetClockConfig)
    HAL_RCC_GetPCLK1Freq                     0x0800195d   Thumb Code    20  stm32f1xx_hal_rcc.o(i.HAL_RCC_GetPCLK1Freq)
    HAL_RCC_GetSysClockFreq                  0x0800197d   Thumb Code    58  stm32f1xx_hal_rcc.o(i.HAL_RCC_GetSysClockFreq)
    HAL_RCC_OscConfig                        0x080019c9   Thumb Code   778  stm32f1xx_hal_rcc.o(i.HAL_RCC_OscConfig)
    HAL_TIMEx_BreakCallback                  0x08001ce9   Thumb Code     2  stm32f1xx_hal_tim_ex.o(i.HAL_TIMEx_BreakCallback)
    HAL_TIMEx_CommutCallback                 0x08001ceb   Thumb Code     2  stm32f1xx_hal_tim_ex.o(i.HAL_TIMEx_CommutCallback)
    HAL_TIM_Base_Init                        0x08001ced   Thumb Code    90  stm32f1xx_hal_tim.o(i.HAL_TIM_Base_Init)
    HAL_TIM_Base_MspInit                     0x08001d47   Thumb Code     2  stm32f1xx_hal_tim.o(i.HAL_TIM_Base_MspInit)
    HAL_TIM_Base_Start_IT                    0x08001d49   Thumb Code    76  stm32f1xx_hal_tim.o(i.HAL_TIM_Base_Start_IT)
    HAL_TIM_IC_CaptureCallback               0x08001da1   Thumb Code     2  stm32f1xx_hal_tim.o(i.HAL_TIM_IC_CaptureCallback)
    HAL_TIM_IRQHandler                       0x08001da3   Thumb Code   304  stm32f1xx_hal_tim.o(i.HAL_TIM_IRQHandler)
    HAL_TIM_OC_DelayElapsedCallback          0x08001ed3   Thumb Code     2  stm32f1xx_hal_tim.o(i.HAL_TIM_OC_DelayElapsedCallback)
    HAL_TIM_PWM_PulseFinishedCallback        0x08001ed5   Thumb Code     2  stm32f1xx_hal_tim.o(i.HAL_TIM_PWM_PulseFinishedCallback)
    HAL_TIM_PeriodElapsedCallback            0x08001ed9   Thumb Code    14  main.o(i.HAL_TIM_PeriodElapsedCallback)
    HAL_TIM_TriggerCallback                  0x08001eed   Thumb Code     2  stm32f1xx_hal_tim.o(i.HAL_TIM_TriggerCallback)
    HardFault_Handler                        0x08001ef1   Thumb Code    24  stm32f1xx_it.o(i.HardFault_Handler)
    MX_ADC1_Init                             0x080021e9   Thumb Code    70  adc.o(i.MX_ADC1_Init)
    MX_GPIO_Init                             0x08002239   Thumb Code   240  gpio.o(i.MX_GPIO_Init)
    MX_I2C1_Init                             0x08002339   Thumb Code    50  i2c.o(i.MX_I2C1_Init)
    MemManage_Handler                        0x08002379   Thumb Code     2  stm32f1xx_it.o(i.MemManage_Handler)
    NMI_Handler                              0x0800237b   Thumb Code     2  stm32f1xx_it.o(i.NMI_Handler)
    OLED_Clear                               0x0800237d   Thumb Code    52  oled.o(i.OLED_Clear)
    OLED_Clear_One_Line                      0x080023b1   Thumb Code    40  oled.o(i.OLED_Clear_One_Line)
    OLED_Clear_Part                          0x080023d9   Thumb Code    56  oled.o(i.OLED_Clear_Part)
    OLED_DrawBMP                             0x08002411   Thumb Code    72  oled.o(i.OLED_DrawBMP)
    OLED_Init                                0x08002459   Thumb Code    28  oled.o(i.OLED_Init)
    OLED_On                                  0x08002479   Thumb Code    52  oled.o(i.OLED_On)
    OLED_Set_Pos                             0x080024ad   Thumb Code    34  oled.o(i.OLED_Set_Pos)
    OLED_ShowCHinese                         0x080024d1   Thumb Code    94  oled.o(i.OLED_ShowCHinese)
    OLED_ShowChar                            0x08002535   Thumb Code   148  oled.o(i.OLED_ShowChar)
    OLED_ShowNum                             0x080025d1   Thumb Code   116  oled.o(i.OLED_ShowNum)
    OLED_ShowString                          0x08002645   Thumb Code    88  oled.o(i.OLED_ShowString)
    OLED_Show_Calender                       0x0800269d   Thumb Code   190  oled.o(i.OLED_Show_Calender)
    OLED_Showdecimal                         0x0800277d   Thumb Code   292  oled.o(i.OLED_Showdecimal)
    OLED_Some_HorizontalShift                0x080028a1   Thumb Code    66  oled.o(i.OLED_Some_HorizontalShift)
    OLED_VerticalAndHorizontalShift          0x080028e3   Thumb Code    68  oled.o(i.OLED_VerticalAndHorizontalShift)
    OLED_Write_Command                       0x08002929   Thumb Code    32  oled.o(i.OLED_Write_Command)
    OLED_Write_Data                          0x0800294d   Thumb Code    32  oled.o(i.OLED_Write_Data)
    OneWireInit                              0x08002971   Thumb Code    72  ds18b20.o(i.OneWireInit)
    OneWireReceiveByte                       0x080029bd   Thumb Code    40  ds18b20.o(i.OneWireReceiveByte)
    OneWireReceiveOne                        0x080029e5   Thumb Code    68  ds18b20.o(i.OneWireReceiveOne)
    OneWireSendByte                          0x08002a2d   Thumb Code    28  ds18b20.o(i.OneWireSendByte)
    OneWireSendOne                           0x08002a49   Thumb Code    64  ds18b20.o(i.OneWireSendOne)
    OpenTask                                 0x08002a8d   Thumb Code   176  open_task.o(i.OpenTask)
    PendSV_Handler                           0x08002b73   Thumb Code     4  stm32f1xx_it.o(i.PendSV_Handler)
    SVC_Handler                              0x08002b77   Thumb Code     4  stm32f1xx_it.o(i.SVC_Handler)
    SetClockTask                             0x08002b7d   Thumb Code   662  clock_task.o(i.SetClockTask)
    SetSystemTimeTask                        0x08002ecd   Thumb Code   676  setsystemtime_task.o(i.SetSystemTimeTask)
    ShowCalendarTask                         0x080031c5   Thumb Code   104  calendar_task.o(i.ShowCalendarTask)
    ShowFlahLightTask                        0x0800323d   Thumb Code    84  flashlight_task.o(i.ShowFlahLightTask)
    ShowHeartTask                            0x08003299   Thumb Code    76  heart_task.o(i.ShowHeartTask)
    ShowInformationTask                      0x080032fd   Thumb Code   310  information_task.o(i.ShowInformationTask)
    ShowMenuTask                             0x08003445   Thumb Code   374  menu_task.o(i.ShowMenuTask)
    ShowStopwatchTask                        0x0800365d   Thumb Code   388  stopwatch_task.o(i.ShowStopwatchTask)
    ShowTemperatureTask                      0x080037fd   Thumb Code   258  temperature_task.o(i.ShowTemperatureTask)
    ShowTimeTask                             0x08003955   Thumb Code   674  time_task.o(i.ShowTimeTask)
    Stopwatch_Task_CallBack                  0x08003c35   Thumb Code    58  stopwatch_task.o(i.Stopwatch_Task_CallBack)
    SysTick_Handler                          0x08003c75   Thumb Code     4  stm32f1xx_it.o(i.SysTick_Handler)
    SystemClock_Config                       0x08003c79   Thumb Code   120  main.o(i.SystemClock_Config)
    SystemInit                               0x08003cf1   Thumb Code     2  system_stm32f1xx.o(i.SystemInit)
    TIM4_IRQHandler                          0x08003cf5   Thumb Code     6  stm32f1xx_it.o(i.TIM4_IRQHandler)
    TIM_Base_SetConfig                       0x08003d01   Thumb Code   108  stm32f1xx_hal_tim.o(i.TIM_Base_SetConfig)
    Time_Task_CallBack                       0x08003d79   Thumb Code   100  time_task.o(i.Time_Task_CallBack)
    UsageFault_Handler                       0x08003de5   Thumb Code     2  stm32f1xx_it.o(i.UsageFault_Handler)
    __scatterload_copy                       0x08003e07   Thumb Code    14  handlers.o(i.__scatterload_copy)
    __scatterload_null                       0x08003e15   Thumb Code     2  handlers.o(i.__scatterload_null)
    __scatterload_zeroinit                   0x08003e17   Thumb Code    14  handlers.o(i.__scatterload_zeroinit)
    buzzer_function                          0x08003e25   Thumb Code    40  buzzer.o(i.buzzer_function)
    dayOfWeek                                0x08003e51   Thumb Code    82  oled.o(i.dayOfWeek)
    daysInMonth                              0x08003ea5   Thumb Code    54  oled.o(i.daysInMonth)
    delay_ms                                 0x08003ee1   Thumb Code    26  delay.o(i.delay_ms)
    delay_us                                 0x08003efd   Thumb Code    52  delay.o(i.delay_us)
    ds1302_io_work                           0x08003f35   Thumb Code    86  ds1302.o(i.ds1302_io_work)
    eTaskConfirmSleepModeStatus              0x08003f95   Thumb Code    44  tasks.o(i.eTaskConfirmSleepModeStatus)
    main                                     0x08003fc9   Thumb Code    34  main.o(i.main)
    oled_pow                                 0x08003feb   Thumb Code    16  oled.o(i.oled_pow)
    pvPortMalloc                             0x0800475d   Thumb Code   146  heap_4.o(i.pvPortMalloc)
    pvTaskIncrementMutexHeldCount            0x080047f5   Thumb Code    18  tasks.o(i.pvTaskIncrementMutexHeldCount)
    pxPortInitialiseStack                    0x0800480d   Thumb Code    32  port.o(i.pxPortInitialiseStack)
    uxListRemove                             0x08004831   Thumb Code    38  list.o(i.uxListRemove)
    uxTaskGetNumberOfTasks                   0x08004859   Thumb Code     6  tasks.o(i.uxTaskGetNumberOfTasks)
    vListInitialise                          0x08004865   Thumb Code    22  list.o(i.vListInitialise)
    vListInitialiseItem                      0x0800487b   Thumb Code     6  list.o(i.vListInitialiseItem)
    vListInsert                              0x08004881   Thumb Code    48  list.o(i.vListInsert)
    vListInsertEnd                           0x080048b1   Thumb Code    24  list.o(i.vListInsertEnd)
    vPortEnterCritical                       0x080048c9   Thumb Code    24  port.o(i.vPortEnterCritical)
    vPortExitCritical                        0x080048e5   Thumb Code    16  port.o(i.vPortExitCritical)
    vPortFree                                0x080048f9   Thumb Code    64  heap_4.o(i.vPortFree)
    vPortSetupTimerInterrupt                 0x0800493d   Thumb Code    42  port.o(i.vPortSetupTimerInterrupt)
    vPortSuppressTicksAndSleep               0x08004971   Thumb Code   206  port.o(i.vPortSuppressTicksAndSleep)
    vQueueAddToRegistry                      0x08004a49   Thumb Code    54  queue.o(i.vQueueAddToRegistry)
    vQueueWaitForMessageRestricted           0x08004a85   Thumb Code    68  queue.o(i.vQueueWaitForMessageRestricted)
    vTaskDelay                               0x08004ac9   Thumb Code    44  tasks.o(i.vTaskDelay)
    vTaskDelete                              0x08004af9   Thumb Code   144  tasks.o(i.vTaskDelete)
    vTaskInternalSetTimeOutState             0x08004b95   Thumb Code    12  tasks.o(i.vTaskInternalSetTimeOutState)
    vTaskMissedYield                         0x08004ba5   Thumb Code     8  tasks.o(i.vTaskMissedYield)
    vTaskPlaceOnEventList                    0x08004bb1   Thumb Code    26  tasks.o(i.vTaskPlaceOnEventList)
    vTaskPlaceOnEventListRestricted          0x08004bd1   Thumb Code    58  tasks.o(i.vTaskPlaceOnEventListRestricted)
    vTaskPriorityDisinheritAfterTimeout      0x08004c11   Thumb Code   146  tasks.o(i.vTaskPriorityDisinheritAfterTimeout)
    vTaskResume                              0x08004cad   Thumb Code   136  tasks.o(i.vTaskResume)
    vTaskStartScheduler                      0x08004d41   Thumb Code    72  tasks.o(i.vTaskStartScheduler)
    vTaskStepTick                            0x08004d99   Thumb Code    40  tasks.o(i.vTaskStepTick)
    vTaskSuspend                             0x08004dc5   Thumb Code   154  tasks.o(i.vTaskSuspend)
    vTaskSuspendAll                          0x08004e6d   Thumb Code    10  tasks.o(i.vTaskSuspendAll)
    vTaskSwitchContext                       0x08004e7d   Thumb Code    60  tasks.o(i.vTaskSwitchContext)
    xPortStartScheduler                      0x08004ec1   Thumb Code    38  port.o(i.xPortStartScheduler)
    xPortSysTickHandler                      0x08004ef1   Thumb Code    38  port.o(i.xPortSysTickHandler)
    xQueueCreateMutex                        0x08004f1d   Thumb Code    36  queue.o(i.xQueueCreateMutex)
    xQueueGenericCreate                      0x08004f41   Thumb Code    70  queue.o(i.xQueueGenericCreate)
    xQueueGenericReset                       0x08004f89   Thumb Code   144  queue.o(i.xQueueGenericReset)
    xQueueGenericSend                        0x0800501d   Thumb Code   242  queue.o(i.xQueueGenericSend)
    xQueueGenericSendFromISR                 0x08005115   Thumb Code   112  queue.o(i.xQueueGenericSendFromISR)
    xQueueReceive                            0x08005185   Thumb Code   236  queue.o(i.xQueueReceive)
    xQueueSemaphoreTake                      0x08005275   Thumb Code   292  queue.o(i.xQueueSemaphoreTake)
    xTaskCheckForTimeOut                     0x0800539d   Thumb Code    82  tasks.o(i.xTaskCheckForTimeOut)
    xTaskCreate                              0x080053f5   Thumb Code    92  tasks.o(i.xTaskCreate)
    xTaskGetSchedulerState                   0x08005451   Thumb Code    22  tasks.o(i.xTaskGetSchedulerState)
    xTaskGetTickCount                        0x0800546d   Thumb Code     6  tasks.o(i.xTaskGetTickCount)
    xTaskIncrementTick                       0x08005479   Thumb Code   282  tasks.o(i.xTaskIncrementTick)
    xTaskPriorityDisinherit                  0x0800559d   Thumb Code   132  tasks.o(i.xTaskPriorityDisinherit)
    xTaskPriorityInherit                     0x08005629   Thumb Code   168  tasks.o(i.xTaskPriorityInherit)
    xTaskRemoveFromEventList                 0x080056d9   Thumb Code   196  tasks.o(i.xTaskRemoveFromEventList)
    xTaskResumeAll                           0x080057a5   Thumb Code   266  tasks.o(i.xTaskResumeAll)
    xTimerCreate                             0x080058bd   Thumb Code    74  timers.o(i.xTimerCreate)
    xTimerCreateTimerTask                    0x08005909   Thumb Code    42  timers.o(i.xTimerCreateTimerTask)
    xTimerGenericCommand                     0x08005945   Thumb Code    74  timers.o(i.xTimerGenericCommand)
    F6x8                                     0x08005994   Data         552  oledfont.o(.constdata)
    F8X16                                    0x08005bbc   Data        1504  oledfont.o(.constdata)
    Hzk                                      0x0800619c   Data         960  oledfont.o(.constdata)
    Battery                                  0x0800655c   Data         253  oledfont.o(.constdata)
    xinhao                                   0x08006659   Data          16  oledfont.o(.constdata)
    bluetooth                                0x08006669   Data           8  oledfont.o(.constdata)
    Timer                                    0x08006671   Data         704  oledfont.o(.constdata)
    Open                                     0x08006931   Data        8192  oledfont.o(.constdata)
    menu                                     0x08008931   Data        1024  oledfont.o(.constdata)
    AHBPrescTable                            0x08008d43   Data          16  system_stm32f1xx.o(.constdata)
    APBPrescTable                            0x08008d53   Data           8  system_stm32f1xx.o(.constdata)
    Region$$Table$$Base                      0x08008e2c   Number         0  anon$$obj.o(Region$$Table)
    Region$$Table$$Limit                     0x08008e4c   Number         0  anon$$obj.o(Region$$Table)
    pxCurrentTCB                             0x2000002c   Data           4  tasks.o(.data)
    uxTopUsedPriority                        0x2000005c   Data           4  tasks.o(.data)
    Command_Data                             0x20000080   Data          23  oled.o(.data)
    information                              0x200000c8   Data          48  oledfont.o(.data)
    battery_percent                          0x200000f8   Data           1  time_task.o(.data)
    Clock_Ring                               0x200000f9   Data           1  time_task.o(.data)
    Time_Now                                 0x200000fa   Data           8  time_task.o(.data)
    Stop_Time                                0x20000102   Data           1  time_task.o(.data)
    stopwatch_millisecond                    0x20000103   Data           1  stopwatch_task.o(.data)
    stopwatch_second                         0x20000104   Data           1  stopwatch_task.o(.data)
    stopwatch_minute                         0x20000105   Data           1  stopwatch_task.o(.data)
    count_round                              0x20000106   Data           1  stopwatch_task.o(.data)
    clock_number                             0x20000107   Data           1  clock_task.o(.data)
    key_state                                0x20000108   Data           3  freertosinit.o(.data)
    OpenTask_Handler                         0x2000010c   Data           4  freertosinit.o(.data)
    ShowTimeTask_Handler                     0x20000110   Data           4  freertosinit.o(.data)
    ShowMenuTask_Handler                     0x20000114   Data           4  freertosinit.o(.data)
    ShowFlahLightTask_Handler                0x20000118   Data           4  freertosinit.o(.data)
    ShowTemperatureTask_Handler              0x2000011c   Data           4  freertosinit.o(.data)
    ShowInformationTask_Handler              0x20000120   Data           4  freertosinit.o(.data)
    ShowCalendarTask_Handler                 0x20000124   Data           4  freertosinit.o(.data)
    ShowStopwatchTask_Handler                0x20000128   Data           4  freertosinit.o(.data)
    SetClockTask_Handler                     0x2000012c   Data           4  freertosinit.o(.data)
    SetSystemTimeTask_Handler                0x20000130   Data           4  freertosinit.o(.data)
    ShowHeartTask_Handler                    0x20000134   Data           4  freertosinit.o(.data)
    OledSlideBinarySemaphore                 0x20000138   Data           4  freertosinit.o(.data)
    StopModeBinarySemaphore                  0x2000013c   Data           4  freertosinit.o(.data)
    Time_Task_Timer                          0x20000140   Data           4  freertosinit.o(.data)
    Stopwatch_Task_Timer                     0x20000144   Data           4  freertosinit.o(.data)
    KeyQueue                                 0x20000148   Data           4  freertosinit.o(.data)
    uwTickFreq                               0x2000014c   Data           1  stm32f1xx_hal.o(.data)
    uwTickPrio                               0x20000150   Data           4  stm32f1xx_hal.o(.data)
    uwTick                                   0x20000154   Data           4  stm32f1xx_hal.o(.data)
    SystemCoreClock                          0x20000158   Data           4  system_stm32f1xx.o(.data)
    xQueueRegistry                           0x2000315c   Data          64  queue.o(.bss)
    Clock                                    0x2000328c   Data          24  clock_task.o(.bss)
    hadc1                                    0x200032a4   Data          48  adc.o(.bss)
    hi2c1                                    0x200032d4   Data          84  i2c.o(.bss)
    htim4                                    0x20003328   Data          72  stm32f1xx_hal_timebase_tim.o(.bss)
    __initial_sp                             0x20003770   Data           0  startup_stm32f103xb.o(STACK)



==============================================================================

Memory Map of the image

  Image Entry point : 0x080000ed

  Load Region LR_IROM1 (Base: 0x08000000, Size: 0x00008fa8, Max: 0x00010000, ABSOLUTE, COMPRESSED[0x00008eac])

    Execution Region ER_IROM1 (Exec base: 0x08000000, Load base: 0x08000000, Size: 0x00008e4c, Max: 0x00010000, ABSOLUTE)

    Exec Addr    Load Addr    Size         Type   Attr      Idx    E Section Name        Object

    0x08000000   0x08000000   0x000000ec   Data   RO            3    RESET               startup_stm32f103xb.o
    0x080000ec   0x080000ec   0x00000000   Code   RO         5158  * .ARM.Collect$$$$00000000  mc_w.l(entry.o)
    0x080000ec   0x080000ec   0x00000004   Code   RO         5185    .ARM.Collect$$$$00000001  mc_w.l(entry2.o)
    0x080000f0   0x080000f0   0x00000004   Code   RO         5188    .ARM.Collect$$$$00000004  mc_w.l(entry5.o)
    0x080000f4   0x080000f4   0x00000000   Code   RO         5190    .ARM.Collect$$$$00000008  mc_w.l(entry7b.o)
    0x080000f4   0x080000f4   0x00000000   Code   RO         5192    .ARM.Collect$$$$0000000A  mc_w.l(entry8b.o)
    0x080000f4   0x080000f4   0x00000008   Code   RO         5193    .ARM.Collect$$$$0000000B  mc_w.l(entry9a.o)
    0x080000fc   0x080000fc   0x00000000   Code   RO         5195    .ARM.Collect$$$$0000000D  mc_w.l(entry10a.o)
    0x080000fc   0x080000fc   0x00000000   Code   RO         5197    .ARM.Collect$$$$0000000F  mc_w.l(entry11a.o)
    0x080000fc   0x080000fc   0x00000004   Code   RO         5186    .ARM.Collect$$$$00002712  mc_w.l(entry2.o)
    0x08000100   0x08000100   0x00000096   Code   RO          248    .emb_text           port.o
    0x08000196   0x08000196   0x00000002   PAD
    0x08000198   0x08000198   0x00000024   Code   RO            4    .text               startup_stm32f103xb.o
    0x080001bc   0x080001bc   0x00000020   Code   RO         5161    .text               mc_w.l(llushr.o)
    0x080001dc   0x080001dc   0x00000024   Code   RO         5163    .text               mc_w.l(memcpya.o)
    0x08000200   0x08000200   0x00000024   Code   RO         5165    .text               mc_w.l(memseta.o)
    0x08000224   0x08000224   0x000000b0   Code   RO         5169    .text               mf_w.l(fadd.o)
    0x080002d4   0x080002d4   0x00000064   Code   RO         5171    .text               mf_w.l(fmul.o)
    0x08000338   0x08000338   0x0000002e   Code   RO         5173    .text               mf_w.l(dscalb.o)
    0x08000366   0x08000366   0x00000012   Code   RO         5175    .text               mf_w.l(fflti.o)
    0x08000378   0x08000378   0x0000000a   Code   RO         5177    .text               mf_w.l(ffltui.o)
    0x08000382   0x08000382   0x00000022   Code   RO         5179    .text               mf_w.l(dflti.o)
    0x080003a4   0x080003a4   0x00000032   Code   RO         5181    .text               mf_w.l(ffixi.o)
    0x080003d6   0x080003d6   0x00000038   Code   RO         5183    .text               mf_w.l(d2f.o)
    0x0800040e   0x0800040e   0x00000000   Code   RO         5199    .text               mc_w.l(iusefp.o)
    0x0800040e   0x0800040e   0x0000006e   Code   RO         5200    .text               mf_w.l(fepilogue.o)
    0x0800047c   0x0800047c   0x000000ba   Code   RO         5202    .text               mf_w.l(depilogue.o)
    0x08000536   0x08000536   0x00000002   PAD
    0x08000538   0x08000538   0x00000024   Code   RO         5204    .text               mc_w.l(init.o)
    0x0800055c   0x0800055c   0x0000001e   Code   RO         5206    .text               mc_w.l(llshl.o)
    0x0800057a   0x0800057a   0x00000056   Code   RO         5216    .text               mc_w.l(__dczerorl2.o)
    0x080005d0   0x080005d0   0x00000056   Code   RO         3258    i.ADC_ConversionStop_Disable  stm32f1xx_hal_adc.o
    0x08000626   0x08000626   0x00000002   PAD
    0x08000628   0x08000628   0x0000007c   Code   RO         3262    i.ADC_Enable        stm32f1xx_hal_adc.o
    0x080006a4   0x080006a4   0x00000002   Code   RO         2092    i.BusFault_Handler  stm32f1xx_it.o
    0x080006a6   0x080006a6   0x00000002   PAD
    0x080006a8   0x080006a8   0x000000bc   Code   RO         5104    i.DS1302_ReadByte   ds1302.o
    0x08000764   0x08000764   0x00000090   Code   RO         5105    i.DS1302_ReadTime   ds1302.o
    0x080007f4   0x080007f4   0x000000b6   Code   RO         5106    i.DS1302_SetTime    ds1302.o
    0x080008aa   0x080008aa   0x00000002   PAD
    0x080008ac   0x080008ac   0x0000009c   Code   RO         5107    i.DS1302_WriteByte  ds1302.o
    0x08000948   0x08000948   0x0000001e   Code   RO         4986    i.DS18B20ConvertTemperature  ds18b20.o
    0x08000966   0x08000966   0x00000034   Code   RO         4987    i.DS18B20ReadTemperature  ds18b20.o
    0x0800099a   0x0800099a   0x00000002   Code   RO         2093    i.DebugMon_Handler  stm32f1xx_it.o
    0x0800099c   0x0800099c   0x00000006   Code   RO         2094    i.EXTI4_IRQHandler  stm32f1xx_it.o
    0x080009a2   0x080009a2   0x00000012   Code   RO         2095    i.EXTI9_5_IRQHandler  stm32f1xx_it.o
    0x080009b4   0x080009b4   0x00000004   Code   RO         1922    i.Error_Handler     main.o
    0x080009b8   0x080009b8   0x00000016   Code   RO         1923    i.Escape_Stop_Mode  main.o
    0x080009ce   0x080009ce   0x00000002   PAD
    0x080009d0   0x080009d0   0x00000234   Code   RO         1845    i.FreeRTOS_Init     freertosinit.o
    0x08000c04   0x08000c04   0x000000fc   Code   RO         3264    i.HAL_ADC_ConfigChannel  stm32f1xx_hal_adc.o
    0x08000d00   0x08000d00   0x00000006   Code   RO         3271    i.HAL_ADC_GetValue  stm32f1xx_hal_adc.o
    0x08000d06   0x08000d06   0x00000002   PAD
    0x08000d08   0x08000d08   0x0000011c   Code   RO         3273    i.HAL_ADC_Init      stm32f1xx_hal_adc.o
    0x08000e24   0x08000e24   0x00000058   Code   RO         2009    i.HAL_ADC_MspInit   adc.o
    0x08000e7c   0x08000e7c   0x000000c0   Code   RO         3279    i.HAL_ADC_Start     stm32f1xx_hal_adc.o
    0x08000f3c   0x08000f3c   0x000000b0   Code   RO         1846    i.HAL_GPIO_EXTI_Callback  freertosinit.o
    0x08000fec   0x08000fec   0x00000018   Code   RO         3850    i.HAL_GPIO_EXTI_IRQHandler  stm32f1xx_hal_gpio.o
    0x08001004   0x08001004   0x000001e0   Code   RO         3851    i.HAL_GPIO_Init     stm32f1xx_hal_gpio.o
    0x080011e4   0x080011e4   0x0000000a   Code   RO         3853    i.HAL_GPIO_ReadPin  stm32f1xx_hal_gpio.o
    0x080011ee   0x080011ee   0x0000000a   Code   RO         3855    i.HAL_GPIO_WritePin  stm32f1xx_hal_gpio.o
    0x080011f8   0x080011f8   0x0000000c   Code   RO         3545    i.HAL_GetTick       stm32f1xx_hal.o
    0x08001204   0x08001204   0x00000188   Code   RO         4522    i.HAL_I2C_Init      stm32f1xx_hal_i2c.o
    0x0800138c   0x0800138c   0x00000130   Code   RO         4543    i.HAL_I2C_Mem_Write  stm32f1xx_hal_i2c.o
    0x080014bc   0x080014bc   0x00000070   Code   RO         2051    i.HAL_I2C_MspInit   i2c.o
    0x0800152c   0x0800152c   0x00000010   Code   RO         3551    i.HAL_IncTick       stm32f1xx_hal.o
    0x0800153c   0x0800153c   0x00000024   Code   RO         3552    i.HAL_Init          stm32f1xx_hal.o
    0x08001560   0x08001560   0x00000098   Code   RO         2210    i.HAL_InitTick      stm32f1xx_hal_timebase_tim.o
    0x080015f8   0x080015f8   0x00000048   Code   RO         2186    i.HAL_MspInit       stm32f1xx_hal_msp.o
    0x08001640   0x08001640   0x0000001a   Code   RO         4011    i.HAL_NVIC_EnableIRQ  stm32f1xx_hal_cortex.o
    0x0800165a   0x0800165a   0x00000002   PAD
    0x0800165c   0x0800165c   0x00000040   Code   RO         4017    i.HAL_NVIC_SetPriority  stm32f1xx_hal_cortex.o
    0x0800169c   0x0800169c   0x00000024   Code   RO         4018    i.HAL_NVIC_SetPriorityGrouping  stm32f1xx_hal_cortex.o
    0x080016c0   0x080016c0   0x00000044   Code   RO         4140    i.HAL_PWR_EnterSTOPMode  stm32f1xx_hal_pwr.o
    0x08001704   0x08001704   0x000000ec   Code   RO         3813    i.HAL_RCCEx_PeriphCLKConfig  stm32f1xx_hal_rcc_ex.o
    0x080017f0   0x080017f0   0x0000012c   Code   RO         3709    i.HAL_RCC_ClockConfig  stm32f1xx_hal_rcc.o
    0x0800191c   0x0800191c   0x00000040   Code   RO         3713    i.HAL_RCC_GetClockConfig  stm32f1xx_hal_rcc.o
    0x0800195c   0x0800195c   0x00000020   Code   RO         3716    i.HAL_RCC_GetPCLK1Freq  stm32f1xx_hal_rcc.o
    0x0800197c   0x0800197c   0x0000004c   Code   RO         3718    i.HAL_RCC_GetSysClockFreq  stm32f1xx_hal_rcc.o
    0x080019c8   0x080019c8   0x00000320   Code   RO         3721    i.HAL_RCC_OscConfig  stm32f1xx_hal_rcc.o
    0x08001ce8   0x08001ce8   0x00000002   Code   RO         2991    i.HAL_TIMEx_BreakCallback  stm32f1xx_hal_tim_ex.o
    0x08001cea   0x08001cea   0x00000002   Code   RO         2992    i.HAL_TIMEx_CommutCallback  stm32f1xx_hal_tim_ex.o
    0x08001cec   0x08001cec   0x0000005a   Code   RO         2287    i.HAL_TIM_Base_Init  stm32f1xx_hal_tim.o
    0x08001d46   0x08001d46   0x00000002   Code   RO         2289    i.HAL_TIM_Base_MspInit  stm32f1xx_hal_tim.o
    0x08001d48   0x08001d48   0x00000058   Code   RO         2292    i.HAL_TIM_Base_Start_IT  stm32f1xx_hal_tim.o
    0x08001da0   0x08001da0   0x00000002   Code   RO         2321    i.HAL_TIM_IC_CaptureCallback  stm32f1xx_hal_tim.o
    0x08001da2   0x08001da2   0x00000130   Code   RO         2335    i.HAL_TIM_IRQHandler  stm32f1xx_hal_tim.o
    0x08001ed2   0x08001ed2   0x00000002   Code   RO         2338    i.HAL_TIM_OC_DelayElapsedCallback  stm32f1xx_hal_tim.o
    0x08001ed4   0x08001ed4   0x00000002   Code   RO         2365    i.HAL_TIM_PWM_PulseFinishedCallback  stm32f1xx_hal_tim.o
    0x08001ed6   0x08001ed6   0x00000002   PAD
    0x08001ed8   0x08001ed8   0x00000014   Code   RO         1924    i.HAL_TIM_PeriodElapsedCallback  main.o
    0x08001eec   0x08001eec   0x00000002   Code   RO         2378    i.HAL_TIM_TriggerCallback  stm32f1xx_hal_tim.o
    0x08001eee   0x08001eee   0x00000002   PAD
    0x08001ef0   0x08001ef0   0x00000024   Code   RO         2096    i.HardFault_Handler  stm32f1xx_it.o
    0x08001f14   0x08001f14   0x0000002e   Code   RO         4565    i.I2C_IsAcknowledgeFailed  stm32f1xx_hal_i2c.o
    0x08001f42   0x08001f42   0x00000002   PAD
    0x08001f44   0x08001f44   0x000000a8   Code   RO         4576    i.I2C_RequestMemoryWrite  stm32f1xx_hal_i2c.o
    0x08001fec   0x08001fec   0x00000056   Code   RO         4580    i.I2C_WaitOnBTFFlagUntilTimeout  stm32f1xx_hal_i2c.o
    0x08002042   0x08002042   0x00000002   PAD
    0x08002044   0x08002044   0x00000090   Code   RO         4581    i.I2C_WaitOnFlagUntilTimeout  stm32f1xx_hal_i2c.o
    0x080020d4   0x080020d4   0x000000bc   Code   RO         4582    i.I2C_WaitOnMasterAddressFlagUntilTimeout  stm32f1xx_hal_i2c.o
    0x08002190   0x08002190   0x00000056   Code   RO         4584    i.I2C_WaitOnTXEFlagUntilTimeout  stm32f1xx_hal_i2c.o
    0x080021e6   0x080021e6   0x00000002   PAD
    0x080021e8   0x080021e8   0x00000050   Code   RO         2010    i.MX_ADC1_Init      adc.o
    0x08002238   0x08002238   0x00000100   Code   RO         1984    i.MX_GPIO_Init      gpio.o
    0x08002338   0x08002338   0x00000040   Code   RO         2052    i.MX_I2C1_Init      i2c.o
    0x08002378   0x08002378   0x00000002   Code   RO         2097    i.MemManage_Handler  stm32f1xx_it.o
    0x0800237a   0x0800237a   0x00000002   Code   RO         2098    i.NMI_Handler       stm32f1xx_it.o
    0x0800237c   0x0800237c   0x00000034   Code   RO         1154    i.OLED_Clear        oled.o
    0x080023b0   0x080023b0   0x00000028   Code   RO         1155    i.OLED_Clear_One_Line  oled.o
    0x080023d8   0x080023d8   0x00000038   Code   RO         1156    i.OLED_Clear_Part   oled.o
    0x08002410   0x08002410   0x00000048   Code   RO         1160    i.OLED_DrawBMP      oled.o
    0x08002458   0x08002458   0x00000020   Code   RO         1162    i.OLED_Init         oled.o
    0x08002478   0x08002478   0x00000034   Code   RO         1164    i.OLED_On           oled.o
    0x080024ac   0x080024ac   0x00000022   Code   RO         1165    i.OLED_Set_Pos      oled.o
    0x080024ce   0x080024ce   0x00000002   PAD
    0x080024d0   0x080024d0   0x00000064   Code   RO         1166    i.OLED_ShowCHinese  oled.o
    0x08002534   0x08002534   0x0000009c   Code   RO         1167    i.OLED_ShowChar     oled.o
    0x080025d0   0x080025d0   0x00000074   Code   RO         1169    i.OLED_ShowNum      oled.o
    0x08002644   0x08002644   0x00000058   Code   RO         1171    i.OLED_ShowString   oled.o
    0x0800269c   0x0800269c   0x000000e0   Code   RO         1172    i.OLED_Show_Calender  oled.o
    0x0800277c   0x0800277c   0x00000124   Code   RO         1173    i.OLED_Showdecimal  oled.o
    0x080028a0   0x080028a0   0x00000042   Code   RO         1174    i.OLED_Some_HorizontalShift  oled.o
    0x080028e2   0x080028e2   0x00000044   Code   RO         1175    i.OLED_VerticalAndHorizontalShift  oled.o
    0x08002926   0x08002926   0x00000002   PAD
    0x08002928   0x08002928   0x00000024   Code   RO         1176    i.OLED_Write_Command  oled.o
    0x0800294c   0x0800294c   0x00000024   Code   RO         1177    i.OLED_Write_Data   oled.o
    0x08002970   0x08002970   0x0000004c   Code   RO         4988    i.OneWireInit       ds18b20.o
    0x080029bc   0x080029bc   0x00000028   Code   RO         4989    i.OneWireReceiveByte  ds18b20.o
    0x080029e4   0x080029e4   0x00000048   Code   RO         4990    i.OneWireReceiveOne  ds18b20.o
    0x08002a2c   0x08002a2c   0x0000001c   Code   RO         4991    i.OneWireSendByte   ds18b20.o
    0x08002a48   0x08002a48   0x00000044   Code   RO         4992    i.OneWireSendOne    ds18b20.o
    0x08002a8c   0x08002a8c   0x000000e0   Code   RO         1516    i.OpenTask          open_task.o
    0x08002b6c   0x08002b6c   0x00000006   Code   RO         4143    i.PWR_OverloadWfe   stm32f1xx_hal_pwr.o
    0x08002b72   0x08002b72   0x00000004   Code   RO         2099    i.PendSV_Handler    stm32f1xx_it.o
    0x08002b76   0x08002b76   0x00000004   Code   RO         2100    i.SVC_Handler       stm32f1xx_it.o
    0x08002b7a   0x08002b7a   0x00000002   PAD
    0x08002b7c   0x08002b7c   0x00000350   Code   RO         1738    i.SetClockTask      clock_task.o
    0x08002ecc   0x08002ecc   0x000002f8   Code   RO         1767    i.SetSystemTimeTask  setsystemtime_task.o
    0x080031c4   0x080031c4   0x00000078   Code   RO         1647    i.ShowCalendarTask  calendar_task.o
    0x0800323c   0x0800323c   0x0000005c   Code   RO         1622    i.ShowFlahLightTask  flashlight_task.o
    0x08003298   0x08003298   0x00000064   Code   RO         1713    i.ShowHeartTask     heart_task.o
    0x080032fc   0x080032fc   0x00000148   Code   RO         1597    i.ShowInformationTask  information_task.o
    0x08003444   0x08003444   0x00000218   Code   RO         1541    i.ShowMenuTask      menu_task.o
    0x0800365c   0x0800365c   0x000001a0   Code   RO         1676    i.ShowStopwatchTask  stopwatch_task.o
    0x080037fc   0x080037fc   0x00000158   Code   RO         1569    i.ShowTemperatureTask  temperature_task.o
    0x08003954   0x08003954   0x000002e0   Code   RO         1450    i.ShowTimeTask      time_task.o
    0x08003c34   0x08003c34   0x00000040   Code   RO         1677    i.Stopwatch_Task_CallBack  stopwatch_task.o
    0x08003c74   0x08003c74   0x00000004   Code   RO         2101    i.SysTick_Handler   stm32f1xx_it.o
    0x08003c78   0x08003c78   0x00000078   Code   RO         1925    i.SystemClock_Config  main.o
    0x08003cf0   0x08003cf0   0x00000002   Code   RO         4949    i.SystemInit        system_stm32f1xx.o
    0x08003cf2   0x08003cf2   0x00000002   PAD
    0x08003cf4   0x08003cf4   0x0000000c   Code   RO         2102    i.TIM4_IRQHandler   stm32f1xx_it.o
    0x08003d00   0x08003d00   0x00000078   Code   RO         2380    i.TIM_Base_SetConfig  stm32f1xx_hal_tim.o
    0x08003d78   0x08003d78   0x0000006c   Code   RO         1451    i.Time_Task_CallBack  time_task.o
    0x08003de4   0x08003de4   0x00000002   Code   RO         2103    i.UsageFault_Handler  stm32f1xx_it.o
    0x08003de6   0x08003de6   0x00000020   Code   RO         4024    i.__NVIC_SetPriority  stm32f1xx_hal_cortex.o
    0x08003e06   0x08003e06   0x0000000e   Code   RO         5210    i.__scatterload_copy  mc_w.l(handlers.o)
    0x08003e14   0x08003e14   0x00000002   Code   RO         5211    i.__scatterload_null  mc_w.l(handlers.o)
    0x08003e16   0x08003e16   0x0000000e   Code   RO         5212    i.__scatterload_zeroinit  mc_w.l(handlers.o)
    0x08003e24   0x08003e24   0x0000002c   Code   RO         5048    i.buzzer_function   buzzer.o
    0x08003e50   0x08003e50   0x00000052   Code   RO         1178    i.dayOfWeek         oled.o
    0x08003ea2   0x08003ea2   0x00000002   PAD
    0x08003ea4   0x08003ea4   0x0000003c   Code   RO         1179    i.daysInMonth       oled.o
    0x08003ee0   0x08003ee0   0x0000001a   Code   RO         5072    i.delay_ms          delay.o
    0x08003efa   0x08003efa   0x00000002   PAD
    0x08003efc   0x08003efc   0x00000038   Code   RO         5073    i.delay_us          delay.o
    0x08003f34   0x08003f34   0x00000060   Code   RO         5108    i.ds1302_io_work    ds1302.o
    0x08003f94   0x08003f94   0x00000034   Code   RO          654    i.eTaskConfirmSleepModeStatus  tasks.o
    0x08003fc8   0x08003fc8   0x00000022   Code   RO         1926    i.main              main.o
    0x08003fea   0x08003fea   0x00000010   Code   RO         1180    i.oled_pow          oled.o
    0x08003ffa   0x08003ffa   0x00000002   PAD
    0x08003ffc   0x08003ffc   0x00000088   Code   RO          657    i.prvAddCurrentTaskToDelayedList  tasks.o
    0x08004084   0x08004084   0x000000f0   Code   RO          658    i.prvAddNewTaskToReadyList  tasks.o
    0x08004174   0x08004174   0x00000050   Code   RO         1007    i.prvCheckForValidListAndQueue  timers.o
    0x080041c4   0x080041c4   0x00000026   Code   RO          326    i.prvCopyDataFromQueue  queue.o
    0x080041ea   0x080041ea   0x0000006c   Code   RO          327    i.prvCopyDataToQueue  queue.o
    0x08004256   0x08004256   0x00000014   Code   RO          659    i.prvDeleteTCB      tasks.o
    0x0800426a   0x0800426a   0x00000002   PAD
    0x0800426c   0x0800426c   0x00000034   Code   RO          660    i.prvGetExpectedIdleTime  tasks.o
    0x080042a0   0x080042a0   0x00000044   Code   RO          145    i.prvHeapInit       heap_4.o
    0x080042e4   0x080042e4   0x00000078   Code   RO          661    i.prvIdleTask       tasks.o
    0x0800435c   0x0800435c   0x00000084   Code   RO          662    i.prvInitialiseNewTask  tasks.o
    0x080043e0   0x080043e0   0x0000004c   Code   RO          146    i.prvInsertBlockIntoFreeList  heap_4.o
    0x0800442c   0x0800442c   0x00000038   Code   RO         1008    i.prvInsertTimerInActiveList  timers.o
    0x08004464   0x08004464   0x0000001c   Code   RO          328    i.prvIsQueueEmpty   queue.o
    0x08004480   0x08004480   0x00000040   Code   RO         1009    i.prvProcessExpiredTimer  timers.o
    0x080044c0   0x080044c0   0x000000e4   Code   RO         1010    i.prvProcessReceivedCommands  timers.o
    0x080045a4   0x080045a4   0x0000006c   Code   RO         1011    i.prvProcessTimerOrBlockTask  timers.o
    0x08004610   0x08004610   0x00000028   Code   RO         1012    i.prvReloadTimer    timers.o
    0x08004638   0x08004638   0x0000001c   Code   RO          663    i.prvResetNextTaskUnblockTime  tasks.o
    0x08004654   0x08004654   0x00000048   Code   RO         1013    i.prvSampleTimeNow  timers.o
    0x0800469c   0x0800469c   0x00000010   Code   RO          249    i.prvTaskExitError  port.o
    0x080046ac   0x080046ac   0x00000020   Code   RO          664    i.prvTaskIsTaskSuspended  tasks.o
    0x080046cc   0x080046cc   0x00000024   Code   RO         1014    i.prvTimerTask      timers.o
    0x080046f0   0x080046f0   0x0000006a   Code   RO          329    i.prvUnlockQueue    queue.o
    0x0800475a   0x0800475a   0x00000002   PAD
    0x0800475c   0x0800475c   0x00000098   Code   RO          148    i.pvPortMalloc      heap_4.o
    0x080047f4   0x080047f4   0x00000018   Code   RO          665    i.pvTaskIncrementMutexHeldCount  tasks.o
    0x0800480c   0x0800480c   0x00000024   Code   RO          250    i.pxPortInitialiseStack  port.o
    0x08004830   0x08004830   0x00000026   Code   RO          212    i.uxListRemove      list.o
    0x08004856   0x08004856   0x00000002   PAD
    0x08004858   0x08004858   0x0000000c   Code   RO          668    i.uxTaskGetNumberOfTasks  tasks.o
    0x08004864   0x08004864   0x00000016   Code   RO          213    i.vListInitialise   list.o
    0x0800487a   0x0800487a   0x00000006   Code   RO          214    i.vListInitialiseItem  list.o
    0x08004880   0x08004880   0x00000030   Code   RO          215    i.vListInsert       list.o
    0x080048b0   0x080048b0   0x00000018   Code   RO          216    i.vListInsertEnd    list.o
    0x080048c8   0x080048c8   0x0000001c   Code   RO          252    i.vPortEnterCritical  port.o
    0x080048e4   0x080048e4   0x00000014   Code   RO          253    i.vPortExitCritical  port.o
    0x080048f8   0x080048f8   0x00000044   Code   RO          149    i.vPortFree         heap_4.o
    0x0800493c   0x0800493c   0x00000034   Code   RO          254    i.vPortSetupTimerInterrupt  port.o
    0x08004970   0x08004970   0x000000d8   Code   RO          255    i.vPortSuppressTicksAndSleep  port.o
    0x08004a48   0x08004a48   0x0000003c   Code   RO          333    i.vQueueAddToRegistry  queue.o
    0x08004a84   0x08004a84   0x00000044   Code   RO          336    i.vQueueWaitForMessageRestricted  queue.o
    0x08004ac8   0x08004ac8   0x00000030   Code   RO          673    i.vTaskDelay        tasks.o
    0x08004af8   0x08004af8   0x0000009c   Code   RO          674    i.vTaskDelete       tasks.o
    0x08004b94   0x08004b94   0x00000010   Code   RO          677    i.vTaskInternalSetTimeOutState  tasks.o
    0x08004ba4   0x08004ba4   0x0000000c   Code   RO          678    i.vTaskMissedYield  tasks.o
    0x08004bb0   0x08004bb0   0x00000020   Code   RO          679    i.vTaskPlaceOnEventList  tasks.o
    0x08004bd0   0x08004bd0   0x00000040   Code   RO          680    i.vTaskPlaceOnEventListRestricted  tasks.o
    0x08004c10   0x08004c10   0x0000009c   Code   RO          682    i.vTaskPriorityDisinheritAfterTimeout  tasks.o
    0x08004cac   0x08004cac   0x00000094   Code   RO          685    i.vTaskResume       tasks.o
    0x08004d40   0x08004d40   0x00000058   Code   RO          687    i.vTaskStartScheduler  tasks.o
    0x08004d98   0x08004d98   0x0000002c   Code   RO          688    i.vTaskStepTick     tasks.o
    0x08004dc4   0x08004dc4   0x000000a8   Code   RO          689    i.vTaskSuspend      tasks.o
    0x08004e6c   0x08004e6c   0x00000010   Code   RO          690    i.vTaskSuspendAll   tasks.o
    0x08004e7c   0x08004e7c   0x00000044   Code   RO          691    i.vTaskSwitchContext  tasks.o
    0x08004ec0   0x08004ec0   0x00000030   Code   RO          256    i.xPortStartScheduler  port.o
    0x08004ef0   0x08004ef0   0x0000002c   Code   RO          257    i.xPortSysTickHandler  port.o
    0x08004f1c   0x08004f1c   0x00000024   Code   RO          338    i.xQueueCreateMutex  queue.o
    0x08004f40   0x08004f40   0x00000046   Code   RO          339    i.xQueueGenericCreate  queue.o
    0x08004f86   0x08004f86   0x00000002   PAD
    0x08004f88   0x08004f88   0x00000094   Code   RO          340    i.xQueueGenericReset  queue.o
    0x0800501c   0x0800501c   0x000000f8   Code   RO          341    i.xQueueGenericSend  queue.o
    0x08005114   0x08005114   0x00000070   Code   RO          342    i.xQueueGenericSendFromISR  queue.o
    0x08005184   0x08005184   0x000000f0   Code   RO          351    i.xQueueReceive     queue.o
    0x08005274   0x08005274   0x00000128   Code   RO          353    i.xQueueSemaphoreTake  queue.o
    0x0800539c   0x0800539c   0x00000058   Code   RO          693    i.xTaskCheckForTimeOut  tasks.o
    0x080053f4   0x080053f4   0x0000005c   Code   RO          694    i.xTaskCreate       tasks.o
    0x08005450   0x08005450   0x0000001c   Code   RO          701    i.xTaskGetSchedulerState  tasks.o
    0x0800546c   0x0800546c   0x0000000c   Code   RO          702    i.xTaskGetTickCount  tasks.o
    0x08005478   0x08005478   0x00000124   Code   RO          704    i.xTaskIncrementTick  tasks.o
    0x0800559c   0x0800559c   0x0000008c   Code   RO          705    i.xTaskPriorityDisinherit  tasks.o
    0x08005628   0x08005628   0x000000b0   Code   RO          706    i.xTaskPriorityInherit  tasks.o
    0x080056d8   0x080056d8   0x000000cc   Code   RO          707    i.xTaskRemoveFromEventList  tasks.o
    0x080057a4   0x080057a4   0x00000118   Code   RO          708    i.xTaskResumeAll    tasks.o
    0x080058bc   0x080058bc   0x0000004a   Code   RO         1019    i.xTimerCreate      timers.o
    0x08005906   0x08005906   0x00000002   PAD
    0x08005908   0x08005908   0x0000003c   Code   RO         1020    i.xTimerCreateTimerTask  timers.o
    0x08005944   0x08005944   0x00000050   Code   RO         1021    i.xTimerGenericCommand  timers.o
    0x08005994   0x08005994   0x00000228   Data   RO         1424    .constdata          oledfont.o
    0x08005bbc   0x08005bbc   0x000005e0   Data   RO         1425    .constdata          oledfont.o
    0x0800619c   0x0800619c   0x000003c0   Data   RO         1426    .constdata          oledfont.o
    0x0800655c   0x0800655c   0x000000fd   Data   RO         1427    .constdata          oledfont.o
    0x08006659   0x08006659   0x00000010   Data   RO         1428    .constdata          oledfont.o
    0x08006669   0x08006669   0x00000008   Data   RO         1429    .constdata          oledfont.o
    0x08006671   0x08006671   0x000002c0   Data   RO         1431    .constdata          oledfont.o
    0x08006931   0x08006931   0x00002000   Data   RO         1432    .constdata          oledfont.o
    0x08008931   0x08008931   0x00000400   Data   RO         1433    .constdata          oledfont.o
    0x08008d31   0x08008d31   0x00000012   Data   RO         3722    .constdata          stm32f1xx_hal_rcc.o
    0x08008d43   0x08008d43   0x00000010   Data   RO         4950    .constdata          system_stm32f1xx.o
    0x08008d53   0x08008d53   0x00000008   Data   RO         4951    .constdata          system_stm32f1xx.o
    0x08008d5b   0x08008d5b   0x00000001   PAD
    0x08008d5c   0x08008d5c   0x000000cf   Data   RO         1434    .conststring        oledfont.o
    0x08008e2b   0x08008e2b   0x00000001   PAD
    0x08008e2c   0x08008e2c   0x00000020   Data   RO         5208    Region$$Table       anon$$obj.o


    Execution Region RW_IRAM1 (Exec base: 0x20000000, Load base: 0x08008e4c, Size: 0x00003770, Max: 0x00005000, ABSOLUTE, COMPRESSED[0x00000060])

    Exec Addr    Load Addr    Size         Type   Attr      Idx    E Section Name        Object

    0x20000000   COMPRESSED   0x0000001c   Data   RW          155    .data               heap_4.o
    0x2000001c   COMPRESSED   0x00000010   Data   RW          258    .data               port.o
    0x2000002c   COMPRESSED   0x00000040   Data   RW          711    .data               tasks.o
    0x2000006c   COMPRESSED   0x00000014   Data   RW         1030    .data               timers.o
    0x20000080   COMPRESSED   0x00000048   Data   RW         1182    .data               oled.o
    0x200000c8   COMPRESSED   0x00000030   Data   RW         1435    .data               oledfont.o
    0x200000f8   COMPRESSED   0x0000000a   Data   RW         1452    .data               time_task.o
    0x20000102   COMPRESSED   0x00000001   Data   RW         1454    .data               time_task.o
    0x20000103   COMPRESSED   0x00000004   Data   RW         1678    .data               stopwatch_task.o
    0x20000107   COMPRESSED   0x00000001   Data   RW         1740    .data               clock_task.o
    0x20000108   COMPRESSED   0x00000044   Data   RW         1847    .data               freertosinit.o
    0x2000014c   COMPRESSED   0x0000000c   Data   RW         3559    .data               stm32f1xx_hal.o
    0x20000158   COMPRESSED   0x00000004   Data   RW         4952    .data               system_stm32f1xx.o
    0x2000015c        -       0x00003000   Zero   RW          154    .bss                heap_4.o
    0x2000315c        -       0x00000040   Zero   RW          355    .bss                queue.o
    0x2000319c        -       0x000000c8   Zero   RW          710    .bss                tasks.o
    0x20003264        -       0x00000028   Zero   RW         1029    .bss                timers.o
    0x2000328c        -       0x00000018   Zero   RW         1739    .bss                clock_task.o
    0x200032a4        -       0x00000030   Zero   RW         2011    .bss                adc.o
    0x200032d4        -       0x00000054   Zero   RW         2053    .bss                i2c.o
    0x20003328        -       0x00000048   Zero   RW         2213    .bss                stm32f1xx_hal_timebase_tim.o
    0x20003370        -       0x00000400   Zero   RW            1    STACK               startup_stm32f103xb.o


==============================================================================

Image component sizes


      Code (inc. data)   RO Data    RW Data    ZI Data      Debug   Object Name

       168         22          0          0         48       1613   adc.o
        44          4          0          0          0        458   buzzer.o
       120         16          0          0          0        551   calendar_task.o
       848        186          0          1         24       1988   clock_task.o
         0          0          0          0          0      18668   croutine.o
        82          4          0          0          0       1142   delay.o
       766         32          0          0          0       3916   ds1302.o
       366         12          0          0          0       4345   ds18b20.o
         0          0          0          0          0      16888   event_groups.o
        92          8          0          0          0        604   flashlight_task.o
       740        256          0         68          0       2865   freertosinit.o
       256         16          0          0          0        967   gpio.o
       364         22          0         28      12288       4395   heap_4.o
       100         24          0          0          0        528   heart_task.o
       176         30          0          0         84       1629   i2c.o
       328         18          0          0          0        738   information_task.o
       138          0          0          0          0       3026   list.o
       200          6          0          0          0       2907   main.o
       536        162          0          0          0        839   menu_task.o
      1678         66          0         72          0     449395   oled.o
         0          0      13420         48          0        969   oledfont.o
       224         48          0          0          0        583   open_task.o
       610         60          0         16          0       9741   port.o
      1558         24          0          0         64      16588   queue.o
       760         84          0          0          0       1988   setsystemtime_task.o
        36          8        236          0       1024        796   startup_stm32f103xb.o
        64         14          0         12          0       4590   stm32f1xx_hal.o
       944         42          0          0          0       5352   stm32f1xx_hal_adc.o
       158         14          0          0          0      28138   stm32f1xx_hal_cortex.o
       524         40          0          0          0       4074   stm32f1xx_hal_gpio.o
      1414         32          0          0          0       9307   stm32f1xx_hal_i2c.o
        72         10          0          0          0        854   stm32f1xx_hal_msp.o
        74          8          0          0          0       1096   stm32f1xx_hal_pwr.o
      1272         82         18          0          0       5126   stm32f1xx_hal_rcc.o
       236         12          0          0          0       1364   stm32f1xx_hal_rcc_ex.o
       612         24          0          0          0       7092   stm32f1xx_hal_tim.o
         4          0          0          0          0       1557   stm32f1xx_hal_tim_ex.o
       152         20          0          0         72       1451   stm32f1xx_hal_timebase_tim.o
        94         18          0          0          0       5144   stm32f1xx_it.o
       480         34          0          4          0       1624   stopwatch_task.o
         2          0         24          4          0       1095   system_stm32f1xx.o
      3176        246          0         64        200      37553   tasks.o
       344         86          0          0          0        666   temperature_task.o
       844         70          0         11          0       4735   time_task.o
       898         88          0         20         40      14316   timers.o

    ----------------------------------------------------------------------
     21602       1948      13732        348      13844     683261   Object Totals
         0          0         32          0          0          0   (incl. Generated)
        48          0          2          0          0          0   (incl. Padding)

    ----------------------------------------------------------------------

      Code (inc. data)   RO Data    RW Data    ZI Data      Debug   Library Member Name

        86          0          0          0          0          0   __dczerorl2.o
         0          0          0          0          0          0   entry.o
         0          0          0          0          0          0   entry10a.o
         0          0          0          0          0          0   entry11a.o
         8          4          0          0          0          0   entry2.o
         4          0          0          0          0          0   entry5.o
         0          0          0          0          0          0   entry7b.o
         0          0          0          0          0          0   entry8b.o
         8          4          0          0          0          0   entry9a.o
        30          0          0          0          0          0   handlers.o
        36          8          0          0          0         68   init.o
         0          0          0          0          0          0   iusefp.o
        30          0          0          0          0         68   llshl.o
        32          0          0          0          0         68   llushr.o
        36          0          0          0          0         68   memcpya.o
        36          0          0          0          0        108   memseta.o
        56          0          0          0          0         88   d2f.o
       186          0          0          0          0        176   depilogue.o
        34          0          0          0          0         76   dflti.o
        46          0          0          0          0         80   dscalb.o
       176          0          0          0          0        140   fadd.o
       110          0          0          0          0        168   fepilogue.o
        50          0          0          0          0         68   ffixi.o
        18          0          0          0          0         68   fflti.o
        10          0          0          0          0         68   ffltui.o
       100          0          0          0          0         76   fmul.o

    ----------------------------------------------------------------------
      1094         16          0          0          0       1388   Library Totals
         2          0          0          0          0          0   (incl. Padding)

    ----------------------------------------------------------------------

      Code (inc. data)   RO Data    RW Data    ZI Data      Debug   Library Name

       306         16          0          0          0        380   mc_w.l
       786          0          0          0          0       1008   mf_w.l

    ----------------------------------------------------------------------
      1094         16          0          0          0       1388   Library Totals

    ----------------------------------------------------------------------

==============================================================================


      Code (inc. data)   RO Data    RW Data    ZI Data      Debug   

     22696       1964      13732        348      13844     674273   Grand Totals
     22696       1964      13732         96      13844     674273   ELF Image Totals (compressed)
     22696       1964      13732         96          0          0   ROM Totals

==============================================================================

    Total RO  Size (Code + RO Data)                36428 (  35.57kB)
    Total RW  Size (RW Data + ZI Data)             14192 (  13.86kB)
    Total ROM Size (Code + RO Data + RW Data)      36524 (  35.67kB)

==============================================================================

